{
  "abi": [
    {
      "inputs": [
        {
          "components": [
            {
              "internalType": "bytes32",
              "name": "headerHash",
              "type": "bytes32"
            },
            {
              "internalType": "uint32",
              "name": "durationDataStoreId",
              "type": "uint32"
            },
            {
              "internalType": "uint32",
              "name": "globalDataStoreId",
              "type": "uint32"
            },
            {
              "internalType": "uint32",
              "name": "referenceBlockNumber",
              "type": "uint32"
            },
            {
              "internalType": "uint32",
              "name": "blockNumber",
              "type": "uint32"
            },
            {
              "internalType": "uint96",
              "name": "fee",
              "type": "uint96"
            },
            {
              "internalType": "address",
              "name": "confirmer",
              "type": "address"
            },
            {
              "internalType": "bytes32",
              "name": "signatoryRecordHash",
              "type": "bytes32"
            }
          ],
          "internalType": "struct IDataLayrServiceManager.DataStoreMetadata",
          "name": "metadata",
          "type": "tuple"
        }
      ],
      "name": "packDataStoreMetadataExternal",
      "outputs": [
        {
          "internalType": "bytes",
          "name": "",
          "type": "bytes"
        }
      ],
      "stateMutability": "pure",
      "type": "function"
    },
    {
      "inputs": [
        {
          "components": [
            {
              "components": [
                {
                  "internalType": "bytes32",
                  "name": "headerHash",
                  "type": "bytes32"
                },
                {
                  "internalType": "uint32",
                  "name": "durationDataStoreId",
                  "type": "uint32"
                },
                {
                  "internalType": "uint32",
                  "name": "globalDataStoreId",
                  "type": "uint32"
                },
                {
                  "internalType": "uint32",
                  "name": "referenceBlockNumber",
                  "type": "uint32"
                },
                {
                  "internalType": "uint32",
                  "name": "blockNumber",
                  "type": "uint32"
                },
                {
                  "internalType": "uint96",
                  "name": "fee",
                  "type": "uint96"
                },
                {
                  "internalType": "address",
                  "name": "confirmer",
                  "type": "address"
                },
                {
                  "internalType": "bytes32",
                  "name": "signatoryRecordHash",
                  "type": "bytes32"
                }
              ],
              "internalType": "struct IDataLayrServiceManager.DataStoreMetadata",
              "name": "metadata",
              "type": "tuple"
            },
            {
              "internalType": "uint8",
              "name": "duration",
              "type": "uint8"
            },
            {
              "internalType": "uint256",
              "name": "timestamp",
              "type": "uint256"
            },
            {
              "internalType": "uint32",
              "name": "index",
              "type": "uint32"
            }
          ],
          "internalType": "struct IDataLayrServiceManager.DataStoreSearchData",
          "name": "searchData",
          "type": "tuple"
        }
      ],
      "name": "packDataStoreSearchDataExternal",
      "outputs": [
        {
          "internalType": "bytes",
          "name": "",
          "type": "bytes"
        }
      ],
      "stateMutability": "pure",
      "type": "function"
    },
    {
      "inputs": [
        {
          "internalType": "bytes",
          "name": "packedMetadata",
          "type": "bytes"
        }
      ],
      "name": "unpackDataStoreMetadataExternal",
      "outputs": [
        {
          "components": [
            {
              "internalType": "bytes32",
              "name": "headerHash",
              "type": "bytes32"
            },
            {
              "internalType": "uint32",
              "name": "durationDataStoreId",
              "type": "uint32"
            },
            {
              "internalType": "uint32",
              "name": "globalDataStoreId",
              "type": "uint32"
            },
            {
              "internalType": "uint32",
              "name": "referenceBlockNumber",
              "type": "uint32"
            },
            {
              "internalType": "uint32",
              "name": "blockNumber",
              "type": "uint32"
            },
            {
              "internalType": "uint96",
              "name": "fee",
              "type": "uint96"
            },
            {
              "internalType": "address",
              "name": "confirmer",
              "type": "address"
            },
            {
              "internalType": "bytes32",
              "name": "signatoryRecordHash",
              "type": "bytes32"
            }
          ],
          "internalType": "struct IDataLayrServiceManager.DataStoreMetadata",
          "name": "metadata",
          "type": "tuple"
        }
      ],
      "stateMutability": "pure",
      "type": "function"
    },
    {
      "inputs": [
        {
          "internalType": "bytes",
          "name": "packedSearchData",
          "type": "bytes"
        }
      ],
      "name": "unpackDataStoreSearchDataExternal",
      "outputs": [
        {
          "components": [
            {
              "components": [
                {
                  "internalType": "bytes32",
                  "name": "headerHash",
                  "type": "bytes32"
                },
                {
                  "internalType": "uint32",
                  "name": "durationDataStoreId",
                  "type": "uint32"
                },
                {
                  "internalType": "uint32",
                  "name": "globalDataStoreId",
                  "type": "uint32"
                },
                {
                  "internalType": "uint32",
                  "name": "referenceBlockNumber",
                  "type": "uint32"
                },
                {
                  "internalType": "uint32",
                  "name": "blockNumber",
                  "type": "uint32"
                },
                {
                  "internalType": "uint96",
                  "name": "fee",
                  "type": "uint96"
                },
                {
                  "internalType": "address",
                  "name": "confirmer",
                  "type": "address"
                },
                {
                  "internalType": "bytes32",
                  "name": "signatoryRecordHash",
                  "type": "bytes32"
                }
              ],
              "internalType": "struct IDataLayrServiceManager.DataStoreMetadata",
              "name": "metadata",
              "type": "tuple"
            },
            {
              "internalType": "uint8",
              "name": "duration",
              "type": "uint8"
            },
            {
              "internalType": "uint256",
              "name": "timestamp",
              "type": "uint256"
            },
            {
              "internalType": "uint32",
              "name": "index",
              "type": "uint32"
            }
          ],
          "internalType": "struct IDataLayrServiceManager.DataStoreSearchData",
          "name": "searchData",
          "type": "tuple"
        }
      ],
      "stateMutability": "pure",
      "type": "function"
    }
  ],
  "bytecode": {
    "object": "0x608060405234801561001057600080fd5b506106ff806100206000396000f3fe608060405234801561001057600080fd5b506004361061004c5760003560e01c806305e1792a146100515780636c6da21b1461007a578063d52b31961461009a578063dd35e353146100ba575b600080fd5b61006461005f366004610322565b6100cd565b6040516100719190610408565b60405180910390f35b61008d610088366004610529565b6100e8565b60405161007191906105ea565b6100ad6100a8366004610322565b6100f3565b604051610071919061061d565b61008d6100c8366004610660565b610105565b6100d56102b0565b6100df8383610110565b90505b92915050565b60606100e282610180565b6100fb6102f4565b6100df83836101c7565b60606100e282610204565b6101186102b0565b600083905080358252602081013560e01c6020830152602481013560e01c6040830152602881013560e01c6060830152602c81013560e01c6080830152603081013560a01c60a0830152603c81013560601c60c0830152605081013560e08301525092915050565b606061018f8260000151610204565b8260200151836040015184606001516040516020016101b1949392919061067d565b6040516020818303038152906040529050919050565b6101cf6102f4565b6101d98383610110565b8152607083013560f81c60208201526071830135604082015260919092013560e01c60608301525090565b6060816000015182602001518360400151846060015185608001518660a001518760c001518860e001516040516020016101b198979695949392919097885260e096871b6001600160e01b031990811660208a015295871b8616602489015293861b851660288801529190941b909216602c85015260a09290921b6001600160a01b031916603084015260601b6bffffffffffffffffffffffff1916603c830152605082015260700190565b6040805161010081018252600080825260208201819052918101829052606081018290526080810182905260a0810182905260c0810182905260e081019190915290565b60405180608001604052806103076102b0565b81526000602082018190526040820181905260609091015290565b6000806020838503121561033557600080fd5b823567ffffffffffffffff8082111561034d57600080fd5b818501915085601f83011261036157600080fd5b81358181111561037057600080fd5b86602082850101111561038257600080fd5b60209290920196919550909350505050565b80518252602081015163ffffffff808216602085015280604084015116604085015280606084015116606085015280608084015116608085015250506bffffffffffffffffffffffff60a08201511660a083015260018060a01b0360c08201511660c083015260e081015160e08301525050565b61010081016100e28284610394565b604051610100810167ffffffffffffffff8111828210171561044957634e487b7160e01b600052604160045260246000fd5b60405290565b803563ffffffff8116811461046357600080fd5b919050565b80356001600160a01b038116811461046357600080fd5b6000610100828403121561049257600080fd5b61049a610417565b9050813581526104ac6020830161044f565b60208201526104bd6040830161044f565b60408201526104ce6060830161044f565b60608201526104df6080830161044f565b608082015260a08201356bffffffffffffffffffffffff8116811461050357600080fd5b60a082015261051460c08301610468565b60c082015260e082013560e082015292915050565b6000610160828403121561053c57600080fd5b6040516080810181811067ffffffffffffffff8211171561056d57634e487b7160e01b600052604160045260246000fd5b60405261057a848461047f565b815261010083013560ff8116811461059157600080fd5b602082015261012083013560408201526105ae610140840161044f565b60608201529392505050565b60005b838110156105d55781810151838201526020016105bd565b838111156105e4576000848401525b50505050565b60208152600082518060208401526106098160408501602087016105ba565b601f01601f19169190910160400192915050565b600061016082019050610631828451610394565b602083015160ff16610100830152604083015161012083015260609092015163ffffffff166101409091015290565b6000610100828403121561067357600080fd5b6100df838361047f565b6000855161068f818460208a016105ba565b60f89590951b6001600160f81b03191691909401908152600181019290925260e01b6001600160e01b03191660218201526025019291505056fea2646970667358221220b7e923d20da69c49811db1d7b88ed010bfab5bed670e0c287983518ea8726fae64736f6c634300080c0033",
    "linkReferences": {}
  },
  "methodIdentifiers": {
    "packDataStoreMetadataExternal((bytes32,uint32,uint32,uint32,uint32,uint96,address,bytes32))": "dd35e353",
    "packDataStoreSearchDataExternal(((bytes32,uint32,uint32,uint32,uint32,uint96,address,bytes32),uint8,uint256,uint32))": "6c6da21b",
    "unpackDataStoreMetadataExternal(bytes)": "05e1792a",
    "unpackDataStoreSearchDataExternal(bytes)": "d52b3196"
  },
  "id": 125
}