{
  "abi": [
    {
      "inputs": [],
      "stateMutability": "nonpayable",
      "type": "constructor"
    },
    {
      "anonymous": false,
      "inputs": [
        {
          "indexed": false,
          "internalType": "uint8",
          "name": "version",
          "type": "uint8"
        }
      ],
      "name": "Initialized",
      "type": "event"
    },
    {
      "inputs": [
        {
          "internalType": "bytes",
          "name": "header",
          "type": "bytes"
        },
        {
          "internalType": "uint32",
          "name": "firstChunkNumber",
          "type": "uint32"
        },
        {
          "internalType": "bytes[]",
          "name": "polys",
          "type": "bytes[]"
        },
        {
          "components": [
            {
              "components": [
                {
                  "internalType": "uint256",
                  "name": "X",
                  "type": "uint256"
                },
                {
                  "internalType": "uint256",
                  "name": "Y",
                  "type": "uint256"
                }
              ],
              "internalType": "struct BN254.G1Point",
              "name": "interpolationPoly",
              "type": "tuple"
            },
            {
              "components": [
                {
                  "internalType": "uint256",
                  "name": "X",
                  "type": "uint256"
                },
                {
                  "internalType": "uint256",
                  "name": "Y",
                  "type": "uint256"
                }
              ],
              "internalType": "struct BN254.G1Point",
              "name": "revealProof",
              "type": "tuple"
            },
            {
              "components": [
                {
                  "internalType": "uint256[2]",
                  "name": "X",
                  "type": "uint256[2]"
                },
                {
                  "internalType": "uint256[2]",
                  "name": "Y",
                  "type": "uint256[2]"
                }
              ],
              "internalType": "struct BN254.G2Point",
              "name": "zeroPoly",
              "type": "tuple"
            },
            {
              "internalType": "bytes",
              "name": "zeroPolyProof",
              "type": "bytes"
            }
          ],
          "internalType": "struct DataLayrChallengeUtils.MultiRevealProof[]",
          "name": "multiRevealProofs",
          "type": "tuple[]"
        },
        {
          "components": [
            {
              "internalType": "uint256[2]",
              "name": "X",
              "type": "uint256[2]"
            },
            {
              "internalType": "uint256[2]",
              "name": "Y",
              "type": "uint256[2]"
            }
          ],
          "internalType": "struct BN254.G2Point",
          "name": "polyEquivalenceProof",
          "type": "tuple"
        }
      ],
      "name": "batchNonInteractivePolynomialProofs",
      "outputs": [
        {
          "internalType": "bool",
          "name": "",
          "type": "bool"
        }
      ],
      "stateMutability": "view",
      "type": "function"
    },
    {
      "inputs": [
        {
          "internalType": "bytes32",
          "name": "operatorPubkeyHash",
          "type": "bytes32"
        },
        {
          "internalType": "uint256",
          "name": "nonSignerIndex",
          "type": "uint256"
        },
        {
          "components": [
            {
              "internalType": "bytes32[]",
              "name": "nonSignerPubkeyHashes",
              "type": "bytes32[]"
            },
            {
              "internalType": "uint256",
              "name": "signedStakeFirstQuorum",
              "type": "uint256"
            },
            {
              "internalType": "uint256",
              "name": "signedStakeSecondQuorum",
              "type": "uint256"
            }
          ],
          "internalType": "struct IDataLayrServiceManager.SignatoryRecordMinusDataStoreId",
          "name": "signatoryRecord",
          "type": "tuple"
        }
      ],
      "name": "checkExclusionFromNonSignerSet",
      "outputs": [],
      "stateMutability": "pure",
      "type": "function"
    },
    {
      "inputs": [
        {
          "internalType": "bytes32",
          "name": "operatorPubkeyHash",
          "type": "bytes32"
        },
        {
          "internalType": "uint256",
          "name": "nonSignerIndex",
          "type": "uint256"
        },
        {
          "components": [
            {
              "internalType": "bytes32[]",
              "name": "nonSignerPubkeyHashes",
              "type": "bytes32[]"
            },
            {
              "internalType": "uint256",
              "name": "signedStakeFirstQuorum",
              "type": "uint256"
            },
            {
              "internalType": "uint256",
              "name": "signedStakeSecondQuorum",
              "type": "uint256"
            }
          ],
          "internalType": "struct IDataLayrServiceManager.SignatoryRecordMinusDataStoreId",
          "name": "signatoryRecord",
          "type": "tuple"
        }
      ],
      "name": "checkInclusionInNonSignerSet",
      "outputs": [],
      "stateMutability": "pure",
      "type": "function"
    },
    {
      "inputs": [
        {
          "internalType": "uint256",
          "name": "index",
          "type": "uint256"
        },
        {
          "internalType": "uint32",
          "name": "chunkLenE",
          "type": "uint32"
        },
        {
          "internalType": "uint32",
          "name": "numNodeE",
          "type": "uint32"
        },
        {
          "internalType": "uint256",
          "name": "alpha",
          "type": "uint256"
        }
      ],
      "name": "constructZeroPolyEval",
      "outputs": [
        {
          "internalType": "uint256",
          "name": "",
          "type": "uint256"
        }
      ],
      "stateMutability": "nonpayable",
      "type": "function"
    },
    {
      "inputs": [
        {
          "internalType": "bytes",
          "name": "header",
          "type": "bytes"
        }
      ],
      "name": "getDataCommitmentAndMultirevealDegreeAndSymbolBreakdownFromHeader",
      "outputs": [
        {
          "components": [
            {
              "components": [
                {
                  "internalType": "uint256",
                  "name": "X",
                  "type": "uint256"
                },
                {
                  "internalType": "uint256",
                  "name": "Y",
                  "type": "uint256"
                }
              ],
              "internalType": "struct BN254.G1Point",
              "name": "c",
              "type": "tuple"
            },
            {
              "internalType": "uint48",
              "name": "degree",
              "type": "uint48"
            },
            {
              "internalType": "uint32",
              "name": "numSys",
              "type": "uint32"
            },
            {
              "internalType": "uint32",
              "name": "numPar",
              "type": "uint32"
            }
          ],
          "internalType": "struct DataLayrChallengeUtils.DataStoreKZGMetadata",
          "name": "",
          "type": "tuple"
        }
      ],
      "stateMutability": "pure",
      "type": "function"
    },
    {
      "inputs": [
        {
          "internalType": "uint32",
          "name": "i",
          "type": "uint32"
        },
        {
          "internalType": "uint32",
          "name": "numSys",
          "type": "uint32"
        },
        {
          "internalType": "uint32",
          "name": "numPar",
          "type": "uint32"
        }
      ],
      "name": "getLeadingCosetIndexFromHighestRootOfUnity",
      "outputs": [
        {
          "internalType": "uint32",
          "name": "",
          "type": "uint32"
        }
      ],
      "stateMutability": "pure",
      "type": "function"
    },
    {
      "inputs": [
        {
          "internalType": "bytes",
          "name": "header",
          "type": "bytes"
        }
      ],
      "name": "getNumSysFromHeader",
      "outputs": [
        {
          "internalType": "uint32",
          "name": "",
          "type": "uint32"
        }
      ],
      "stateMutability": "pure",
      "type": "function"
    },
    {
      "inputs": [
        {
          "internalType": "uint256",
          "name": "degree",
          "type": "uint256"
        }
      ],
      "name": "getZeroPolyMerkleRoot",
      "outputs": [
        {
          "internalType": "bytes32",
          "name": "",
          "type": "bytes32"
        }
      ],
      "stateMutability": "pure",
      "type": "function"
    },
    {
      "inputs": [
        {
          "internalType": "bytes",
          "name": "poly",
          "type": "bytes"
        },
        {
          "internalType": "uint256",
          "name": "r",
          "type": "uint256"
        }
      ],
      "name": "linearPolynomialEvaluation",
      "outputs": [
        {
          "internalType": "uint256",
          "name": "",
          "type": "uint256"
        }
      ],
      "stateMutability": "pure",
      "type": "function"
    },
    {
      "inputs": [
        {
          "internalType": "uint256",
          "name": "n",
          "type": "uint256"
        }
      ],
      "name": "nextPowerOf2",
      "outputs": [
        {
          "internalType": "uint256",
          "name": "",
          "type": "uint256"
        }
      ],
      "stateMutability": "pure",
      "type": "function"
    },
    {
      "inputs": [
        {
          "internalType": "bytes",
          "name": "header",
          "type": "bytes"
        },
        {
          "internalType": "uint32",
          "name": "chunkNumber",
          "type": "uint32"
        },
        {
          "internalType": "bytes",
          "name": "poly",
          "type": "bytes"
        },
        {
          "components": [
            {
              "components": [
                {
                  "internalType": "uint256",
                  "name": "X",
                  "type": "uint256"
                },
                {
                  "internalType": "uint256",
                  "name": "Y",
                  "type": "uint256"
                }
              ],
              "internalType": "struct BN254.G1Point",
              "name": "interpolationPoly",
              "type": "tuple"
            },
            {
              "components": [
                {
                  "internalType": "uint256",
                  "name": "X",
                  "type": "uint256"
                },
                {
                  "internalType": "uint256",
                  "name": "Y",
                  "type": "uint256"
                }
              ],
              "internalType": "struct BN254.G1Point",
              "name": "revealProof",
              "type": "tuple"
            },
            {
              "components": [
                {
                  "internalType": "uint256[2]",
                  "name": "X",
                  "type": "uint256[2]"
                },
                {
                  "internalType": "uint256[2]",
                  "name": "Y",
                  "type": "uint256[2]"
                }
              ],
              "internalType": "struct BN254.G2Point",
              "name": "zeroPoly",
              "type": "tuple"
            },
            {
              "internalType": "bytes",
              "name": "zeroPolyProof",
              "type": "bytes"
            }
          ],
          "internalType": "struct DataLayrChallengeUtils.MultiRevealProof",
          "name": "multiRevealProof",
          "type": "tuple"
        },
        {
          "components": [
            {
              "internalType": "uint256[2]",
              "name": "X",
              "type": "uint256[2]"
            },
            {
              "internalType": "uint256[2]",
              "name": "Y",
              "type": "uint256[2]"
            }
          ],
          "internalType": "struct BN254.G2Point",
          "name": "polyEquivalenceProof",
          "type": "tuple"
        }
      ],
      "name": "nonInteractivePolynomialProof",
      "outputs": [
        {
          "internalType": "bool",
          "name": "",
          "type": "bool"
        }
      ],
      "stateMutability": "view",
      "type": "function"
    },
    {
      "inputs": [
        {
          "components": [
            {
              "internalType": "uint256",
              "name": "X",
              "type": "uint256"
            },
            {
              "internalType": "uint256",
              "name": "Y",
              "type": "uint256"
            }
          ],
          "internalType": "struct BN254.G1Point",
          "name": "c",
          "type": "tuple"
        },
        {
          "components": [
            {
              "internalType": "uint256[2]",
              "name": "X",
              "type": "uint256[2]"
            },
            {
              "internalType": "uint256[2]",
              "name": "Y",
              "type": "uint256[2]"
            }
          ],
          "internalType": "struct BN254.G2Point",
          "name": "pi",
          "type": "tuple"
        },
        {
          "internalType": "uint256",
          "name": "r",
          "type": "uint256"
        },
        {
          "internalType": "uint256",
          "name": "s",
          "type": "uint256"
        }
      ],
      "name": "openPolynomialAtPoint",
      "outputs": [
        {
          "internalType": "bool",
          "name": "",
          "type": "bool"
        }
      ],
      "stateMutability": "view",
      "type": "function"
    },
    {
      "inputs": [
        {
          "internalType": "uint32",
          "name": "value",
          "type": "uint32"
        }
      ],
      "name": "reverseBits",
      "outputs": [
        {
          "internalType": "uint32",
          "name": "",
          "type": "uint32"
        }
      ],
      "stateMutability": "pure",
      "type": "function"
    },
    {
      "inputs": [
        {
          "internalType": "uint32",
          "name": "length",
          "type": "uint32"
        },
        {
          "internalType": "uint32",
          "name": "value",
          "type": "uint32"
        }
      ],
      "name": "reverseBitsLimited",
      "outputs": [
        {
          "internalType": "uint32",
          "name": "",
          "type": "uint32"
        }
      ],
      "stateMutability": "pure",
      "type": "function"
    },
    {
      "inputs": [
        {
          "components": [
            {
              "components": [
                {
                  "internalType": "uint256",
                  "name": "X",
                  "type": "uint256"
                },
                {
                  "internalType": "uint256",
                  "name": "Y",
                  "type": "uint256"
                }
              ],
              "internalType": "struct BN254.G1Point",
              "name": "c",
              "type": "tuple"
            },
            {
              "internalType": "uint48",
              "name": "degree",
              "type": "uint48"
            },
            {
              "internalType": "uint32",
              "name": "numSys",
              "type": "uint32"
            },
            {
              "internalType": "uint32",
              "name": "numPar",
              "type": "uint32"
            }
          ],
          "internalType": "struct DataLayrChallengeUtils.DataStoreKZGMetadata",
          "name": "dskzgMetadata",
          "type": "tuple"
        },
        {
          "internalType": "uint32",
          "name": "chunkNumber",
          "type": "uint32"
        },
        {
          "components": [
            {
              "internalType": "uint256",
              "name": "X",
              "type": "uint256"
            },
            {
              "internalType": "uint256",
              "name": "Y",
              "type": "uint256"
            }
          ],
          "internalType": "struct BN254.G1Point",
          "name": "interpolationPoly",
          "type": "tuple"
        },
        {
          "components": [
            {
              "internalType": "uint256",
              "name": "X",
              "type": "uint256"
            },
            {
              "internalType": "uint256",
              "name": "Y",
              "type": "uint256"
            }
          ],
          "internalType": "struct BN254.G1Point",
          "name": "revealProof",
          "type": "tuple"
        },
        {
          "components": [
            {
              "internalType": "uint256[2]",
              "name": "X",
              "type": "uint256[2]"
            },
            {
              "internalType": "uint256[2]",
              "name": "Y",
              "type": "uint256[2]"
            }
          ],
          "internalType": "struct BN254.G2Point",
          "name": "zeroPoly",
          "type": "tuple"
        },
        {
          "internalType": "bytes",
          "name": "zeroPolyProof",
          "type": "bytes"
        }
      ],
      "name": "validateDisclosureResponse",
      "outputs": [
        {
          "internalType": "bool",
          "name": "",
          "type": "bool"
        }
      ],
      "stateMutability": "view",
      "type": "function"
    },
    {
      "inputs": [
        {
          "internalType": "bytes[]",
          "name": "polys",
          "type": "bytes[]"
        },
        {
          "components": [
            {
              "internalType": "uint256",
              "name": "X",
              "type": "uint256"
            },
            {
              "internalType": "uint256",
              "name": "Y",
              "type": "uint256"
            }
          ],
          "internalType": "struct BN254.G1Point[]",
          "name": "interpolationPolys",
          "type": "tuple[]"
        },
        {
          "components": [
            {
              "internalType": "uint256[2]",
              "name": "X",
              "type": "uint256[2]"
            },
            {
              "internalType": "uint256[2]",
              "name": "Y",
              "type": "uint256[2]"
            }
          ],
          "internalType": "struct BN254.G2Point",
          "name": "polyEquivalenceProof",
          "type": "tuple"
        }
      ],
      "name": "verifyBatchPolyEquivalenceProof",
      "outputs": [
        {
          "internalType": "bool",
          "name": "",
          "type": "bool"
        }
      ],
      "stateMutability": "view",
      "type": "function"
    },
    {
      "inputs": [
        {
          "internalType": "bytes",
          "name": "poly",
          "type": "bytes"
        },
        {
          "components": [
            {
              "internalType": "uint256",
              "name": "X",
              "type": "uint256"
            },
            {
              "internalType": "uint256",
              "name": "Y",
              "type": "uint256"
            }
          ],
          "internalType": "struct BN254.G1Point",
          "name": "interpolationPoly",
          "type": "tuple"
        },
        {
          "components": [
            {
              "internalType": "uint256[2]",
              "name": "X",
              "type": "uint256[2]"
            },
            {
              "internalType": "uint256[2]",
              "name": "Y",
              "type": "uint256[2]"
            }
          ],
          "internalType": "struct BN254.G2Point",
          "name": "polyEquivalenceProof",
          "type": "tuple"
        }
      ],
      "name": "verifyPolyEquivalenceProof",
      "outputs": [
        {
          "internalType": "bool",
          "name": "",
          "type": "bool"
        }
      ],
      "stateMutability": "view",
      "type": "function"
    }
  ],
  "bytecode": {
    "object": "0x60806040523480156200001157600080fd5b506200001c62000022565b620000e4565b600054610100900460ff16156200008f5760405162461bcd60e51b815260206004820152602760248201527f496e697469616c697a61626c653a20636f6e747261637420697320696e697469604482015266616c697a696e6760c81b606482015260840160405180910390fd5b60005460ff9081161015620000e2576000805460ff191660ff9081179091556040519081527f7f26b83ff96e1f2b6a682f133852f6798a09c465da95921460cefb38474024989060200160405180910390a15b565b612ae380620000f46000396000f3fe608060405234801561001057600080fd5b506004361061010b5760003560e01c8063a1b063f0116100a2578063c9f698e711610071578063c9f698e71461027a578063caba41c91461028d578063d51dd9dc146102a0578063e34c39d6146102b3578063f07ac84a146102cc57600080fd5b8063a1b063f01461022c578063b39028271461023f578063b4a6a8f014610252578063c1e328611461026557600080fd5b80632a797870116100de5780632a79787014610194578063421052ad146101f35780636781cce31461020657806399ae87ee1461021957600080fd5b80630e425d17146101105780630f4702321461013657806329cc94b8146101595780632a6fa69314610181575b600080fd5b61012361011e366004611e50565b6102df565b6040519081526020015b60405180910390f35b610149610144366004611edb565b61030c565b604051901515815260200161012d565b61016c610167366004611f55565b6103b1565b60405163ffffffff909116815260200161012d565b61012361018f366004611e50565b6103f2565b6101a76101a2366004611f88565b6106f0565b604080518251805182526020908101518183015283015165ffffffffffff16818301529082015163ffffffff90811660608084019190915290920151909116608082015260a00161012d565b610123610201366004611fc9565b610766565b610149610214366004612051565b610822565b610123610227366004612102565b610b2f565b61014961023a36600461214d565b610bb3565b61016c61024d36600461220c565b610ce0565b6101496102603660046122b7565b610d2e565b6102786102733660046122fc565b610e0e565b005b61016c610288366004612352565b610f05565b61014961029b366004612395565b611061565b6101496102ae366004612503565b6114a2565b61016c6102c1366004611f88565b506084013560e01c90565b6102786102da3660046122fc565b61168f565b600060015b82816001901b101561030257806102fa81612611565b9150506102e4565b6001901b92915050565b600080600080516020612a8e833981519152868660405161032e92919061262c565b6040805191829003822060208084019190915287359183019190915286013560608201526080016040516020818303038152906040528051906020012060001c6103789190612652565b90506000610387878784610b2f565b905060006103a561039d36889003880188612666565b868585610d2e565b98975050505050505050565b6000806103c38463ffffffff1661170e565b6103ce906020612682565b90508063ffffffff166103e084610ce0565b63ffffffff16901c9150505b92915050565b6000806103fe8361170e565b90508061042d57507fe82cea94884b1b895ea0742840a3b19249a723810fd1b04d8564d675b0a416f192915050565b806001141561045e57507f4843774a80fc8385b31024f5bd18b42e62de439206ab9468d42d826796d41f6792915050565b806002141561048f57507f092d3e5f87f5293e7ab0cc2ca6b0b5e4adb5e0011656544915f7cea34e69e5ab92915050565b80600314156104c057507f494b208540ec8624fbbb3f2c64ffccdaf6253f8f4e50c0d93922d88195b0775592915050565b80600414156104f157507ffdb44b84a82893cfa0e37a97f09ffc4298ad5e62be1bea1d03320ae836213d2292915050565b806005141561052257507f3f50cb08231d2a76853ba9dbb20dad45a1b75c57cdaff6223bfe069752cff3d492915050565b806006141561055357507fbb39eebd8138eefd5802a49d571e65b3e0d4e32277c28fbf5fbca66e7fb0431092915050565b806007141561058457507ff0a39b513e11fa80cbecbf352f69310eddd5cd03148768e0e9542bd600b133ec92915050565b80600814156105b557507f038cca2238865414efb752cc004fffec9e6069b709f495249cdf36efbd5952f692915050565b80600914156105e657507f2a26b054ed559dd255d8ac9060ebf6b95b768d87de767f8174ad2f9a4e48dd0192915050565b80600a141561061757507f1fe180d0bc4ff7c69fefa595b3b5f3c284535a280f6fdcf69b20770d1e20e1fc92915050565b80600b141561064857507f60e34ad57c61cd6fdd8177437c30e4a30334e63d7683989570cf27020efc820192915050565b80600c141561067957507feda2417e770ddbe88f083acf06b6794dfb76301314a32bd0697440d76f6cd9cc92915050565b80600d14156106aa57507f8cbe9b8cf92ce70e3bec8e1e72a0f85569017a7e43c3db50e4a5badb8dea7ce892915050565b60405162461bcd60e51b81526020600482015260166024820152754c6f67206e6f7420696e2076616c69642072616e676560501b60448201526064015b60405180910390fd5b506040805160c0810182526000608080830182815260a08401839052835260208084018390528385018390526060938401839052845180860186528635815286820135818301528551928301865282528585013560e090811c9183019190915260849095013590941c9284019290925282015290565b6000600080516020612a8e83398151915261078184876103b1565b63ffffffff168563ffffffff1609945060006107cc7f16e73dfdad310991df5ce19ce85943e01dcb5564b6f24c799d0e470cba9d181187600080516020612a8e833981519152611774565b90506107ed838663ffffffff16600080516020612a8e833981519152611774565b9250600080516020612a8e83398151915261081682600080516020612a8e8339815191526126a7565b84089695505050505050565b600080856001600160401b0381111561083d5761083d612227565b604051908082528060200260200182016040528015610866578160200160208202803683370190505b50905060005b8681101561094e57878782818110610886576108866126be565b905060200281019061089891906126d4565b6040516108a692919061262c565b60405180910390208686838181106108c0576108c06126be565b905060400201600001358787848181106108dc576108dc6126be565b90506040020160200135604051602001610909939291909283526020830191909152604082015260600190565b60405160208183030381529060405280519060200120828281518110610931576109316126be565b60209081029190910101528061094681612611565b91505061086c565b506000600080516020612a8e83398151915282604051602001610971919061274d565b6040516020818303038152906040528051906020012060001c6109949190612652565b905061099e611d76565b600080516020612a8e8339815191528360006040516020016109c1929190612759565b6040516020818303038152906040528051906020012060001c6109e49190612652565b80825260208201526000878782816109fe576109fe6126be565b905060400201803603810190610a149190612666565b90506000610a468b8b6000818110610a2e57610a2e6126be565b9050602002810190610a4091906126d4565b86610b2f565b905060015b88811015610b1357610a9183610a8c8c8c85818110610a6c57610a6c6126be565b905060400201803603810190610a829190612666565b60208801516117e0565b611870565b92506000610ac28d8d84818110610aaa57610aaa6126be565b9050602002810190610abc91906126d4565b88610b2f565b9050600080516020612a8e8339815191528082876001602002015109840860208601518651919450600080516020612a8e833981519152910960208601525080610b0b81612611565b915050610a4b565b50610b2082888684610d2e565b9b9a5050505050505050505050565b600080836001825b82811015610ba5576000888289610b4f826020612772565b92610b5c9392919061278a565b610b65916127b4565b9050600080516020612a8e8339815191528084830986089450600080516020612a8e8339815191528784099250610b9d602083612772565b915050610b37565b5091925050505b9392505050565b600080610bc089896106f0565b9050610bec81888660408101610bde368390038301608084016127d2565b6102ae6101008b018b6126d4565b610c085760405162461bcd60e51b81526004016106e7906127ee565b60208101518590610c1a906001612830565b610c2590602061285a565b65ffffffffffff1614610c4a5760405162461bcd60e51b81526004016106e790612888565b6000600080516020612a8e8339815191528787604051610c6b92919061262c565b6040805191829003822060208084019190915288359183019190915287013560608201526080016040516020818303038152906040528051906020012060001c610cb59190612652565b90506000610cc4888884610b2f565b9050610b20610cd836889003880188612666565b868484610d2e565b600080805b6020811015610d27576001811b84811663ffffffff1615610d1457610d0b82601f6126a7565b6001901b831792505b5080610d1f81612611565b915050610ce5565b5092915050565b60408051808201909152600181526002602082015260009081610d59610d5383611904565b866117e0565b604080518082019091527f220ac48bb1f91fd93f502a3d0caa077ac70e0af8819b9d8fa26a168a2c558a5781527f08f54b82af08ceaf7cd5f180bac94870f6d8100a9c9afa9dd09a4491653891126020820152909150610db98183611870565b91506000610dcf610dc985611904565b876117e0565b90506000610ddd8a83611870565b9050610e0084610df2368c90038c018c6127d2565b83610dfb6119c3565b611a83565b9a9950505050505050505050565b610e1881806128e5565b159050610f0057610e2981806128e5565b905082148015610e65575082610e3f82806128e5565b610e4a6001866126a7565b818110610e5957610e596126be565b9050602002013560001c105b80610e92575082610e7682806128e5565b84818110610e8657610e866126be565b9050602002013560001c115b610eae5760405162461bcd60e51b81526004016106e79061292e565b8115610f005782610ebf82806128e5565b610eca6001866126a7565b818110610ed957610ed96126be565b9050602002013560001c10610f005760405162461bcd60e51b81526004016106e79061292e565b505050565b600080610f1283856129b1565b90506000610f258563ffffffff166102df565b90506000610f3386846129d0565b63ffffffff1615610f45576001610f48565b60005b60ff16610f5587856129f3565b610f5f91906129b1565b90506000610f7b610f708385612a16565b63ffffffff166102df565b90508663ffffffff168863ffffffff161015610fbd5780610f9c828a6103b1565b610fa890610100612a16565b610fb291906129f3565b945050505050610bac565b610fc78784612682565b610fd19082612682565b63ffffffff168863ffffffff161015610ffe5780610f9c8185610ff48b8d612682565b61016791906129b1565b60405162461bcd60e51b815260206004820152603260248201527f43616e6e6f7420637265617465206e756d626572206f66206672616d6520686960448201527167686572207468616e20706f737369626c6560701b60648201526084016106e7565b600080856001600160401b0381111561107c5761107c612227565b6040519080825280602002602001820160405280156110a5578160200160208202803683370190505b50905060006110b48b8b6106f0565b90508460005b818110156112e257611185836110d0838e6129b1565b8a8a858181106110e2576110e26126be565b90506020028101906110f49190612a39565b8b8b86818110611106576111066126be565b90506020028101906111189190612a39565b6040018c8c8781811061112d5761112d6126be565b905060200281019061113f9190612a39565b60800180360381019061115291906127d2565b8d8d88818110611164576111646126be565b90506020028101906111769190612a39565b6102ae906101008101906126d4565b6111a15760405162461bcd60e51b81526004016106e7906127ee565b8989828181106111b3576111b36126be565b90506020028101906111c591906126d4565b9050836020015160206111d8919061285a565b65ffffffffffff16146111fd5760405162461bcd60e51b81526004016106e790612888565b89898281811061120f5761120f6126be565b905060200281019061122191906126d4565b60405161122f92919061262c565b6040518091039020888883818110611249576112496126be565b905060200281019061125b9190612a39565b3589898481811061126e5761126e6126be565b90506020028101906112809190612a39565b6040516112a793929160209081013591019283526020830191909152604082015260600190565b604051602081830303815290604052805190602001208482815181106112cf576112cf6126be565b60209081029190910101526001016110ba565b506000600080516020612a8e83398151915284604051602001611305919061274d565b6040516020818303038152906040528051906020012060001c6113289190612652565b9050611332611d76565b600080516020612a8e833981519152856000604051602001611355929190612759565b6040516020818303038152906040528051906020012060001c6113789190612652565b8082526020820152600089898281611392576113926126be565b90506020028101906113a49190612a39565b6113b49036819003810190612666565b905060006113ce8d8d6000818110610a2e57610a2e6126be565b905060015b8a8110156114805761141683610a8c8e8e858181106113f4576113f46126be565b90506020028101906114069190612a39565b610a829036819003810190612666565b9250600061142f8f8f84818110610aaa57610aaa6126be565b9050600080516020612a8e8339815191528082876001602002015109840860208601518651919450600080516020612a8e83398151915291096020860152508061147881612611565b9150506113d3565b5061148d828a8684610d2e565b97505050505050505098975050505050505050565b6001546000906114b3602084612a5a565b1461153f5760405162461bcd60e51b815260206004820152605060248201527f446174614c6179724368616c6c656e67655574696c732e76616c69646174654460448201527f6973636c6f73757265526573706f6e73653a20696e636f7272656374206d657260648201526f0d6d8ca40e0e4dedecc40d8cadccee8d60831b608482015260a4016106e7565b6115f883838080601f016020809104026020016040519081016040528093929190818152602001838380828437600092019190915250505060208b015161158e915065ffffffffffff166103f2565b86516020808201519151818a01518083015190516040805194850195909552938301919091526060820152608081019190915260a001604051602081830303815290604052805190602001206115ed8b8d604001518e60600151610f05565b63ffffffff16611cf0565b6116445760405162461bcd60e51b815260206004820181905260248201527f496e636f7272656374207a65726f20706f6c79206d65726b6c652070726f6f6660448201526064016106e7565b875160009061166490610a8c61165f368b90038b018b612666565b611904565b905061168261167836889003880188612666565b8683610dfb6119c3565b9998505050505050505050565b61169981806128e5565b838181106116a9576116a96126be565b905060200201358314610f005760405162461bcd60e51b815260206004820152602760248201527f6f70657261746f72206e6f7420696e636c7564656420696e206e6f6e2d7369676044820152661b995c881cd95d60ca1b60648201526084016106e7565b60008082116117555760405162461bcd60e51b8152602060048201526013602482015272131bd9c81b5d5cdd081899481919599a5b9959606a1b60448201526064016106e7565b60005b600183821c146103ec578061176c81612611565b915050611758565b60008061177f611d94565b611787611db2565b602080825281810181905260408201819052606082018890526080820187905260a082018690528260c08360056107d05a03fa92508280156117c8576117ca565bfe5b50826117d557600080fd5b505195945050505050565b60408051808201909152600080825260208201526117fc611dd0565b835181526020808501519082015260408082018490526000908360608460076107d05a03fa90508080156117c85750806118685760405162461bcd60e51b815260206004820152600d60248201526c1958cb5b5d5b0b59985a5b1959609a1b60448201526064016106e7565b505092915050565b604080518082019091526000808252602082015261188c611dee565b835181526020808501518183015283516040808401919091529084015160608301526000908360808460066107d05a03fa90508080156117c85750806118685760405162461bcd60e51b815260206004820152600d60248201526c1958cb5859190b59985a5b1959609a1b60448201526064016106e7565b6040805180820190915260008082526020820152815115801561192957506020820151155b15611947575050604080518082019091526000808252602082015290565b6040518060400160405280836000015181526020017f30644e72e131a029b85045b68181585d97816a916871ca8d3c208c16d87cfd47846020015161198c9190612652565b6119b6907f30644e72e131a029b85045b68181585d97816a916871ca8d3c208c16d87cfd476126a7565b905292915050565b919050565b6119cb611e0c565b50604080516080810182527f198e9393920d483a7260bfb731fb5d25f1aa493335a9e71297e485b7aef312c28183019081527f1800deef121f1e76426a00665e5c4479674322d4f75edadd46debd5cd992f6ed6060830152815281518083019092527f275dc4a288d1afb3cbb1ac09187524c7db36395df7be3b99e673b13a075a65ec82527f1d9befcd05a5323e6da4d435f3b617cdb3af83285c2df711ef39c01571827f9d60208381019190915281019190915290565b604080518082018252858152602080820185905282518084019093528583528201839052600091611ab2611e31565b60005b6002811015611c77576000611acb826006612a6e565b9050848260028110611adf57611adf6126be565b60200201515183611af1836000612772565b600c8110611b0157611b016126be565b6020020152848260028110611b1857611b186126be565b60200201516020015183826001611b2f9190612772565b600c8110611b3f57611b3f6126be565b6020020152838260028110611b5657611b566126be565b6020020151515183611b69836002612772565b600c8110611b7957611b796126be565b6020020152838260028110611b9057611b906126be565b6020020151516001602002015183611ba9836003612772565b600c8110611bb957611bb96126be565b6020020152838260028110611bd057611bd06126be565b602002015160200151600060028110611beb57611beb6126be565b602002015183611bfc836004612772565b600c8110611c0c57611c0c6126be565b6020020152838260028110611c2357611c236126be565b602002015160200151600160028110611c3e57611c3e6126be565b602002015183611c4f836005612772565b600c8110611c5f57611c5f6126be565b60200201525080611c6f81612611565b915050611ab5565b50611c80611d94565b60006020826101808560086107d05a03fa90508080156117c8575080611ce05760405162461bcd60e51b81526020600482015260156024820152741c185a5c9a5b99cb5bdc18dbd9194b59985a5b1959605a1b60448201526064016106e7565b5051151598975050505050505050565b600083611cfe868585611d08565b1495945050505050565b60008260205b85518111611d6d57611d21600285612652565b611d4257816000528086015160205260406000209150600284049350611d5b565b8086015160005281602052604060002091506002840493505b611d66602082612772565b9050611d0e565b50949350505050565b60405180604001604052806002906020820280368337509192915050565b60405180602001604052806001906020820280368337509192915050565b6040518060c001604052806006906020820280368337509192915050565b60405180606001604052806003906020820280368337509192915050565b60405180608001604052806004906020820280368337509192915050565b6040518060400160405280611e1f611d76565b8152602001611e2c611d76565b905290565b604051806101800160405280600c906020820280368337509192915050565b600060208284031215611e6257600080fd5b5035919050565b60008083601f840112611e7b57600080fd5b5081356001600160401b03811115611e9257600080fd5b602083019150836020828501011115611eaa57600080fd5b9250929050565b600060408284031215611ec357600080fd5b50919050565b600060808284031215611ec357600080fd5b60008060008060e08587031215611ef157600080fd5b84356001600160401b03811115611f0757600080fd5b611f1387828801611e69565b9095509350611f2790508660208701611eb1565b9150611f368660608701611ec9565b905092959194509250565b803563ffffffff811681146119be57600080fd5b60008060408385031215611f6857600080fd5b611f7183611f41565b9150611f7f60208401611f41565b90509250929050565b60008060208385031215611f9b57600080fd5b82356001600160401b03811115611fb157600080fd5b611fbd85828601611e69565b90969095509350505050565b60008060008060808587031215611fdf57600080fd5b84359350611fef60208601611f41565b9250611ffd60408601611f41565b9396929550929360600135925050565b60008083601f84011261201f57600080fd5b5081356001600160401b0381111561203657600080fd5b6020830191508360208260051b8501011115611eaa57600080fd5b600080600080600060c0868803121561206957600080fd5b85356001600160401b038082111561208057600080fd5b61208c89838a0161200d565b909750955060208801359150808211156120a557600080fd5b818801915088601f8301126120b957600080fd5b8135818111156120c857600080fd5b8960208260061b85010111156120dd57600080fd5b6020830195508094505050506120f68760408801611ec9565b90509295509295909350565b60008060006040848603121561211757600080fd5b83356001600160401b0381111561212d57600080fd5b61213986828701611e69565b909790965060209590950135949350505050565b6000806000806000806000610100888a03121561216957600080fd5b87356001600160401b038082111561218057600080fd5b61218c8b838c01611e69565b90995097508791506121a060208b01611f41565b965060408a01359150808211156121b657600080fd5b6121c28b838c01611e69565b909650945060608a01359150808211156121db57600080fd5b508801610120818b0312156121ef57600080fd5b91506121fe8960808a01611ec9565b905092959891949750929550565b60006020828403121561221e57600080fd5b610bac82611f41565b634e487b7160e01b600052604160045260246000fd5b604080519081016001600160401b038111828210171561225f5761225f612227565b60405290565b604051608081016001600160401b038111828210171561225f5761225f612227565b60006040828403121561229957600080fd5b6122a161223d565b9050813581526020820135602082015292915050565b60008060008061010085870312156122ce57600080fd5b6122d88686612287565b93506122e78660408701611ec9565b939693955050505060c08201359160e0013590565b60008060006060848603121561231157600080fd5b833592506020840135915060408401356001600160401b0381111561233557600080fd5b84016060818703121561234757600080fd5b809150509250925092565b60008060006060848603121561236757600080fd5b61237084611f41565b925061237e60208501611f41565b915061238c60408501611f41565b90509250925092565b600080600080600080600080610100898b0312156123b257600080fd5b88356001600160401b03808211156123c957600080fd5b6123d58c838d01611e69565b909a5098508891506123e960208c01611f41565b975060408b01359150808211156123ff57600080fd5b61240b8c838d0161200d565b909750955060608b013591508082111561242457600080fd5b506124318b828c0161200d565b909450925061244590508a60808b01611ec9565b90509295985092959890939650565b600082601f83011261246557600080fd5b604051604081018181106001600160401b038211171561248757612487612227565b806040525080604084018581111561249e57600080fd5b845b818110156124b85780358352602092830192016124a0565b509195945050505050565b6000608082840312156124d557600080fd5b6124dd61223d565b90506124e98383612454565b81526124f88360408401612454565b602082015292915050565b60008060008060008060008789036101e081121561252057600080fd5b60a081121561252e57600080fd5b50612537612265565b6125418a8a612287565b8152604089013565ffffffffffff8116811461255c57600080fd5b602082015261256d60608a01611f41565b604082015261257e60808a01611f41565b6060820152965061259160a08901611f41565b95506125a08960c08a01611eb1565b94506125b0896101008a01611eb1565b93506125c0896101408a016124c3565b92506101c08801356001600160401b038111156125dc57600080fd5b6125e88a828b01611e69565b989b979a50959850939692959293505050565b634e487b7160e01b600052601160045260246000fd5b6000600019821415612625576126256125fb565b5060010190565b8183823760009101908152919050565b634e487b7160e01b600052601260045260246000fd5b6000826126615761266161263c565b500690565b60006040828403121561267857600080fd5b610bac8383612287565b600063ffffffff8381169083168181101561269f5761269f6125fb565b039392505050565b6000828210156126b9576126b96125fb565b500390565b634e487b7160e01b600052603260045260246000fd5b6000808335601e198436030181126126eb57600080fd5b8301803591506001600160401b0382111561270557600080fd5b602001915036819003821315611eaa57600080fd5b60008151602080840160005b8381101561274257815187529582019590820190600101612726565b509495945050505050565b6000610bac828461271a565b6000612765828561271a565b9283525050602001919050565b60008219821115612785576127856125fb565b500190565b6000808585111561279a57600080fd5b838611156127a757600080fd5b5050820193919092039150565b803560208310156103ec57600019602084900360031b1b1692915050565b6000608082840312156127e457600080fd5b610bac83836124c3565b60208082526022908201527f52657665616c206661696c65642064756520746f206e6f6e20312070616972696040820152616e6760f01b606082015260800190565b600065ffffffffffff808316818516808303821115612851576128516125fb565b01949350505050565b600065ffffffffffff8083168185168183048111821515161561287f5761287f6125fb565b02949350505050565b60208082526038908201527f506f6c796e6f6d69616c206d757374206861766520612032353620626974206360408201527f6f656666696369656e7420666f722065616368207465726d0000000000000000606082015260800190565b6000808335601e198436030181126128fc57600080fd5b8301803591506001600160401b0382111561291657600080fd5b6020019150600581901b3603821315611eaa57600080fd5b6020808252605c908201527f446174614c6179724368616c6c656e67655574696c732e636865636b4578636c60408201527f7573696f6e46726f6d4e6f6e5369676e65725365743a2050726f76696465642060608201527f6e6f6e7369676e657220696e64657820697320696e636f727265637400000000608082015260a00190565b600063ffffffff808316818516808303821115612851576128516125fb565b600063ffffffff808416806129e7576129e761263c565b92169190910692915050565b600063ffffffff80841680612a0a57612a0a61263c565b92169190910492915050565b600063ffffffff8083168185168183048111821515161561287f5761287f6125fb565b6000823561011e19833603018112612a5057600080fd5b9190910192915050565b600082612a6957612a6961263c565b500490565b6000816000190483118215151615612a8857612a886125fb565b50029056fe30644e72e131a029b85045b68181585d2833e84879b9709143e1f593f0000001a264697066735822122031d53b08ec7cbd0c97402857a5abfc59e9549401f9a5f5883ea0fb852019eb7c64736f6c634300080c0033",
    "linkReferences": {}
  },
  "methodIdentifiers": {
    "batchNonInteractivePolynomialProofs(bytes,uint32,bytes[],((uint256,uint256),(uint256,uint256),(uint256[2],uint256[2]),bytes)[],(uint256[2],uint256[2]))": "caba41c9",
    "checkExclusionFromNonSignerSet(bytes32,uint256,(bytes32[],uint256,uint256))": "c1e32861",
    "checkInclusionInNonSignerSet(bytes32,uint256,(bytes32[],uint256,uint256))": "f07ac84a",
    "constructZeroPolyEval(uint256,uint32,uint32,uint256)": "421052ad",
    "getDataCommitmentAndMultirevealDegreeAndSymbolBreakdownFromHeader(bytes)": "2a797870",
    "getLeadingCosetIndexFromHighestRootOfUnity(uint32,uint32,uint32)": "c9f698e7",
    "getNumSysFromHeader(bytes)": "e34c39d6",
    "getZeroPolyMerkleRoot(uint256)": "2a6fa693",
    "linearPolynomialEvaluation(bytes,uint256)": "99ae87ee",
    "nextPowerOf2(uint256)": "0e425d17",
    "nonInteractivePolynomialProof(bytes,uint32,bytes,((uint256,uint256),(uint256,uint256),(uint256[2],uint256[2]),bytes),(uint256[2],uint256[2]))": "a1b063f0",
    "openPolynomialAtPoint((uint256,uint256),(uint256[2],uint256[2]),uint256,uint256)": "b4a6a8f0",
    "reverseBits(uint32)": "b3902827",
    "reverseBitsLimited(uint32,uint32)": "29cc94b8",
    "validateDisclosureResponse(((uint256,uint256),uint48,uint32,uint32),uint32,(uint256,uint256),(uint256,uint256),(uint256[2],uint256[2]),bytes)": "d51dd9dc",
    "verifyBatchPolyEquivalenceProof(bytes[],(uint256,uint256)[],(uint256[2],uint256[2]))": "6781cce3",
    "verifyPolyEquivalenceProof(bytes,(uint256,uint256),(uint256[2],uint256[2]))": "0f470232"
  },
  "id": 113
}