{
  "abi": [
    {
      "inputs": [],
      "stateMutability": "nonpayable",
      "type": "constructor"
    },
    {
      "anonymous": false,
      "inputs": [
        {
          "indexed": false,
          "internalType": "address",
          "name": "pusher",
          "type": "address"
        },
        {
          "indexed": false,
          "internalType": "bool",
          "name": "status",
          "type": "bool"
        }
      ],
      "name": "AddDataStoreRollupPermission",
      "type": "event"
    },
    {
      "anonymous": false,
      "inputs": [
        {
          "indexed": false,
          "internalType": "address",
          "name": "delegator",
          "type": "address"
        },
        {
          "indexed": false,
          "internalType": "bool",
          "name": "status",
          "type": "bool"
        }
      ],
      "name": "AddDelegatorPermission",
      "type": "event"
    },
    {
      "anonymous": false,
      "inputs": [
        {
          "indexed": false,
          "internalType": "address",
          "name": "operator",
          "type": "address"
        },
        {
          "indexed": false,
          "internalType": "bool",
          "name": "status",
          "type": "bool"
        }
      ],
      "name": "AddOperatorDeregisterPermission",
      "type": "event"
    },
    {
      "anonymous": false,
      "inputs": [
        {
          "indexed": false,
          "internalType": "address",
          "name": "operator",
          "type": "address"
        },
        {
          "indexed": false,
          "internalType": "bool",
          "name": "status",
          "type": "bool"
        }
      ],
      "name": "AddOperatorRegisterPermission",
      "type": "event"
    },
    {
      "anonymous": false,
      "inputs": [
        {
          "indexed": false,
          "internalType": "address",
          "name": "pusher",
          "type": "address"
        },
        {
          "indexed": false,
          "internalType": "bool",
          "name": "status",
          "type": "bool"
        }
      ],
      "name": "ChangeDataStoreRollupPermission",
      "type": "event"
    },
    {
      "anonymous": false,
      "inputs": [
        {
          "indexed": false,
          "internalType": "address",
          "name": "delegator",
          "type": "address"
        },
        {
          "indexed": false,
          "internalType": "bool",
          "name": "status",
          "type": "bool"
        }
      ],
      "name": "ChangeDelegatorPermission",
      "type": "event"
    },
    {
      "anonymous": false,
      "inputs": [
        {
          "indexed": false,
          "internalType": "address",
          "name": "operator",
          "type": "address"
        },
        {
          "indexed": false,
          "internalType": "bool",
          "name": "status",
          "type": "bool"
        }
      ],
      "name": "ChangeOperatorDeregisterPermission",
      "type": "event"
    },
    {
      "anonymous": false,
      "inputs": [
        {
          "indexed": false,
          "internalType": "address",
          "name": "operator",
          "type": "address"
        },
        {
          "indexed": false,
          "internalType": "bool",
          "name": "status",
          "type": "bool"
        }
      ],
      "name": "ChangeOperatorRegisterPermission",
      "type": "event"
    },
    {
      "anonymous": false,
      "inputs": [
        {
          "indexed": false,
          "internalType": "uint8",
          "name": "version",
          "type": "uint8"
        }
      ],
      "name": "Initialized",
      "type": "event"
    },
    {
      "anonymous": false,
      "inputs": [
        {
          "indexed": true,
          "internalType": "address",
          "name": "previousOwner",
          "type": "address"
        },
        {
          "indexed": true,
          "internalType": "address",
          "name": "newOwner",
          "type": "address"
        }
      ],
      "name": "OwnershipTransferred",
      "type": "event"
    },
    {
      "inputs": [
        {
          "internalType": "address",
          "name": "pusher",
          "type": "address"
        }
      ],
      "name": "addDataStoreRollupPermission",
      "outputs": [],
      "stateMutability": "nonpayable",
      "type": "function"
    },
    {
      "inputs": [
        {
          "internalType": "address",
          "name": "delegator",
          "type": "address"
        }
      ],
      "name": "addDelegatorPermission",
      "outputs": [],
      "stateMutability": "nonpayable",
      "type": "function"
    },
    {
      "inputs": [
        {
          "internalType": "address",
          "name": "operator",
          "type": "address"
        }
      ],
      "name": "addOperatorDeregisterPermission",
      "outputs": [],
      "stateMutability": "nonpayable",
      "type": "function"
    },
    {
      "inputs": [
        {
          "internalType": "address",
          "name": "operator",
          "type": "address"
        }
      ],
      "name": "addOperatorRegisterPermission",
      "outputs": [],
      "stateMutability": "nonpayable",
      "type": "function"
    },
    {
      "inputs": [
        {
          "internalType": "address",
          "name": "pusher",
          "type": "address"
        },
        {
          "internalType": "bool",
          "name": "status",
          "type": "bool"
        }
      ],
      "name": "changeDataStoreRollupPermission",
      "outputs": [],
      "stateMutability": "nonpayable",
      "type": "function"
    },
    {
      "inputs": [
        {
          "internalType": "address",
          "name": "delegator",
          "type": "address"
        },
        {
          "internalType": "bool",
          "name": "status",
          "type": "bool"
        }
      ],
      "name": "changeDelegatorPermission",
      "outputs": [],
      "stateMutability": "nonpayable",
      "type": "function"
    },
    {
      "inputs": [
        {
          "internalType": "address",
          "name": "operator",
          "type": "address"
        },
        {
          "internalType": "bool",
          "name": "status",
          "type": "bool"
        }
      ],
      "name": "changeOperatorDeregisterPermission",
      "outputs": [],
      "stateMutability": "nonpayable",
      "type": "function"
    },
    {
      "inputs": [
        {
          "internalType": "address",
          "name": "operator",
          "type": "address"
        },
        {
          "internalType": "bool",
          "name": "status",
          "type": "bool"
        }
      ],
      "name": "changeOperatorRegisterPermission",
      "outputs": [],
      "stateMutability": "nonpayable",
      "type": "function"
    },
    {
      "inputs": [
        {
          "internalType": "address",
          "name": "",
          "type": "address"
        }
      ],
      "name": "dataStoreRollupPermission",
      "outputs": [
        {
          "internalType": "bool",
          "name": "",
          "type": "bool"
        }
      ],
      "stateMutability": "view",
      "type": "function"
    },
    {
      "inputs": [
        {
          "internalType": "address",
          "name": "",
          "type": "address"
        }
      ],
      "name": "delegatorPermission",
      "outputs": [
        {
          "internalType": "bool",
          "name": "",
          "type": "bool"
        }
      ],
      "stateMutability": "view",
      "type": "function"
    },
    {
      "inputs": [
        {
          "internalType": "address",
          "name": "pusher",
          "type": "address"
        }
      ],
      "name": "getDataStoreRollupPermission",
      "outputs": [
        {
          "internalType": "bool",
          "name": "",
          "type": "bool"
        }
      ],
      "stateMutability": "view",
      "type": "function"
    },
    {
      "inputs": [
        {
          "internalType": "address",
          "name": "delegator",
          "type": "address"
        }
      ],
      "name": "getDelegatorPermission",
      "outputs": [
        {
          "internalType": "bool",
          "name": "",
          "type": "bool"
        }
      ],
      "stateMutability": "view",
      "type": "function"
    },
    {
      "inputs": [
        {
          "internalType": "address",
          "name": "operator",
          "type": "address"
        }
      ],
      "name": "getOperatorDeregisterPermission",
      "outputs": [
        {
          "internalType": "bool",
          "name": "",
          "type": "bool"
        }
      ],
      "stateMutability": "view",
      "type": "function"
    },
    {
      "inputs": [
        {
          "internalType": "address",
          "name": "operator",
          "type": "address"
        }
      ],
      "name": "getOperatorRegisterPermission",
      "outputs": [
        {
          "internalType": "bool",
          "name": "",
          "type": "bool"
        }
      ],
      "stateMutability": "view",
      "type": "function"
    },
    {
      "inputs": [
        {
          "internalType": "address",
          "name": "personAddress",
          "type": "address"
        },
        {
          "internalType": "address",
          "name": "initialOwner",
          "type": "address"
        }
      ],
      "name": "initialize",
      "outputs": [],
      "stateMutability": "nonpayable",
      "type": "function"
    },
    {
      "inputs": [
        {
          "internalType": "address",
          "name": "",
          "type": "address"
        }
      ],
      "name": "operatorDeregisterPermission",
      "outputs": [
        {
          "internalType": "bool",
          "name": "",
          "type": "bool"
        }
      ],
      "stateMutability": "view",
      "type": "function"
    },
    {
      "inputs": [
        {
          "internalType": "address",
          "name": "",
          "type": "address"
        }
      ],
      "name": "operatorRegisterPermission",
      "outputs": [
        {
          "internalType": "bool",
          "name": "",
          "type": "bool"
        }
      ],
      "stateMutability": "view",
      "type": "function"
    },
    {
      "inputs": [],
      "name": "owner",
      "outputs": [
        {
          "internalType": "address",
          "name": "",
          "type": "address"
        }
      ],
      "stateMutability": "view",
      "type": "function"
    },
    {
      "inputs": [],
      "name": "permissionPerson",
      "outputs": [
        {
          "internalType": "address",
          "name": "",
          "type": "address"
        }
      ],
      "stateMutability": "view",
      "type": "function"
    },
    {
      "inputs": [],
      "name": "renounceOwnership",
      "outputs": [],
      "stateMutability": "nonpayable",
      "type": "function"
    },
    {
      "inputs": [
        {
          "internalType": "address",
          "name": "personAddress",
          "type": "address"
        }
      ],
      "name": "setPermissionPerson",
      "outputs": [],
      "stateMutability": "nonpayable",
      "type": "function"
    },
    {
      "inputs": [
        {
          "internalType": "address",
          "name": "newOwner",
          "type": "address"
        }
      ],
      "name": "transferOwnership",
      "outputs": [],
      "stateMutability": "nonpayable",
      "type": "function"
    }
  ],
  "bytecode": {
    "object": "0x608060405234801561001057600080fd5b5061001961001e565b6100de565b600054610100900460ff161561008a5760405162461bcd60e51b815260206004820152602760248201527f496e697469616c697a61626c653a20636f6e747261637420697320696e697469604482015266616c697a696e6760c81b606482015260840160405180910390fd5b60005460ff90811610156100dc576000805460ff191660ff9081179091556040519081527f7f26b83ff96e1f2b6a682f133852f6798a09c465da95921460cefb38474024989060200160405180910390a15b565b610ec5806100ed6000396000f3fe608060405234801561001057600080fd5b50600436106101425760003560e01c80634b7e91ed116100b85780638da5cb5b1161007c5780638da5cb5b146102fd578063bfd79e991461030e578063d37db88a1461033a578063dfec44031461035d578063f2fde38b14610370578063fcd69c661461038357600080fd5b80634b7e91ed1461027857806350d0aa231461028b57806362828bfe146102b6578063715018a6146102e25780637555916c146102ea57600080fd5b806319549a091161010a57806319549a09146101f65780631ab5ccc7146102095780631cc58ba81461021c5780632da42f8c1461023f5780633ac68d0914610252578063485cc9551461026557600080fd5b8063077e255c1461014757806310d9d5921461015c578063126f566d1461016f57806313766310146101a757806313a8b7fa146101ca575b600080fd5b61015a610155366004610d13565b6103af565b005b61015a61016a366004610d35565b610445565b61019261017d366004610d13565b60666020526000908152604090205460ff1681565b60405190151581526020015b60405180910390f35b6101926101b5366004610d13565b60686020526000908152604090205460ff1681565b6101926101d8366004610d13565b6001600160a01b031660009081526068602052604090205460ff1690565b61015a610204366004610d13565b610510565b61015a610217366004610d35565b610592565b61019261022a366004610d13565b60696020526000908152604090205460ff1681565b61015a61024d366004610d35565b6106cd565b61015a610260366004610d13565b610808565b61015a610273366004610d71565b6108cc565b61015a610286366004610d13565b6109fb565b60655461029e906001600160a01b031681565b6040516001600160a01b03909116815260200161019e565b6101926102c4366004610d13565b6001600160a01b031660009081526069602052604090205460ff1690565b61015a610a7d565b61015a6102f8366004610d13565b610a91565b6033546001600160a01b031661029e565b61019261031c366004610d13565b6001600160a01b031660009081526066602052604090205460ff1690565b610192610348366004610d13565b60676020526000908152604090205460ff1681565b61015a61036b366004610d35565b610b13565b61015a61037e366004610d13565b610bd2565b610192610391366004610d13565b6001600160a01b031660009081526067602052604090205460ff1690565b6065546001600160a01b031633146103e25760405162461bcd60e51b81526004016103d990610da4565b60405180910390fd5b6001600160a01b03811660009081526068602052604090819020805460ff1916600190811790915590517f22287a05716e2055fd829dcd560548b9f345957ffe7d6b5c17821fd645dfa1119161043a91849190610df1565b60405180910390a150565b6065546001600160a01b0316331461046f5760405162461bcd60e51b81526004016103d990610da4565b6001600160a01b03821660009081526068602052604090205460ff16151581151514156104ae5760405162461bcd60e51b81526004016103d990610e0c565b6001600160a01b03821660009081526068602052604090819020805460ff1916831515179055517faea710ce6384e60a9c985bf4afd327b33fca0fe019279c75a83f3c33c7eea4ad906105049084908490610df1565b60405180910390a15050565b6065546001600160a01b0316331461053a5760405162461bcd60e51b81526004016103d990610da4565b6001600160a01b03811660009081526067602052604090819020805460ff1916600190811790915590517f40251657f9f31438f0c3590f90210fc3e144b261f143cfbff8fca900ebdadb989161043a91849190610df1565b6065546001600160a01b031633146105bc5760405162461bcd60e51b81526004016103d990610da4565b6001600160a01b03821660009081526067602052604090205460ff16151581151514156106775760405162461bcd60e51b815260206004820152605b60248201527f52656769737472795065726d697373696f6e2e6368616e67654f70657261746f60448201527f72446572656769737465725065726d697373696f6e3a2053746174757320697360648201527f2073616d652c20646f6e2774206e65656420746f206368616e67650000000000608482015260a4016103d9565b6001600160a01b03821660009081526067602052604090819020805460ff1916831515179055517fe838bb2d9dc501cd48528f52fb481b0813abb4aa724c58ffdbbea77afc2c243d906105049084908490610df1565b6065546001600160a01b031633146106f75760405162461bcd60e51b81526004016103d990610da4565b6001600160a01b03821660009081526066602052604090205460ff16151581151514156107b25760405162461bcd60e51b815260206004820152605960248201527f52656769737472795065726d697373696f6e2e6368616e67654f70657261746f60448201527f7252656769737465725065726d697373696f6e3a20537461747573206973207360648201527f616d652c20646f6e2774206e65656420746f206368616e676500000000000000608482015260a4016103d9565b6001600160a01b03821660009081526066602052604090819020805460ff1916831515179055517f06f241eb29ee1e3d9bef7edec8f60a5fd7e84e350f6554212b24b64ae2406dc1906105049084908490610df1565b610810610c4b565b6001600160a01b0381166108aa5760405162461bcd60e51b815260206004820152605560248201527f52656769737472795065726d697373696f6e2e6368616e67654461746153746f60448201527f7265526f6c6c75705065726d697373696f6e3a20706572736f6e4164647265736064820152747320697320746865207a65726f206164647265737360581b608482015260a4016103d9565b606580546001600160a01b0319166001600160a01b0392909216919091179055565b600054610100900460ff16158080156108ec5750600054600160ff909116105b806109065750303b158015610906575060005460ff166001145b6109695760405162461bcd60e51b815260206004820152602e60248201527f496e697469616c697a61626c653a20636f6e747261637420697320616c72656160448201526d191e481a5b9a5d1a585b1a5e995960921b60648201526084016103d9565b6000805460ff19166001179055801561098c576000805461ff0019166101001790555b606580546001600160a01b0319166001600160a01b0385161790556109b082610ca5565b80156109f6576000805461ff0019169055604051600181527f7f26b83ff96e1f2b6a682f133852f6798a09c465da95921460cefb38474024989060200160405180910390a15b505050565b6065546001600160a01b03163314610a255760405162461bcd60e51b81526004016103d990610da4565b6001600160a01b03811660009081526066602052604090819020805460ff1916600190811790915590517fa817e302ed747e2f75624608478aef93f563bec3aabc25ce91f4ca5d223b88949161043a91849190610df1565b610a85610c4b565b610a8f6000610ca5565b565b6065546001600160a01b03163314610abb5760405162461bcd60e51b81526004016103d990610da4565b6001600160a01b03811660009081526069602052604090819020805460ff1916600190811790915590517fc86199b559348cb32fe9f91895387855b3996b6b93c44ebfe9528e96033326849161043a91849190610df1565b6065546001600160a01b03163314610b3d5760405162461bcd60e51b81526004016103d990610da4565b6001600160a01b03821660009081526069602052604090205460ff1615158115151415610b7c5760405162461bcd60e51b81526004016103d990610e0c565b6001600160a01b03821660009081526069602052604090819020805460ff1916831515179055517f5023e7b81868824fbca797bb2f287baabb2553438f6ca88086ba8723591b6481906105049084908490610df1565b610bda610c4b565b6001600160a01b038116610c3f5760405162461bcd60e51b815260206004820152602660248201527f4f776e61626c653a206e6577206f776e657220697320746865207a65726f206160448201526564647265737360d01b60648201526084016103d9565b610c4881610ca5565b50565b6033546001600160a01b03163314610a8f5760405162461bcd60e51b815260206004820181905260248201527f4f776e61626c653a2063616c6c6572206973206e6f7420746865206f776e657260448201526064016103d9565b603380546001600160a01b038381166001600160a01b0319831681179093556040519116919082907f8be0079c531659141344cd1fd0a4f28419497f9722a3daafe3b4186f6b6457e090600090a35050565b80356001600160a01b0381168114610d0e57600080fd5b919050565b600060208284031215610d2557600080fd5b610d2e82610cf7565b9392505050565b60008060408385031215610d4857600080fd5b610d5183610cf7565b915060208301358015158114610d6657600080fd5b809150509250929050565b60008060408385031215610d8457600080fd5b610d8d83610cf7565b9150610d9b60208401610cf7565b90509250929050565b6020808252602d908201527f4f6e6c7920746865207065726d697373696f6e20706572736f6e2063616e206460408201526c37903a3434b99030b1ba34b7b760991b606082015260800190565b6001600160a01b039290921682521515602082015260400190565b60208082526058908201527f52656769737472795065726d697373696f6e2e6368616e67654461746153746f60408201527f7265526f6c6c75705065726d697373696f6e3a2053746174757320697320736160608201527f6d652c20646f6e2774206e65656420746f206368616e67650000000000000000608082015260a0019056fea2646970667358221220414c844b7cd201747f53507f25a43ab6b223e6326bcbfecfe40225fd1b11347364736f6c634300080c0033",
    "linkReferences": {}
  },
  "methodIdentifiers": {
    "addDataStoreRollupPermission(address)": "077e255c",
    "addDelegatorPermission(address)": "7555916c",
    "addOperatorDeregisterPermission(address)": "19549a09",
    "addOperatorRegisterPermission(address)": "4b7e91ed",
    "changeDataStoreRollupPermission(address,bool)": "10d9d592",
    "changeDelegatorPermission(address,bool)": "dfec4403",
    "changeOperatorDeregisterPermission(address,bool)": "1ab5ccc7",
    "changeOperatorRegisterPermission(address,bool)": "2da42f8c",
    "dataStoreRollupPermission(address)": "13766310",
    "delegatorPermission(address)": "1cc58ba8",
    "getDataStoreRollupPermission(address)": "13a8b7fa",
    "getDelegatorPermission(address)": "62828bfe",
    "getOperatorDeregisterPermission(address)": "fcd69c66",
    "getOperatorRegisterPermission(address)": "bfd79e99",
    "initialize(address,address)": "485cc955",
    "operatorDeregisterPermission(address)": "d37db88a",
    "operatorRegisterPermission(address)": "126f566d",
    "owner()": "8da5cb5b",
    "permissionPerson()": "50d0aa23",
    "renounceOwnership()": "715018a6",
    "setPermissionPerson(address)": "3ac68d09",
    "transferOwnership(address)": "f2fde38b"
  },
  "id": 24
}