{
  "abi": [
    {
      "inputs": [
        {
          "internalType": "contract IEigenLayrDelegation",
          "name": "_delegation",
          "type": "address"
        },
        {
          "internalType": "contract IRegistryPermission",
          "name": "_permissionManager",
          "type": "address"
        }
      ],
      "stateMutability": "nonpayable",
      "type": "constructor"
    },
    {
      "anonymous": false,
      "inputs": [
        {
          "indexed": true,
          "internalType": "address",
          "name": "withdrawer",
          "type": "address"
        },
        {
          "indexed": false,
          "internalType": "contract IInvestmentStrategy[]",
          "name": "strategies",
          "type": "address[]"
        },
        {
          "indexed": false,
          "internalType": "contract IERC20[]",
          "name": "tokens",
          "type": "address[]"
        },
        {
          "indexed": false,
          "internalType": "uint256[]",
          "name": "shares",
          "type": "uint256[]"
        }
      ],
      "name": "DelegatorWithdrawal",
      "type": "event"
    },
    {
      "anonymous": false,
      "inputs": [
        {
          "indexed": false,
          "internalType": "uint8",
          "name": "version",
          "type": "uint8"
        }
      ],
      "name": "Initialized",
      "type": "event"
    },
    {
      "anonymous": false,
      "inputs": [
        {
          "indexed": true,
          "internalType": "address",
          "name": "previousOwner",
          "type": "address"
        },
        {
          "indexed": true,
          "internalType": "address",
          "name": "newOwner",
          "type": "address"
        }
      ],
      "name": "OwnershipTransferred",
      "type": "event"
    },
    {
      "anonymous": false,
      "inputs": [
        {
          "indexed": true,
          "internalType": "address",
          "name": "account",
          "type": "address"
        },
        {
          "indexed": false,
          "internalType": "uint256",
          "name": "newPausedStatus",
          "type": "uint256"
        }
      ],
      "name": "Paused",
      "type": "event"
    },
    {
      "anonymous": false,
      "inputs": [
        {
          "indexed": true,
          "internalType": "address",
          "name": "account",
          "type": "address"
        },
        {
          "indexed": false,
          "internalType": "uint256",
          "name": "newPausedStatus",
          "type": "uint256"
        }
      ],
      "name": "Unpaused",
      "type": "event"
    },
    {
      "inputs": [],
      "name": "DEPOSIT_TYPEHASH",
      "outputs": [
        {
          "internalType": "bytes32",
          "name": "",
          "type": "bytes32"
        }
      ],
      "stateMutability": "view",
      "type": "function"
    },
    {
      "inputs": [],
      "name": "DOMAIN_SEPARATOR",
      "outputs": [
        {
          "internalType": "bytes32",
          "name": "",
          "type": "bytes32"
        }
      ],
      "stateMutability": "view",
      "type": "function"
    },
    {
      "inputs": [],
      "name": "DOMAIN_TYPEHASH",
      "outputs": [
        {
          "internalType": "bytes32",
          "name": "",
          "type": "bytes32"
        }
      ],
      "stateMutability": "view",
      "type": "function"
    },
    {
      "inputs": [],
      "name": "delegation",
      "outputs": [
        {
          "internalType": "contract IEigenLayrDelegation",
          "name": "",
          "type": "address"
        }
      ],
      "stateMutability": "view",
      "type": "function"
    },
    {
      "inputs": [
        {
          "internalType": "uint256[]",
          "name": "strategyIndexes",
          "type": "uint256[]"
        },
        {
          "internalType": "contract IInvestmentStrategy[]",
          "name": "strategies",
          "type": "address[]"
        },
        {
          "internalType": "contract IERC20[]",
          "name": "tokens",
          "type": "address[]"
        },
        {
          "internalType": "uint256[]",
          "name": "shares",
          "type": "uint256[]"
        },
        {
          "internalType": "bool",
          "name": "undelegateIfPossible",
          "type": "bool"
        }
      ],
      "name": "delegatorWithdraw",
      "outputs": [
        {
          "internalType": "bool",
          "name": "",
          "type": "bool"
        }
      ],
      "stateMutability": "nonpayable",
      "type": "function"
    },
    {
      "inputs": [
        {
          "internalType": "address",
          "name": "",
          "type": "address"
        }
      ],
      "name": "delegatorWithdrawWhiteList",
      "outputs": [
        {
          "internalType": "bool",
          "name": "",
          "type": "bool"
        }
      ],
      "stateMutability": "view",
      "type": "function"
    },
    {
      "inputs": [
        {
          "internalType": "contract IInvestmentStrategy",
          "name": "strategy",
          "type": "address"
        },
        {
          "internalType": "contract IERC20",
          "name": "token",
          "type": "address"
        },
        {
          "internalType": "uint256",
          "name": "amount",
          "type": "uint256"
        }
      ],
      "name": "depositIntoStrategy",
      "outputs": [
        {
          "internalType": "uint256",
          "name": "shares",
          "type": "uint256"
        }
      ],
      "stateMutability": "nonpayable",
      "type": "function"
    },
    {
      "inputs": [
        {
          "internalType": "contract IInvestmentStrategy",
          "name": "strategy",
          "type": "address"
        },
        {
          "internalType": "contract IERC20",
          "name": "token",
          "type": "address"
        },
        {
          "internalType": "uint256",
          "name": "amount",
          "type": "uint256"
        },
        {
          "internalType": "address",
          "name": "staker",
          "type": "address"
        },
        {
          "internalType": "uint256",
          "name": "expiry",
          "type": "uint256"
        },
        {
          "internalType": "bytes32",
          "name": "r",
          "type": "bytes32"
        },
        {
          "internalType": "bytes32",
          "name": "vs",
          "type": "bytes32"
        }
      ],
      "name": "depositIntoStrategyOnBehalfOf",
      "outputs": [
        {
          "internalType": "uint256",
          "name": "shares",
          "type": "uint256"
        }
      ],
      "stateMutability": "nonpayable",
      "type": "function"
    },
    {
      "inputs": [
        {
          "internalType": "address",
          "name": "depositor",
          "type": "address"
        }
      ],
      "name": "getDeposits",
      "outputs": [
        {
          "internalType": "contract IInvestmentStrategy[]",
          "name": "",
          "type": "address[]"
        },
        {
          "internalType": "uint256[]",
          "name": "",
          "type": "uint256[]"
        }
      ],
      "stateMutability": "view",
      "type": "function"
    },
    {
      "inputs": [
        {
          "internalType": "contract IPauserRegistry",
          "name": "_pauserRegistry",
          "type": "address"
        },
        {
          "internalType": "address",
          "name": "initialOwner",
          "type": "address"
        }
      ],
      "name": "initialize",
      "outputs": [],
      "stateMutability": "nonpayable",
      "type": "function"
    },
    {
      "inputs": [
        {
          "internalType": "address",
          "name": "",
          "type": "address"
        },
        {
          "internalType": "contract IInvestmentStrategy",
          "name": "",
          "type": "address"
        }
      ],
      "name": "investorStratShares",
      "outputs": [
        {
          "internalType": "uint256",
          "name": "",
          "type": "uint256"
        }
      ],
      "stateMutability": "view",
      "type": "function"
    },
    {
      "inputs": [
        {
          "internalType": "address",
          "name": "",
          "type": "address"
        },
        {
          "internalType": "uint256",
          "name": "",
          "type": "uint256"
        }
      ],
      "name": "investorStrats",
      "outputs": [
        {
          "internalType": "contract IInvestmentStrategy",
          "name": "",
          "type": "address"
        }
      ],
      "stateMutability": "view",
      "type": "function"
    },
    {
      "inputs": [
        {
          "internalType": "address",
          "name": "staker",
          "type": "address"
        }
      ],
      "name": "investorStratsLength",
      "outputs": [
        {
          "internalType": "uint256",
          "name": "",
          "type": "uint256"
        }
      ],
      "stateMutability": "view",
      "type": "function"
    },
    {
      "inputs": [
        {
          "internalType": "address",
          "name": "",
          "type": "address"
        }
      ],
      "name": "nonces",
      "outputs": [
        {
          "internalType": "uint256",
          "name": "",
          "type": "uint256"
        }
      ],
      "stateMutability": "view",
      "type": "function"
    },
    {
      "inputs": [],
      "name": "owner",
      "outputs": [
        {
          "internalType": "address",
          "name": "",
          "type": "address"
        }
      ],
      "stateMutability": "view",
      "type": "function"
    },
    {
      "inputs": [
        {
          "internalType": "uint256",
          "name": "newPausedStatus",
          "type": "uint256"
        }
      ],
      "name": "pause",
      "outputs": [],
      "stateMutability": "nonpayable",
      "type": "function"
    },
    {
      "inputs": [
        {
          "internalType": "uint8",
          "name": "index",
          "type": "uint8"
        }
      ],
      "name": "paused",
      "outputs": [
        {
          "internalType": "bool",
          "name": "",
          "type": "bool"
        }
      ],
      "stateMutability": "view",
      "type": "function"
    },
    {
      "inputs": [],
      "name": "paused",
      "outputs": [
        {
          "internalType": "uint256",
          "name": "",
          "type": "uint256"
        }
      ],
      "stateMutability": "view",
      "type": "function"
    },
    {
      "inputs": [],
      "name": "pauserRegistry",
      "outputs": [
        {
          "internalType": "contract IPauserRegistry",
          "name": "",
          "type": "address"
        }
      ],
      "stateMutability": "view",
      "type": "function"
    },
    {
      "inputs": [],
      "name": "permissionManager",
      "outputs": [
        {
          "internalType": "contract IRegistryPermission",
          "name": "",
          "type": "address"
        }
      ],
      "stateMutability": "view",
      "type": "function"
    },
    {
      "inputs": [],
      "name": "renounceOwnership",
      "outputs": [],
      "stateMutability": "nonpayable",
      "type": "function"
    },
    {
      "inputs": [
        {
          "internalType": "address",
          "name": "withdrawer",
          "type": "address"
        }
      ],
      "name": "setDelegatorCanWithdraw",
      "outputs": [],
      "stateMutability": "nonpayable",
      "type": "function"
    },
    {
      "inputs": [
        {
          "internalType": "address",
          "name": "newOwner",
          "type": "address"
        }
      ],
      "name": "transferOwnership",
      "outputs": [],
      "stateMutability": "nonpayable",
      "type": "function"
    },
    {
      "inputs": [],
      "name": "undelegate",
      "outputs": [],
      "stateMutability": "nonpayable",
      "type": "function"
    },
    {
      "inputs": [
        {
          "internalType": "uint256",
          "name": "newPausedStatus",
          "type": "uint256"
        }
      ],
      "name": "unpause",
      "outputs": [],
      "stateMutability": "nonpayable",
      "type": "function"
    }
  ],
  "bytecode": {
    "object": "0x60c06040523480156200001157600080fd5b5060405162002bc838038062002bc8833981016040819052620000349162000134565b6001600160a01b03808316608052811660a0526200005162000059565b505062000173565b600054610100900460ff1615620000c65760405162461bcd60e51b815260206004820152602760248201527f496e697469616c697a61626c653a20636f6e747261637420697320696e697469604482015266616c697a696e6760c81b606482015260840160405180910390fd5b60005460ff908116101562000119576000805460ff191660ff9081179091556040519081527f7f26b83ff96e1f2b6a682f133852f6798a09c465da95921460cefb38474024989060200160405180910390a15b565b6001600160a01b03811681146200013157600080fd5b50565b600080604083850312156200014857600080fd5b825162000155816200011b565b602084015190925062000168816200011b565b809150509250929050565b60805160a0516129fe620001ca60003960008181610364015281816107ba01528181610ab701528181610d7701526111b20152600081816103c101528181610ee8015281816117940152611d2501526129fe6000f3fe608060405234801561001057600080fd5b50600436106101735760003560e01c80638da5cb5b116100de578063cc7a204911610097578063df5cf72311610071578063df5cf723146103bc578063e7a050aa146103e3578063f2fde38b146103f6578063fabc1cbc1461040957600080fd5b8063cc7a20491461035f578063d80b3f6e14610386578063daa92983146103a957600080fd5b80638da5cb5b146102d65780638e749873146102e757806392ab89bb1461031057806394f649dd14610318578063ae0d7c6014610339578063c377b9061461034c57600080fd5b80635c975abb116101305780635c975abb1461023d5780636876e790146102455780636be2343f14610258578063715018a6146102835780637ecebe001461028b578063886f1195146102ab57600080fd5b8063136439dd1461017857806320606b701461018d5780633644e515146101c7578063485cc955146101d057806348825e94146101e35780635ac86ab71461020a575b600080fd5b61018b610186366004612298565b61041c565b005b6101b47f8cad95687ba82c2ce50e74f7b754645e5117c3a5bec8151c0726d5857980a86681565b6040519081526020015b60405180910390f35b6101b460975481565b61018b6101de3660046122c6565b6105c0565b6101b47f0a564d4cfe5cb0d4ee082aab2ca54b8c48e129485a8f7c77766ab5ef0c3566f181565b61022d6102183660046122ff565b609d54600160ff9092169190911b9081161490565b60405190151581526020016101be565b609d546101b4565b6101b4610253366004612329565b610752565b6101b46102663660046122c6565b609960209081526000928352604080842090915290825290205481565b61018b610a8e565b6101b4610299366004612397565b60986020526000908152604090205481565b609c546102be906001600160a01b031681565b6040516001600160a01b0390911681526020016101be565b6033546001600160a01b03166102be565b6101b46102f5366004612397565b6001600160a01b03166000908152609a602052604090205490565b61018b610aa2565b61032b610326366004612397565b610b54565b6040516101be9291906123b4565b61018b610347366004612397565b610cd4565b6102be61035a36600461243a565b610d00565b6102be7f000000000000000000000000000000000000000000000000000000000000000081565b61022d610394366004612397565b609b6020526000908152604090205460ff1681565b61022d6103b73660046124c0565b610d38565b6102be7f000000000000000000000000000000000000000000000000000000000000000081565b6101b46103f1366004612597565b61114a565b61018b610404366004612397565b611260565b61018b610417366004612298565b6112d9565b609c60009054906101000a90046001600160a01b03166001600160a01b0316639fd0506d6040518163ffffffff1660e01b8152600401602060405180830381865afa15801561046f573d6000803e3d6000fd5b505050506040513d601f19601f8201168201806040525081019061049391906125d8565b6001600160a01b0316336001600160a01b0316146105095760405162461bcd60e51b815260206004820152602860248201527f6d73672e73656e646572206973206e6f74207065726d697373696f6e6564206160448201526739903830bab9b2b960c11b60648201526084015b60405180910390fd5b609d54818116146105825760405162461bcd60e51b815260206004820152603860248201527f5061757361626c652e70617573653a20696e76616c696420617474656d70742060448201527f746f20756e70617573652066756e6374696f6e616c69747900000000000000006064820152608401610500565b609d81905560405181815233907fab40a374bc51de372200a8bc981af8c9ecdc08dfdaef0bb6e09f88f3c616ef3d906020015b60405180910390a250565b600054610100900460ff16158080156105e05750600054600160ff909116105b806105fa5750303b1580156105fa575060005460ff166001145b61065d5760405162461bcd60e51b815260206004820152602e60248201527f496e697469616c697a61626c653a20636f6e747261637420697320616c72656160448201526d191e481a5b9a5d1a585b1a5e995960921b6064820152608401610500565b6000805460ff191660011790558015610680576000805461ff0019166101001790555b7f8cad95687ba82c2ce50e74f7b754645e5117c3a5bec8151c0726d5857980a8666040518060400160405280600981526020016822b4b3b2b72630bcb960b91b81525046306040516020016106d8949392919061264d565b60408051601f1981840301815291905280516020909101206097556106fe836000611478565b61070782611578565b801561074d576000805461ff0019169055604051600181527f7f26b83ff96e1f2b6a682f133852f6798a09c465da95921460cefb38474024989060200160405180910390a15b505050565b609d5460009081906001908116141561077d5760405162461bcd60e51b815260040161050090612687565b600260655414156107a05760405162461bcd60e51b8152600401610500906126be565b600260655560405163314145ff60e11b81523360048201527f00000000000000000000000000000000000000000000000000000000000000006001600160a01b0316906362828bfe90602401602060405180830381865afa158015610809573d6000803e3d6000fd5b505050506040513d601f19601f8201168201806040525081019061082d91906126f5565b151560011461084e5760405162461bcd60e51b815260040161050090612712565b84158061085b5750428510155b6108e35760405162461bcd60e51b815260206004820152604d60248201527f496e766573746d656e744d616e616765722e6465706f736974496e746f53747260448201527f61746567794f6e426568616c664f663a2064656c65676174696f6e207369676e60648201526c185d1d5c9948195e1c1a5c9959609a1b608482015260a401610500565b6001600160a01b038616600090815260986020526040812080547f0a564d4cfe5cb0d4ee082aab2ca54b8c48e129485a8f7c77766ab5ef0c3566f1918c918c918c919086610930836127a0565b909155506040805160208101969096526001600160a01b0394851690860152929091166060840152608083015260a082015260c0810187905260e0016040516020818303038152906040528051906020012090506000609754826040516020016109b192919061190160f01b81526002810192909252602282015260420190565b60405160208183030381529060405280519060200120905060006109d68288886115ca565b9050886001600160a01b0316816001600160a01b031614610a6d5760405162461bcd60e51b8152602060048201526044602482018190527f496e766573746d656e744d616e616765722e6465706f736974496e746f537472908201527f61746567794f6e426568616c664f663a20736967206e6f742066726f6d20737460648201526330b5b2b960e11b608482015260a401610500565b610a79898d8d8d6115f0565b60016065559c9b505050505050505050505050565b610a9661168f565b610aa06000611578565b565b60405163314145ff60e11b81523360048201527f00000000000000000000000000000000000000000000000000000000000000006001600160a01b0316906362828bfe90602401602060405180830381865afa158015610b06573d6000803e3d6000fd5b505050506040513d601f19601f82011682018060405250810190610b2a91906126f5565b1515600114610b4b5760405162461bcd60e51b815260040161050090612712565b610aa0336116e9565b6001600160a01b0381166000908152609a60205260408120546060918291908167ffffffffffffffff811115610b8c57610b8c6127bb565b604051908082528060200260200182016040528015610bb5578160200160208202803683370190505b50905060005b82811015610c46576001600160a01b0386166000908152609960209081526040808320609a9092528220805491929184908110610bfa57610bfa6127d1565b60009182526020808320909101546001600160a01b031683528201929092526040019020548251839083908110610c3357610c336127d1565b6020908102919091010152600101610bbb565b50609a6000866001600160a01b03166001600160a01b031681526020019081526020016000208181805480602002602001604051908101604052809291908181526020018280548015610cc257602002820191906000526020600020905b81546001600160a01b03168152600190910190602001808311610ca4575b50505050509150935093505050915091565b610cdc61168f565b6001600160a01b03166000908152609b60205260409020805460ff19166001179055565b609a6020528160005260406000208181548110610d1c57600080fd5b6000918252602090912001546001600160a01b03169150829050565b600060026065541415610d5d5760405162461bcd60e51b8152600401610500906126be565b600260655560405163314145ff60e11b81523360048201527f00000000000000000000000000000000000000000000000000000000000000006001600160a01b0316906362828bfe90602401602060405180830381865afa158015610dc6573d6000803e3d6000fd5b505050506040513d601f19601f82011682018060405250810190610dea91906126f5565b1515600114610e0b5760405162461bcd60e51b815260040161050090612712565b609d5460029081161415610e315760405162461bcd60e51b815260040161050090612687565b336000908152609b602052604090205460ff161515600114610ed15760405162461bcd60e51b815260206004820152604d60248201527f496e766573746d656e744d616e616765722e64656c656761746f72576974686460448201527f7261773a20796f7520686173206e6f74207065726d697373696f6e20746f207760648201526c34ba34323930bb903a37b5b2b760991b608482015260a401610500565b604051631608124760e21b81526001600160a01b037f00000000000000000000000000000000000000000000000000000000000000001690635820491c90610f259033908c908c908a908a90600401612866565b600060405180830381600087803b158015610f3f57600080fd5b505af1158015610f53573d6000803e3d6000fd5b50600092508991508290505b818110156110be57610fc9338e8e86818110610f7d57610f7d6127d1565b905060200201358d8d85818110610f9657610f966127d1565b9050602002016020810190610fab9190612397565b8a8a86818110610fbd57610fbd6127d1565b905060200201356117f3565b15610fd5578260010192505b8a8a82818110610fe757610fe76127d1565b9050602002016020810190610ffc9190612397565b6001600160a01b031663d9caed12338b8b8581811061101d5761101d6127d1565b90506020020160208101906110329190612397565b8a8a86818110611044576110446127d1565b6040516001600160e01b031960e088901b1681526001600160a01b03958616600482015294909316602485015250602090910201356044820152606401600060405180830381600087803b15801561109b57600080fd5b505af11580156110af573d6000803e3d6000fd5b50505050806001019050610f5f565b508380156110d95750336000908152609a6020526040902054155b156110e7576110e7336116e9565b336001600160a01b03167f7d34f7fb26ff055b2b4bf91ebbe921865c5131ec66acb990ca27194473eedaf68b8b8b8b8b8b60405161112a969594939291906128aa565b60405180910390a260019250505060016065559998505050505050505050565b609d546000908190600190811614156111755760405162461bcd60e51b815260040161050090612687565b600260655414156111985760405162461bcd60e51b8152600401610500906126be565b600260655560405163314145ff60e11b81523360048201527f00000000000000000000000000000000000000000000000000000000000000006001600160a01b0316906362828bfe90602401602060405180830381865afa158015611201573d6000803e3d6000fd5b505050506040513d601f19601f8201168201806040525081019061122591906126f5565b15156001146112465760405162461bcd60e51b815260040161050090612712565b611252338686866115f0565b600160655595945050505050565b61126861168f565b6001600160a01b0381166112cd5760405162461bcd60e51b815260206004820152602660248201527f4f776e61626c653a206e6577206f776e657220697320746865207a65726f206160448201526564647265737360d01b6064820152608401610500565b6112d681611578565b50565b609c60009054906101000a90046001600160a01b03166001600160a01b031663eab66d7a6040518163ffffffff1660e01b8152600401602060405180830381865afa15801561132c573d6000803e3d6000fd5b505050506040513d601f19601f8201168201806040525081019061135091906125d8565b6001600160a01b0316336001600160a01b0316146113c35760405162461bcd60e51b815260206004820152602a60248201527f6d73672e73656e646572206973206e6f74207065726d697373696f6e6564206160448201526939903ab73830bab9b2b960b11b6064820152608401610500565b609d54198119609d541916146114415760405162461bcd60e51b815260206004820152603860248201527f5061757361626c652e756e70617573653a20696e76616c696420617474656d7060448201527f7420746f2070617573652066756e6374696f6e616c69747900000000000000006064820152608401610500565b609d81905560405181815233907f3582d1828e26bf56bd801502bc021ac0bc8afb57c826e4986b45593c8fad389c906020016105b5565b609c546001600160a01b031615801561149957506001600160a01b03821615155b61151b5760405162461bcd60e51b815260206004820152604760248201527f5061757361626c652e5f696e697469616c697a655061757365723a205f696e6960448201527f7469616c697a6550617573657228292063616e206f6e6c792062652063616c6c6064820152666564206f6e636560c81b608482015260a401610500565b609d81905560405181815233907fab40a374bc51de372200a8bc981af8c9ecdc08dfdaef0bb6e09f88f3c616ef3d9060200160405180910390a250609c80546001600160a01b0319166001600160a01b0392909216919091179055565b603380546001600160a01b038381166001600160a01b0319831681179093556040519116919082907f8be0079c531659141344cd1fd0a4f28419497f9722a3daafe3b4186f6b6457e090600090a35050565b60008060006115da868686611953565b915091506115e78161198c565b50949350505050565b60006116076001600160a01b038416338685611ada565b6040516311f9fbc960e21b81526001600160a01b038481166004830152602482018490528516906347e7ef24906044016020604051808303816000875af1158015611656573d6000803e3d6000fd5b505050506040513d601f19601f8201168201806040525081019061167a9190612925565b9050611687858583611b3a565b949350505050565b6033546001600160a01b03163314610aa05760405162461bcd60e51b815260206004820181905260248201527f4f776e61626c653a2063616c6c6572206973206e6f7420746865206f776e65726044820152606401610500565b6001600160a01b0381166000908152609a6020526040902054156117755760405162461bcd60e51b815260206004820152603c60248201527f496e766573746d656e744d616e616765722e5f756e64656c65676174653a206460448201527f65706f7369746f722068617320616374697665206465706f73697473000000006064820152608401610500565b6040516336a2fa1960e21b81526001600160a01b0382811660048301527f0000000000000000000000000000000000000000000000000000000000000000169063da8be86490602401600060405180830381600087803b1580156117d857600080fd5b505af11580156117ec573d6000803e3d6000fd5b5050505050565b60008161186a576040805162461bcd60e51b81526020600482015260248101919091527f496e766573746d656e744d616e616765722e5f72656d6f76655368617265733a60448201527f207368617265416d6f756e742073686f756c64206e6f74206265207a65726f216064820152608401610500565b6001600160a01b03808616600090815260996020908152604080832093871683529290522054808311156118fe5760405162461bcd60e51b815260206004820152603560248201527f496e766573746d656e744d616e616765722e5f72656d6f76655368617265733a604482015274040e6d0c2e4ca82dadeeadce840e8dede40d0d2ced605b1b6064820152608401610500565b6001600160a01b03808716600090815260996020908152604080832093881683529290522083820390819055908314156119475761193d868686611d86565b6001915050611687565b50600095945050505050565b6000806001600160ff1b0383168161197060ff86901c601b61293e565b905061197e87828885611fe2565b935093505050935093915050565b60008160048111156119a0576119a0612956565b14156119a95750565b60018160048111156119bd576119bd612956565b1415611a0b5760405162461bcd60e51b815260206004820152601860248201527f45434453413a20696e76616c6964207369676e617475726500000000000000006044820152606401610500565b6002816004811115611a1f57611a1f612956565b1415611a6d5760405162461bcd60e51b815260206004820152601f60248201527f45434453413a20696e76616c6964207369676e6174757265206c656e677468006044820152606401610500565b6003816004811115611a8157611a81612956565b14156112d65760405162461bcd60e51b815260206004820152602260248201527f45434453413a20696e76616c6964207369676e6174757265202773272076616c604482015261756560f01b6064820152608401610500565b604080516001600160a01b0385811660248301528416604482015260648082018490528251808303909101815260849091019091526020810180516001600160e01b03166323b872dd60e01b179052611b349085906120a6565b50505050565b80611bad5760405162461bcd60e51b815260206004820152603860248201527f496e766573746d656e744d616e616765722e5f6164645368617265733a20736860448201527f617265732073686f756c64206e6f74206265207a65726f2100000000000000006064820152608401610500565b6001600160a01b03808416600090815260996020908152604080832093861683529290522054611cbb576001600160a01b0383166000908152609a602090815260409091205410611c7c5760405162461bcd60e51b815260206004820152604d60248201527f496e766573746d656e744d616e616765722e5f6164645368617265733a20646560448201527f706f73697420776f756c6420657863656564204d41585f494e564553544f525f60648201526c0a6a8a482a8a6be988a9c8ea89609b1b608482015260a401610500565b6001600160a01b038381166000908152609a602090815260408220805460018101825590835291200180546001600160a01b0319169184169190911790555b6001600160a01b03808416600090815260996020908152604080832093861683529290529081208054839290611cf290849061293e565b9091555050604051631452b9d760e11b81526001600160a01b0384811660048301528381166024830152604482018390527f000000000000000000000000000000000000000000000000000000000000000016906328a573ae90606401600060405180830381600087803b158015611d6957600080fd5b505af1158015611d7d573d6000803e3d6000fd5b50505050505050565b6001600160a01b038381166000908152609a6020526040902080549183169184908110611db557611db56127d1565b6000918252602090912001546001600160a01b03161415611e76576001600160a01b0383166000908152609a602052604090208054611df69060019061296c565b81548110611e0657611e066127d1565b60009182526020808320909101546001600160a01b038681168452609a9092526040909220805491909216919084908110611e4357611e436127d1565b9060005260206000200160006101000a8154816001600160a01b0302191690836001600160a01b03160217905550611f94565b6001600160a01b0383166000908152609a6020526040812054905b81811015611f91576001600160a01b038581166000908152609a6020526040902080549185169183908110611ec857611ec86127d1565b6000918252602090912001546001600160a01b03161415611f89576001600160a01b0385166000908152609a602052604090208054611f099060019061296c565b81548110611f1957611f196127d1565b60009182526020808320909101546001600160a01b038881168452609a9092526040909220805491909216919083908110611f5657611f566127d1565b9060005260206000200160006101000a8154816001600160a01b0302191690836001600160a01b03160217905550611f91565b600101611e91565b50505b6001600160a01b0383166000908152609a60205260409020805480611fbb57611fbb612983565b600082815260209020810160001990810180546001600160a01b0319169055019055505050565b6000807f7fffffffffffffffffffffffffffffff5d576e7357a4501ddfe92f46681b20a0831115612019575060009050600361209d565b6040805160008082526020820180845289905260ff881692820192909252606081018690526080810185905260019060a0016020604051602081039080840390855afa15801561206d573d6000803e3d6000fd5b5050604051601f1901519150506001600160a01b0381166120965760006001925092505061209d565b9150600090505b94509492505050565b60006120fb826040518060400160405280602081526020017f5361666545524332303a206c6f772d6c6576656c2063616c6c206661696c6564815250856001600160a01b03166121789092919063ffffffff16565b80519091501561074d578080602001905181019061211991906126f5565b61074d5760405162461bcd60e51b815260206004820152602a60248201527f5361666545524332303a204552433230206f7065726174696f6e20646964206e6044820152691bdd081cdd58d8d9595960b21b6064820152608401610500565b6060611687848460008585600080866001600160a01b0316858760405161219f9190612999565b60006040518083038185875af1925050503d80600081146121dc576040519150601f19603f3d011682016040523d82523d6000602084013e6121e1565b606091505b50915091506121f2878383876121fd565b979650505050505050565b60608315612269578251612262576001600160a01b0385163b6122625760405162461bcd60e51b815260206004820152601d60248201527f416464726573733a2063616c6c20746f206e6f6e2d636f6e74726163740000006044820152606401610500565b5081611687565b611687838381511561227e5781518083602001fd5b8060405162461bcd60e51b815260040161050091906129b5565b6000602082840312156122aa57600080fd5b5035919050565b6001600160a01b03811681146112d657600080fd5b600080604083850312156122d957600080fd5b82356122e4816122b1565b915060208301356122f4816122b1565b809150509250929050565b60006020828403121561231157600080fd5b813560ff8116811461232257600080fd5b9392505050565b600080600080600080600060e0888a03121561234457600080fd5b873561234f816122b1565b9650602088013561235f816122b1565b9550604088013594506060880135612376816122b1565b9699959850939660808101359560a0820135955060c0909101359350915050565b6000602082840312156123a957600080fd5b8135612322816122b1565b604080825283519082018190526000906020906060840190828701845b828110156123f85781516001600160a01b03168452602084019350908401906001016123d1565b5050508381038285015284518082528583019183019060005b8181101561242d57835183529284019291840191600101612411565b5090979650505050505050565b6000806040838503121561244d57600080fd5b8235612458816122b1565b946020939093013593505050565b60008083601f84011261247857600080fd5b50813567ffffffffffffffff81111561249057600080fd5b6020830191508360208260051b85010111156124ab57600080fd5b9250929050565b80151581146112d657600080fd5b600080600080600080600080600060a08a8c0312156124de57600080fd5b893567ffffffffffffffff808211156124f657600080fd5b6125028d838e01612466565b909b50995060208c013591508082111561251b57600080fd5b6125278d838e01612466565b909950975060408c013591508082111561254057600080fd5b61254c8d838e01612466565b909750955060608c013591508082111561256557600080fd5b506125728c828d01612466565b90945092505060808a0135612586816124b2565b809150509295985092959850929598565b6000806000606084860312156125ac57600080fd5b83356125b7816122b1565b925060208401356125c7816122b1565b929592945050506040919091013590565b6000602082840312156125ea57600080fd5b8151612322816122b1565b60005b838110156126105781810151838201526020016125f8565b83811115611b345750506000910152565b600081518084526126398160208601602086016125f5565b601f01601f19169290920160200192915050565b8481526080602082015260006126666080830186612621565b6040830194909452506001600160a01b039190911660609091015292915050565b60208082526019908201527f5061757361626c653a20696e6465782069732070617573656400000000000000604082015260600190565b6020808252601f908201527f5265656e7472616e637947756172643a207265656e7472616e742063616c6c00604082015260600190565b60006020828403121561270757600080fd5b8151612322816124b2565b60208082526052908201527f496e766573746d656e744d616e616765722e6465706f736974496e746f53747260408201527f61746567793a207374616b657220686173206e6f74207065726d697373696f6e606082015271103a37903237903a3434b99030b1ba34b7b760711b608082015260a00190565b634e487b7160e01b600052601160045260246000fd5b60006000198214156127b4576127b461278a565b5060010190565b634e487b7160e01b600052604160045260246000fd5b634e487b7160e01b600052603260045260246000fd5b8183526000602080850194508260005b8581101561282557813561280a816122b1565b6001600160a01b0316875295820195908201906001016127f7565b509495945050505050565b81835260006001600160fb1b0383111561284957600080fd5b8260051b8083602087013760009401602001938452509192915050565b6001600160a01b038616815260606020820181905260009061288b90830186886127e7565b828103604084015261289e818587612830565b98975050505050505050565b6060815260006128be60608301888a6127e7565b8281036020848101919091528682528791810160005b888110156129025783356128e7816122b1565b6001600160a01b0316825292820192908201906001016128d4565b508481036040860152612916818789612830565b9b9a5050505050505050505050565b60006020828403121561293757600080fd5b5051919050565b600082198211156129515761295161278a565b500190565b634e487b7160e01b600052602160045260246000fd5b60008282101561297e5761297e61278a565b500390565b634e487b7160e01b600052603160045260246000fd5b600082516129ab8184602087016125f5565b9190910192915050565b602081526000612322602083018461262156fea26469706673582212206a4c91ff8c2d5e8ec4c6a51587b5fc9314fa9642b92c7ff754a8479f090a518564736f6c634300080c0033",
    "linkReferences": {}
  },
  "methodIdentifiers": {
    "DEPOSIT_TYPEHASH()": "48825e94",
    "DOMAIN_SEPARATOR()": "3644e515",
    "DOMAIN_TYPEHASH()": "20606b70",
    "delegation()": "df5cf723",
    "delegatorWithdraw(uint256[],address[],address[],uint256[],bool)": "daa92983",
    "delegatorWithdrawWhiteList(address)": "d80b3f6e",
    "depositIntoStrategy(address,address,uint256)": "e7a050aa",
    "depositIntoStrategyOnBehalfOf(address,address,uint256,address,uint256,bytes32,bytes32)": "6876e790",
    "getDeposits(address)": "94f649dd",
    "initialize(address,address)": "485cc955",
    "investorStratShares(address,address)": "6be2343f",
    "investorStrats(address,uint256)": "c377b906",
    "investorStratsLength(address)": "8e749873",
    "nonces(address)": "7ecebe00",
    "owner()": "8da5cb5b",
    "pause(uint256)": "136439dd",
    "paused()": "5c975abb",
    "paused(uint8)": "5ac86ab7",
    "pauserRegistry()": "886f1195",
    "permissionManager()": "cc7a2049",
    "renounceOwnership()": "715018a6",
    "setDelegatorCanWithdraw(address)": "ae0d7c60",
    "transferOwnership(address)": "f2fde38b",
    "undelegate()": "92ab89bb",
    "unpause(uint256)": "fabc1cbc"
  },
  "id": 46
}