{
  "abi": [
    {
      "inputs": [],
      "name": "BIP_MULTIPLIER",
      "outputs": [
        {
          "internalType": "uint16",
          "name": "",
          "type": "uint16"
        }
      ],
      "stateMutability": "view",
      "type": "function"
    },
    {
      "inputs": [],
      "name": "BIT_SHIFT_degree",
      "outputs": [
        {
          "internalType": "uint256",
          "name": "",
          "type": "uint256"
        }
      ],
      "stateMutability": "view",
      "type": "function"
    },
    {
      "inputs": [],
      "name": "BIT_SHIFT_numSys",
      "outputs": [
        {
          "internalType": "uint256",
          "name": "",
          "type": "uint256"
        }
      ],
      "stateMutability": "view",
      "type": "function"
    },
    {
      "inputs": [],
      "name": "BYTES_PER_COEFFICIENT",
      "outputs": [
        {
          "internalType": "uint256",
          "name": "",
          "type": "uint256"
        }
      ],
      "stateMutability": "view",
      "type": "function"
    },
    {
      "inputs": [],
      "name": "HEADER_OFFSET_degree",
      "outputs": [
        {
          "internalType": "uint256",
          "name": "",
          "type": "uint256"
        }
      ],
      "stateMutability": "view",
      "type": "function"
    },
    {
      "inputs": [],
      "name": "HEADER_OFFSET_numSys",
      "outputs": [
        {
          "internalType": "uint256",
          "name": "",
          "type": "uint256"
        }
      ],
      "stateMutability": "view",
      "type": "function"
    }
  ],
  "bytecode": {
    "object": "0x60e9610039600b82828239805160001a60731461002c57634e487b7160e01b600052600060045260246000fd5b30600052607381538281f3fe730000000000000000000000000000000000000000301460806040526004361060655760003560e01c8063206a648014606a57806351017c4f14606a57806366e947bd14608457806380a4170314608b578063a3c7eaf0146092578063b6e1ce311460ac575b600080fd5b607160e081565b6040519081526020015b60405180910390f35b6071604481565b6071604081565b609a61271081565b60405161ffff9091168152602001607b565b6071601f8156fea264697066735822122009fa354b512f35f89119673feee495a12260b8c505cb99721165999d53b009bb64736f6c634300080c0033",
    "linkReferences": {}
  },
  "methodIdentifiers": {
    "BIP_MULTIPLIER()": "a3c7eaf0",
    "BIT_SHIFT_degree()": "206a6480",
    "BIT_SHIFT_numSys()": "51017c4f",
    "BYTES_PER_COEFFICIENT()": "b6e1ce31",
    "HEADER_OFFSET_degree()": "80a41703",
    "HEADER_OFFSET_numSys()": "66e947bd"
  },
  "id": 117
}