{
  "abi": [
    {
      "inputs": [],
      "name": "foo",
      "outputs": [
        {
          "internalType": "uint256",
          "name": "",
          "type": "uint256"
        }
      ],
      "stateMutability": "pure",
      "type": "function"
    }
  ],
  "bytecode": {
    "object": "0x6080604052348015600f57600080fd5b50607780601d6000396000f3fe6080604052348015600f57600080fd5b506004361060285760003560e01c8063c298557814602d575b600080fd5b600060405190815260200160405180910390f3fea26469706673582212204f77e0f557e63f9c1f7fa91ce455c10cf3f8d0b319e64dbea183670df5e66f5364736f6c634300080c0033",
    "linkReferences": {}
  },
  "methodIdentifiers": {
    "foo()": "c2985578"
  },
  "id": 32
}