{
  "abi": [
    {
      "inputs": [
        {
          "internalType": "contract IERC20",
          "name": "token",
          "type": "address"
        },
        {
          "internalType": "address[]",
          "name": "recipients",
          "type": "address[]"
        },
        {
          "internalType": "uint256",
          "name": "amount",
          "type": "uint256"
        }
      ],
      "name": "allocate",
      "outputs": [],
      "stateMutability": "nonpayable",
      "type": "function"
    },
    {
      "inputs": [
        {
          "internalType": "contract IERC20",
          "name": "token",
          "type": "address"
        },
        {
          "internalType": "address[]",
          "name": "recipients",
          "type": "address[]"
        },
        {
          "internalType": "uint256[]",
          "name": "amounts",
          "type": "uint256[]"
        },
        {
          "internalType": "uint256",
          "name": "totalAmount",
          "type": "uint256"
        }
      ],
      "name": "allocateArray",
      "outputs": [],
      "stateMutability": "nonpayable",
      "type": "function"
    }
  ],
  "bytecode": {
    "object": "0x608060405234801561001057600080fd5b506105f9806100206000396000f3fe608060405234801561001057600080fd5b50600436106100365760003560e01c806335cc2b781461003b57806391cca32d14610050575b600080fd5b61004e610049366004610409565b610063565b005b61004e61005e3660046104db565b6101b8565b6040516323b872dd60e01b8152336004820152306024820152604481018290526001600160a01b038516906323b872dd906064016020604051808303816000875af11580156100b6573d6000803e3d6000fd5b505050506040513d601f19601f820116820180604052508101906100da9190610534565b5060005b83518110156101b157846001600160a01b031663a9059cbb8583815181106101085761010861055d565b60200260200101518584815181106101225761012261055d565b60200260200101516040518363ffffffff1660e01b815260040161015b9291906001600160a01b03929092168252602082015260400190565b6020604051808303816000875af115801561017a573d6000803e3d6000fd5b505050506040513d601f19601f8201168201806040525081019061019e9190610534565b50806101a981610589565b9150506100de565b5050505050565b826001600160a01b03166323b872dd33308486516101d691906105a4565b6040516001600160e01b031960e086901b1681526001600160a01b03938416600482015292909116602483015260448201526064016020604051808303816000875af115801561022a573d6000803e3d6000fd5b505050506040513d601f19601f8201168201806040525081019061024e9190610534565b5060005b825181101561030c57836001600160a01b031663a9059cbb84838151811061027c5761027c61055d565b6020026020010151846040518363ffffffff1660e01b81526004016102b69291906001600160a01b03929092168252602082015260400190565b6020604051808303816000875af11580156102d5573d6000803e3d6000fd5b505050506040513d601f19601f820116820180604052508101906102f99190610534565b508061030481610589565b915050610252565b50505050565b6001600160a01b038116811461032757600080fd5b50565b634e487b7160e01b600052604160045260246000fd5b604051601f8201601f1916810167ffffffffffffffff811182821017156103695761036961032a565b604052919050565b600067ffffffffffffffff82111561038b5761038b61032a565b5060051b60200190565b600082601f8301126103a657600080fd5b813560206103bb6103b683610371565b610340565b82815260059290921b840181019181810190868411156103da57600080fd5b8286015b848110156103fe5780356103f181610312565b83529183019183016103de565b509695505050505050565b6000806000806080858703121561041f57600080fd5b843561042a81610312565b935060208581013567ffffffffffffffff8082111561044857600080fd5b61045489838a01610395565b9550604088013591508082111561046a57600080fd5b508601601f8101881361047c57600080fd5b803561048a6103b682610371565b81815260059190911b8201830190838101908a8311156104a957600080fd5b928401925b828410156104c7578335825292840192908401906104ae565b979a96995096976060013596505050505050565b6000806000606084860312156104f057600080fd5b83356104fb81610312565b9250602084013567ffffffffffffffff81111561051757600080fd5b61052386828701610395565b925050604084013590509250925092565b60006020828403121561054657600080fd5b8151801515811461055657600080fd5b9392505050565b634e487b7160e01b600052603260045260246000fd5b634e487b7160e01b600052601160045260246000fd5b600060001982141561059d5761059d610573565b5060010190565b60008160001904831182151516156105be576105be610573565b50029056fea2646970667358221220c7c78c91fa8fbe4b54bfc6a5dfa2118aea1313e5460fe4906c2e94208764758464736f6c634300080c0033",
    "linkReferences": {}
  },
  "methodIdentifiers": {
    "allocate(address,address[],uint256)": "91cca32d",
    "allocateArray(address,address[],uint256[],uint256)": "35cc2b78"
  },
  "id": 43
}