{
  "abi": [
    {
      "inputs": [],
      "stateMutability": "nonpayable",
      "type": "constructor"
    },
    {
      "anonymous": false,
      "inputs": [
        {
          "indexed": false,
          "internalType": "uint8",
          "name": "version",
          "type": "uint8"
        }
      ],
      "name": "Initialized",
      "type": "event"
    },
    {
      "anonymous": false,
      "inputs": [
        {
          "indexed": true,
          "internalType": "address",
          "name": "previousOwner",
          "type": "address"
        },
        {
          "indexed": true,
          "internalType": "address",
          "name": "newOwner",
          "type": "address"
        }
      ],
      "name": "OwnershipTransferred",
      "type": "event"
    },
    {
      "inputs": [
        {
          "internalType": "address",
          "name": "_memberAddress",
          "type": "address"
        },
        {
          "internalType": "enum ISlashRecorder.SlashType",
          "name": "evilType",
          "type": "uint8"
        },
        {
          "internalType": "string",
          "name": "socket",
          "type": "string"
        }
      ],
      "name": "addEvilMember",
      "outputs": [],
      "stateMutability": "nonpayable",
      "type": "function"
    },
    {
      "inputs": [],
      "name": "getSlashMemberList",
      "outputs": [
        {
          "components": [
            {
              "internalType": "address",
              "name": "memberAddress",
              "type": "address"
            },
            {
              "internalType": "enum ISlashRecorder.SlashType",
              "name": "evilType",
              "type": "uint8"
            },
            {
              "internalType": "string",
              "name": "socket",
              "type": "string"
            }
          ],
          "internalType": "struct ISlashRecorder.SlashMember[]",
          "name": "",
          "type": "tuple[]"
        }
      ],
      "stateMutability": "view",
      "type": "function"
    },
    {
      "inputs": [
        {
          "internalType": "address",
          "name": "slasherAddress",
          "type": "address"
        },
        {
          "internalType": "address",
          "name": "initialOwner",
          "type": "address"
        }
      ],
      "name": "initialize",
      "outputs": [],
      "stateMutability": "nonpayable",
      "type": "function"
    },
    {
      "inputs": [],
      "name": "owner",
      "outputs": [
        {
          "internalType": "address",
          "name": "",
          "type": "address"
        }
      ],
      "stateMutability": "view",
      "type": "function"
    },
    {
      "inputs": [],
      "name": "renounceOwnership",
      "outputs": [],
      "stateMutability": "nonpayable",
      "type": "function"
    },
    {
      "inputs": [],
      "name": "resetSlashMemberList",
      "outputs": [],
      "stateMutability": "nonpayable",
      "type": "function"
    },
    {
      "inputs": [
        {
          "internalType": "address",
          "name": "slasherAddress",
          "type": "address"
        }
      ],
      "name": "setSlasherManager",
      "outputs": [],
      "stateMutability": "nonpayable",
      "type": "function"
    },
    {
      "inputs": [],
      "name": "slasherManager",
      "outputs": [
        {
          "internalType": "address",
          "name": "",
          "type": "address"
        }
      ],
      "stateMutability": "view",
      "type": "function"
    },
    {
      "inputs": [
        {
          "internalType": "address",
          "name": "newOwner",
          "type": "address"
        }
      ],
      "name": "transferOwnership",
      "outputs": [],
      "stateMutability": "nonpayable",
      "type": "function"
    }
  ],
  "bytecode": {
    "object": "0x608060405234801561001057600080fd5b5061001961001e565b6100de565b600054610100900460ff161561008a5760405162461bcd60e51b815260206004820152602760248201527f496e697469616c697a61626c653a20636f6e747261637420697320696e697469604482015266616c697a696e6760c81b606482015260840160405180910390fd5b60005460ff90811610156100dc576000805460ff191660ff9081179091556040519081527f7f26b83ff96e1f2b6a682f133852f6798a09c465da95921460cefb38474024989060200160405180910390a15b565b610ae1806100ed6000396000f3fe608060405234801561001057600080fd5b50600436106100935760003560e01c8063843305dc11610066578063843305dc146100e65780638b13173b146101115780638da5cb5b14610124578063e626962714610135578063f2fde38b1461013d57600080fd5b8063370f9f2e1461009857806347aa113a146100ad578063485cc955146100cb578063715018a6146100de575b600080fd5b6100ab6100a6366004610840565b610150565b005b6100b56101e0565b6040516100c29190610878565b60405180910390f35b6100ab6100d936600461095e565b610319565b6100ab610448565b6065546100f9906001600160a01b031681565b6040516001600160a01b0390911681526020016100c2565b6100ab61011f366004610991565b61045c565b6033546001600160a01b03166100f9565b6100ab6105a7565b6100ab61014b366004610840565b6105dd565b610158610656565b6001600160a01b0381166101be5760405162461bcd60e51b815260206004820152602260248201527f736c61736865724164647265737320697320746865207a65726f206164647265604482015261737360f01b60648201526084015b60405180910390fd5b606580546001600160a01b0319166001600160a01b0392909216919091179055565b60606066805480602002602001604051908101604052809291908181526020016000905b8282101561031057600084815260209081902060408051606081019091526002850290910180546001600160a01b03811683529192909190830190600160a01b900460ff16600181111561025a5761025a610862565b600181111561026b5761026b610862565b815260200160018201805461027f90610a25565b80601f01602080910402602001604051908101604052809291908181526020018280546102ab90610a25565b80156102f85780601f106102cd576101008083540402835291602001916102f8565b820191906000526020600020905b8154815290600101906020018083116102db57829003601f168201915b50505050508152505081526020019060010190610204565b50505050905090565b600054610100900460ff16158080156103395750600054600160ff909116105b806103535750303b158015610353575060005460ff166001145b6103b65760405162461bcd60e51b815260206004820152602e60248201527f496e697469616c697a61626c653a20636f6e747261637420697320616c72656160448201526d191e481a5b9a5d1a585b1a5e995960921b60648201526084016101b5565b6000805460ff1916600117905580156103d9576000805461ff0019166101001790555b606580546001600160a01b0319166001600160a01b0385161790556103fd826106b0565b8015610443576000805461ff0019169055604051600181527f7f26b83ff96e1f2b6a682f133852f6798a09c465da95921460cefb38474024989060200160405180910390a15b505050565b610450610656565b61045a60006106b0565b565b6065546001600160a01b031633146104865760405162461bcd60e51b81526004016101b590610a60565b60006040518060600160405280866001600160a01b031681526020018560018111156104b4576104b4610862565b815260200184848080601f0160208091040260200160405190810160405280939291908181526020018383808284376000920182905250939094525050606680546001818101835591909252835160029092027f46501879b8ca8525e8c2fd519e2fbfcfa2ebea26501294aa02cbfcfb12e943540180546001600160a01b039093166001600160a01b031984168117825560208601519596508695919450909284926001600160a81b031990911690911790600160a01b90849081111561057d5761057d610862565b02179055506040820151805161059d916001840191602090910190610702565b5050505050505050565b6065546001600160a01b031633146105d15760405162461bcd60e51b81526004016101b590610a60565b61045a60666000610786565b6105e5610656565b6001600160a01b03811661064a5760405162461bcd60e51b815260206004820152602660248201527f4f776e61626c653a206e6577206f776e657220697320746865207a65726f206160448201526564647265737360d01b60648201526084016101b5565b610653816106b0565b50565b6033546001600160a01b0316331461045a5760405162461bcd60e51b815260206004820181905260248201527f4f776e61626c653a2063616c6c6572206973206e6f7420746865206f776e657260448201526064016101b5565b603380546001600160a01b038381166001600160a01b0319831681179093556040519116919082907f8be0079c531659141344cd1fd0a4f28419497f9722a3daafe3b4186f6b6457e090600090a35050565b82805461070e90610a25565b90600052602060002090601f0160209004810192826107305760008555610776565b82601f1061074957805160ff1916838001178555610776565b82800160010185558215610776579182015b8281111561077657825182559160200191906001019061075b565b506107829291506107a7565b5090565b508054600082556002029060005260206000209081019061065391906107bc565b5b8082111561078257600081556001016107a8565b808211156107825780546001600160a81b031916815560006107e160018301826107ea565b506002016107bc565b5080546107f690610a25565b6000825580601f10610806575050565b601f01602090049060005260206000209081019061065391906107a7565b80356001600160a01b038116811461083b57600080fd5b919050565b60006020828403121561085257600080fd5b61085b82610824565b9392505050565b634e487b7160e01b600052602160045260246000fd5b60006020808301818452808551808352604092508286019150828160051b87010184880160005b8381101561095057888303603f19018552815180516001600160a01b0316845287810151606090600281106108e457634e487b7160e01b600052602160045260246000fd5b858a0152908701518785018290528051918501829052906000905b8082101561091d578282018a015186830160800152908901906108ff565b8082111561092f576000608082880101525b96890196601f01601f1916949094016080019350509086019060010161089f565b509098975050505050505050565b6000806040838503121561097157600080fd5b61097a83610824565b915061098860208401610824565b90509250929050565b600080600080606085870312156109a757600080fd5b6109b085610824565b93506020850135600281106109c457600080fd5b9250604085013567ffffffffffffffff808211156109e157600080fd5b818701915087601f8301126109f557600080fd5b813581811115610a0457600080fd5b886020828501011115610a1657600080fd5b95989497505060200194505050565b600181811c90821680610a3957607f821691505b60208210811415610a5a57634e487b7160e01b600052602260045260246000fd5b50919050565b6020808252602b908201527f4f6e6c792074686520736c6173686572206d616e616765722063616e20646f2060408201526a3a3434b99030b1ba34b7b760a91b60608201526080019056fea2646970667358221220c7d2da62a7eda5ad477662517b94266a0c50bc032da5777e5db8ba67b405764564736f6c634300080c0033",
    "linkReferences": {}
  },
  "methodIdentifiers": {
    "addEvilMember(address,uint8,string)": "8b13173b",
    "getSlashMemberList()": "47aa113a",
    "initialize(address,address)": "485cc955",
    "owner()": "8da5cb5b",
    "renounceOwnership()": "715018a6",
    "resetSlashMemberList()": "e6269627",
    "setSlasherManager(address)": "370f9f2e",
    "slasherManager()": "843305dc",
    "transferOwnership(address)": "f2fde38b"
  },
  "id": 48
}