{
  "abi": [
    {
      "inputs": [
        {
          "internalType": "contract IInvestmentManager",
          "name": "_investmentManager",
          "type": "address"
        },
        {
          "internalType": "contract IERC20",
          "name": "_underlyingToken",
          "type": "address"
        }
      ],
      "stateMutability": "nonpayable",
      "type": "constructor"
    },
    {
      "inputs": [
        {
          "internalType": "contract IERC20",
          "name": "token",
          "type": "address"
        },
        {
          "internalType": "uint256",
          "name": "amount",
          "type": "uint256"
        }
      ],
      "name": "deposit",
      "outputs": [
        {
          "internalType": "uint256",
          "name": "",
          "type": "uint256"
        }
      ],
      "stateMutability": "nonpayable",
      "type": "function"
    },
    {
      "inputs": [],
      "name": "explanation",
      "outputs": [
        {
          "internalType": "string",
          "name": "",
          "type": "string"
        }
      ],
      "stateMutability": "pure",
      "type": "function"
    },
    {
      "inputs": [],
      "name": "investmentManager",
      "outputs": [
        {
          "internalType": "contract IInvestmentManager",
          "name": "",
          "type": "address"
        }
      ],
      "stateMutability": "view",
      "type": "function"
    },
    {
      "inputs": [
        {
          "internalType": "address",
          "name": "user",
          "type": "address"
        }
      ],
      "name": "shares",
      "outputs": [
        {
          "internalType": "uint256",
          "name": "",
          "type": "uint256"
        }
      ],
      "stateMutability": "view",
      "type": "function"
    },
    {
      "inputs": [
        {
          "internalType": "uint256",
          "name": "amountShares",
          "type": "uint256"
        }
      ],
      "name": "sharesToUnderlying",
      "outputs": [
        {
          "internalType": "uint256",
          "name": "",
          "type": "uint256"
        }
      ],
      "stateMutability": "view",
      "type": "function"
    },
    {
      "inputs": [
        {
          "internalType": "uint256",
          "name": "amountShares",
          "type": "uint256"
        }
      ],
      "name": "sharesToUnderlyingView",
      "outputs": [
        {
          "internalType": "uint256",
          "name": "",
          "type": "uint256"
        }
      ],
      "stateMutability": "view",
      "type": "function"
    },
    {
      "inputs": [],
      "name": "totalShares",
      "outputs": [
        {
          "internalType": "uint256",
          "name": "",
          "type": "uint256"
        }
      ],
      "stateMutability": "view",
      "type": "function"
    },
    {
      "inputs": [
        {
          "internalType": "uint256",
          "name": "amountUnderlying",
          "type": "uint256"
        }
      ],
      "name": "underlyingToShares",
      "outputs": [
        {
          "internalType": "uint256",
          "name": "",
          "type": "uint256"
        }
      ],
      "stateMutability": "view",
      "type": "function"
    },
    {
      "inputs": [
        {
          "internalType": "uint256",
          "name": "amountUnderlying",
          "type": "uint256"
        }
      ],
      "name": "underlyingToSharesView",
      "outputs": [
        {
          "internalType": "uint256",
          "name": "",
          "type": "uint256"
        }
      ],
      "stateMutability": "view",
      "type": "function"
    },
    {
      "inputs": [],
      "name": "underlyingToken",
      "outputs": [
        {
          "internalType": "contract IERC20",
          "name": "",
          "type": "address"
        }
      ],
      "stateMutability": "view",
      "type": "function"
    },
    {
      "inputs": [
        {
          "internalType": "address",
          "name": "user",
          "type": "address"
        }
      ],
      "name": "userUnderlying",
      "outputs": [
        {
          "internalType": "uint256",
          "name": "",
          "type": "uint256"
        }
      ],
      "stateMutability": "nonpayable",
      "type": "function"
    },
    {
      "inputs": [
        {
          "internalType": "address",
          "name": "user",
          "type": "address"
        }
      ],
      "name": "userUnderlyingView",
      "outputs": [
        {
          "internalType": "uint256",
          "name": "",
          "type": "uint256"
        }
      ],
      "stateMutability": "view",
      "type": "function"
    },
    {
      "inputs": [
        {
          "internalType": "address",
          "name": "depositor",
          "type": "address"
        },
        {
          "internalType": "contract IERC20",
          "name": "token",
          "type": "address"
        },
        {
          "internalType": "uint256",
          "name": "amountShares",
          "type": "uint256"
        }
      ],
      "name": "withdraw",
      "outputs": [],
      "stateMutability": "nonpayable",
      "type": "function"
    }
  ],
  "bytecode": {
    "object": "0x60c060405234801561001057600080fd5b50604051610b9f380380610b9f83398101604081905261002f9161005e565b6001600160a01b039182166080521660a052610098565b6001600160a01b038116811461005b57600080fd5b50565b6000806040838503121561007157600080fd5b825161007c81610046565b602084015190925061008d81610046565b809150509250929050565b60805160a051610ab96100e66000396000818160d90152818161021f01528181610400015261056a015260008181610147015281816101d70152818161034901526103c10152610ab96000f3fe608060405234801561001057600080fd5b50600436106100cf5760003560e01c80638c8710191161008c578063ce7c2ac211610066578063ce7c2ac2146101a2578063d9caed12146101b5578063e3dae51c1461017c578063f3e738751461017c57600080fd5b80638c8710191461017c5780638f6a624014610169578063ab5921e11461018d57600080fd5b80632495a599146100d45780633a98ef391461011857806347e7ef241461012f5780634b31bb1014610142578063553ca5f8146101695780637a8b26371461017c575b600080fd5b6100fb7f000000000000000000000000000000000000000000000000000000000000000081565b6040516001600160a01b0390911681526020015b60405180910390f35b61012160005481565b60405190815260200161010f565b61012161013d366004610848565b6101ca565b6100fb7f000000000000000000000000000000000000000000000000000000000000000081565b610121610177366004610874565b6102ed565b61012161018a366004610898565b90565b610195610301565b60405161010f91906108e1565b6101216101b0366004610874565b610321565b6101c86101c3366004610914565b6103b6565b005b6000336001600160a01b037f0000000000000000000000000000000000000000000000000000000000000000161461021d5760405162461bcd60e51b815260040161021490610955565b60405180910390fd5b7f00000000000000000000000000000000000000000000000000000000000000006001600160a01b0316836001600160a01b0316146102d05760405162461bcd60e51b815260206004820152604360248201527f496e766573746d656e745374726174656779577261707065722e6465706f736960448201527f743a2043616e206f6e6c79206465706f73697420756e6465726c79696e67546f60648201526235b2b760e91b608482015260a401610214565b816000808282546102e191906109a4565b90915550919392505050565b60006102fb61018a83610321565b92915050565b60606040518060a0016040528060628152602001610a2260629139905090565b604051636be2343f60e01b81526001600160a01b0382811660048301523060248301526000917f000000000000000000000000000000000000000000000000000000000000000090911690636be2343f90604401602060405180830381865afa158015610392573d6000803e3d6000fd5b505050506040513d601f19601f820116820180604052508101906102fb91906109ca565b336001600160a01b037f000000000000000000000000000000000000000000000000000000000000000016146103fe5760405162461bcd60e51b815260040161021490610955565b7f00000000000000000000000000000000000000000000000000000000000000006001600160a01b0316826001600160a01b0316146104b65760405162461bcd60e51b815260206004820152604860248201527f496e766573746d656e745374726174656779577261707065722e77697468647260448201527f61773a2043616e206f6e6c79207769746864726177207468652073747261746560648201526733bc903a37b5b2b760c11b608482015260a401610214565b6000548111156105545760405162461bcd60e51b815260206004820152605a60248201527f496e766573746d656e745374726174656779577261707065722e77697468647260448201527f61773a20616d6f756e74536861726573206d757374206265206c65737320746860648201527f616e206f7220657175616c20746f20746f74616c536861726573000000000000608482015260a401610214565b6000805482900390556105916001600160a01b037f0000000000000000000000000000000000000000000000000000000000000000168483610596565b505050565b604080516001600160a01b03848116602483015260448083018590528351808403909101815260649092018352602080830180516001600160e01b031663a9059cbb60e01b17905283518085019094528084527f5361666545524332303a206c6f772d6c6576656c2063616c6c206661696c656490840152610591928692916000916106269185169084906106a3565b805190915015610591578080602001905181019061064491906109e3565b6105915760405162461bcd60e51b815260206004820152602a60248201527f5361666545524332303a204552433230206f7065726174696f6e20646964206e6044820152691bdd081cdd58d8d9595960b21b6064820152608401610214565b60606106b284846000856106ba565b949350505050565b60608247101561071b5760405162461bcd60e51b815260206004820152602660248201527f416464726573733a20696e73756666696369656e742062616c616e636520666f6044820152651c8818d85b1b60d21b6064820152608401610214565b600080866001600160a01b031685876040516107379190610a05565b60006040518083038185875af1925050503d8060008114610774576040519150601f19603f3d011682016040523d82523d6000602084013e610779565b606091505b509150915061078a87838387610795565b979650505050505050565b606083156108015782516107fa576001600160a01b0385163b6107fa5760405162461bcd60e51b815260206004820152601d60248201527f416464726573733a2063616c6c20746f206e6f6e2d636f6e74726163740000006044820152606401610214565b50816106b2565b6106b283838151156108165781518083602001fd5b8060405162461bcd60e51b815260040161021491906108e1565b6001600160a01b038116811461084557600080fd5b50565b6000806040838503121561085b57600080fd5b823561086681610830565b946020939093013593505050565b60006020828403121561088657600080fd5b813561089181610830565b9392505050565b6000602082840312156108aa57600080fd5b5035919050565b60005b838110156108cc5781810151838201526020016108b4565b838111156108db576000848401525b50505050565b60208152600082518060208401526109008160408501602087016108b1565b601f01601f19169190910160400192915050565b60008060006060848603121561092957600080fd5b833561093481610830565b9250602084013561094481610830565b929592945050506040919091013590565b6020808252602f908201527f496e766573746d656e745374726174656779577261707065722e6f6e6c79496e60408201526e3b32b9ba36b2b73a26b0b730b3b2b960891b606082015260800190565b600082198211156109c557634e487b7160e01b600052601160045260246000fd5b500190565b6000602082840312156109dc57600080fd5b5051919050565b6000602082840312156109f557600080fd5b8151801515811461089157600080fd5b60008251610a178184602087016108b1565b919091019291505056fe5772617070657220496e766573746d656e74537472617465677920746f2073696d706c792073746f726520746f6b656e732e20417373756d657320666978656420312d746f2d312073686172652d756e6465726c79696e672065786368616e67652ea264697066735822122009f33603d5fa5ddaa3976f32ccac03569dc84d04dc0e18d4607f4756e329bd3e64736f6c634300080c0033",
    "linkReferences": {}
  },
  "methodIdentifiers": {
    "deposit(address,uint256)": "47e7ef24",
    "explanation()": "ab5921e1",
    "investmentManager()": "4b31bb10",
    "shares(address)": "ce7c2ac2",
    "sharesToUnderlying(uint256)": "f3e73875",
    "sharesToUnderlyingView(uint256)": "7a8b2637",
    "totalShares()": "3a98ef39",
    "underlyingToShares(uint256)": "8c871019",
    "underlyingToSharesView(uint256)": "e3dae51c",
    "underlyingToken()": "2495a599",
    "userUnderlying(address)": "8f6a6240",
    "userUnderlyingView(address)": "553ca5f8",
    "withdraw(address,address,uint256)": "d9caed12"
  },
  "id": 78
}