{
  "abi": [
    {
      "inputs": [
        {
          "internalType": "contract IEigenLayrDelegation",
          "name": "_delegation",
          "type": "address"
        },
        {
          "internalType": "contract IRegistryPermission",
          "name": "_permissionManager",
          "type": "address"
        }
      ],
      "stateMutability": "nonpayable",
      "type": "constructor"
    },
    {
      "anonymous": false,
      "inputs": [
        {
          "indexed": true,
          "internalType": "address",
          "name": "withdrawer",
          "type": "address"
        },
        {
          "indexed": false,
          "internalType": "contract IInvestmentStrategy[]",
          "name": "strategies",
          "type": "address[]"
        },
        {
          "indexed": false,
          "internalType": "contract IERC20[]",
          "name": "tokens",
          "type": "address[]"
        },
        {
          "indexed": false,
          "internalType": "uint256[]",
          "name": "shares",
          "type": "uint256[]"
        }
      ],
      "name": "DelegatorWithdrawal",
      "type": "event"
    },
    {
      "anonymous": false,
      "inputs": [
        {
          "indexed": false,
          "internalType": "uint8",
          "name": "version",
          "type": "uint8"
        }
      ],
      "name": "Initialized",
      "type": "event"
    },
    {
      "anonymous": false,
      "inputs": [
        {
          "indexed": true,
          "internalType": "address",
          "name": "previousOwner",
          "type": "address"
        },
        {
          "indexed": true,
          "internalType": "address",
          "name": "newOwner",
          "type": "address"
        }
      ],
      "name": "OwnershipTransferred",
      "type": "event"
    },
    {
      "anonymous": false,
      "inputs": [
        {
          "indexed": true,
          "internalType": "address",
          "name": "account",
          "type": "address"
        },
        {
          "indexed": false,
          "internalType": "uint256",
          "name": "newPausedStatus",
          "type": "uint256"
        }
      ],
      "name": "Paused",
      "type": "event"
    },
    {
      "anonymous": false,
      "inputs": [
        {
          "indexed": true,
          "internalType": "address",
          "name": "account",
          "type": "address"
        },
        {
          "indexed": false,
          "internalType": "uint256",
          "name": "newPausedStatus",
          "type": "uint256"
        }
      ],
      "name": "Unpaused",
      "type": "event"
    },
    {
      "inputs": [],
      "name": "DEPOSIT_TYPEHASH",
      "outputs": [
        {
          "internalType": "bytes32",
          "name": "",
          "type": "bytes32"
        }
      ],
      "stateMutability": "view",
      "type": "function"
    },
    {
      "inputs": [],
      "name": "DOMAIN_SEPARATOR",
      "outputs": [
        {
          "internalType": "bytes32",
          "name": "",
          "type": "bytes32"
        }
      ],
      "stateMutability": "view",
      "type": "function"
    },
    {
      "inputs": [],
      "name": "DOMAIN_TYPEHASH",
      "outputs": [
        {
          "internalType": "bytes32",
          "name": "",
          "type": "bytes32"
        }
      ],
      "stateMutability": "view",
      "type": "function"
    },
    {
      "inputs": [],
      "name": "delegation",
      "outputs": [
        {
          "internalType": "contract IEigenLayrDelegation",
          "name": "",
          "type": "address"
        }
      ],
      "stateMutability": "view",
      "type": "function"
    },
    {
      "inputs": [
        {
          "internalType": "uint256[]",
          "name": "strategyIndexes",
          "type": "uint256[]"
        },
        {
          "internalType": "contract IInvestmentStrategy[]",
          "name": "strategies",
          "type": "address[]"
        },
        {
          "internalType": "contract IERC20[]",
          "name": "tokens",
          "type": "address[]"
        },
        {
          "internalType": "uint256[]",
          "name": "shares",
          "type": "uint256[]"
        },
        {
          "internalType": "bool",
          "name": "undelegateIfPossible",
          "type": "bool"
        }
      ],
      "name": "delegatorWithdraw",
      "outputs": [
        {
          "internalType": "bool",
          "name": "",
          "type": "bool"
        }
      ],
      "stateMutability": "nonpayable",
      "type": "function"
    },
    {
      "inputs": [
        {
          "internalType": "address",
          "name": "",
          "type": "address"
        }
      ],
      "name": "delegatorWithdrawWhiteList",
      "outputs": [
        {
          "internalType": "bool",
          "name": "",
          "type": "bool"
        }
      ],
      "stateMutability": "view",
      "type": "function"
    },
    {
      "inputs": [
        {
          "internalType": "contract IInvestmentStrategy",
          "name": "strategy",
          "type": "address"
        },
        {
          "internalType": "contract IERC20",
          "name": "token",
          "type": "address"
        },
        {
          "internalType": "uint256",
          "name": "amount",
          "type": "uint256"
        }
      ],
      "name": "depositIntoStrategy",
      "outputs": [
        {
          "internalType": "uint256",
          "name": "shares",
          "type": "uint256"
        }
      ],
      "stateMutability": "nonpayable",
      "type": "function"
    },
    {
      "inputs": [
        {
          "internalType": "contract IInvestmentStrategy",
          "name": "strategy",
          "type": "address"
        },
        {
          "internalType": "contract IERC20",
          "name": "token",
          "type": "address"
        },
        {
          "internalType": "uint256",
          "name": "amount",
          "type": "uint256"
        },
        {
          "internalType": "address",
          "name": "staker",
          "type": "address"
        },
        {
          "internalType": "uint256",
          "name": "expiry",
          "type": "uint256"
        },
        {
          "internalType": "bytes32",
          "name": "r",
          "type": "bytes32"
        },
        {
          "internalType": "bytes32",
          "name": "vs",
          "type": "bytes32"
        }
      ],
      "name": "depositIntoStrategyOnBehalfOf",
      "outputs": [
        {
          "internalType": "uint256",
          "name": "shares",
          "type": "uint256"
        }
      ],
      "stateMutability": "nonpayable",
      "type": "function"
    },
    {
      "inputs": [
        {
          "internalType": "address",
          "name": "depositor",
          "type": "address"
        }
      ],
      "name": "getDeposits",
      "outputs": [
        {
          "internalType": "contract IInvestmentStrategy[]",
          "name": "",
          "type": "address[]"
        },
        {
          "internalType": "uint256[]",
          "name": "",
          "type": "uint256[]"
        }
      ],
      "stateMutability": "view",
      "type": "function"
    },
    {
      "inputs": [
        {
          "internalType": "contract IPauserRegistry",
          "name": "_pauserRegistry",
          "type": "address"
        },
        {
          "internalType": "address",
          "name": "initialOwner",
          "type": "address"
        }
      ],
      "name": "initialize",
      "outputs": [],
      "stateMutability": "nonpayable",
      "type": "function"
    },
    {
      "inputs": [
        {
          "internalType": "address",
          "name": "",
          "type": "address"
        },
        {
          "internalType": "contract IInvestmentStrategy",
          "name": "",
          "type": "address"
        }
      ],
      "name": "investorStratShares",
      "outputs": [
        {
          "internalType": "uint256",
          "name": "",
          "type": "uint256"
        }
      ],
      "stateMutability": "view",
      "type": "function"
    },
    {
      "inputs": [
        {
          "internalType": "address",
          "name": "",
          "type": "address"
        },
        {
          "internalType": "uint256",
          "name": "",
          "type": "uint256"
        }
      ],
      "name": "investorStrats",
      "outputs": [
        {
          "internalType": "contract IInvestmentStrategy",
          "name": "",
          "type": "address"
        }
      ],
      "stateMutability": "view",
      "type": "function"
    },
    {
      "inputs": [
        {
          "internalType": "address",
          "name": "staker",
          "type": "address"
        }
      ],
      "name": "investorStratsLength",
      "outputs": [
        {
          "internalType": "uint256",
          "name": "",
          "type": "uint256"
        }
      ],
      "stateMutability": "view",
      "type": "function"
    },
    {
      "inputs": [
        {
          "internalType": "address",
          "name": "",
          "type": "address"
        }
      ],
      "name": "nonces",
      "outputs": [
        {
          "internalType": "uint256",
          "name": "",
          "type": "uint256"
        }
      ],
      "stateMutability": "view",
      "type": "function"
    },
    {
      "inputs": [],
      "name": "owner",
      "outputs": [
        {
          "internalType": "address",
          "name": "",
          "type": "address"
        }
      ],
      "stateMutability": "view",
      "type": "function"
    },
    {
      "inputs": [
        {
          "internalType": "uint256",
          "name": "newPausedStatus",
          "type": "uint256"
        }
      ],
      "name": "pause",
      "outputs": [],
      "stateMutability": "nonpayable",
      "type": "function"
    },
    {
      "inputs": [
        {
          "internalType": "uint8",
          "name": "index",
          "type": "uint8"
        }
      ],
      "name": "paused",
      "outputs": [
        {
          "internalType": "bool",
          "name": "",
          "type": "bool"
        }
      ],
      "stateMutability": "view",
      "type": "function"
    },
    {
      "inputs": [],
      "name": "paused",
      "outputs": [
        {
          "internalType": "uint256",
          "name": "",
          "type": "uint256"
        }
      ],
      "stateMutability": "view",
      "type": "function"
    },
    {
      "inputs": [],
      "name": "pauserRegistry",
      "outputs": [
        {
          "internalType": "contract IPauserRegistry",
          "name": "",
          "type": "address"
        }
      ],
      "stateMutability": "view",
      "type": "function"
    },
    {
      "inputs": [],
      "name": "permissionManager",
      "outputs": [
        {
          "internalType": "contract IRegistryPermission",
          "name": "",
          "type": "address"
        }
      ],
      "stateMutability": "view",
      "type": "function"
    },
    {
      "inputs": [],
      "name": "renounceOwnership",
      "outputs": [],
      "stateMutability": "nonpayable",
      "type": "function"
    },
    {
      "inputs": [
        {
          "internalType": "address",
          "name": "withdrawer",
          "type": "address"
        }
      ],
      "name": "setDelegatorCanWithdraw",
      "outputs": [],
      "stateMutability": "nonpayable",
      "type": "function"
    },
    {
      "inputs": [
        {
          "internalType": "address",
          "name": "newOwner",
          "type": "address"
        }
      ],
      "name": "transferOwnership",
      "outputs": [],
      "stateMutability": "nonpayable",
      "type": "function"
    },
    {
      "inputs": [],
      "name": "undelegate",
      "outputs": [],
      "stateMutability": "nonpayable",
      "type": "function"
    },
    {
      "inputs": [
        {
          "internalType": "uint256",
          "name": "newPausedStatus",
          "type": "uint256"
        }
      ],
      "name": "unpause",
      "outputs": [],
      "stateMutability": "nonpayable",
      "type": "function"
    }
  ],
  "bytecode": {
    "object": "0x60c06040523480156200001157600080fd5b5060405162002b9c38038062002b9c833981016040819052620000349162000134565b6001600160a01b03808316608052811660a0526200005162000059565b505062000173565b600054610100900460ff1615620000c65760405162461bcd60e51b815260206004820152602760248201527f496e697469616c697a61626c653a20636f6e747261637420697320696e697469604482015266616c697a696e6760c81b606482015260840160405180910390fd5b60005460ff908116101562000119576000805460ff191660ff9081179091556040519081527f7f26b83ff96e1f2b6a682f133852f6798a09c465da95921460cefb38474024989060200160405180910390a15b565b6001600160a01b03811681146200013157600080fd5b50565b600080604083850312156200014857600080fd5b825162000155816200011b565b602084015190925062000168816200011b565b809150509250929050565b60805160a0516129d2620001ca600039600081816103640152818161079a01528181610a9d01528181610d3d015261115d0152600081816103c101528181610eae0152818161179f0152611d3001526129d26000f3fe608060405234801561001057600080fd5b50600436106101735760003560e01c80638da5cb5b116100de578063cc7a204911610097578063df5cf72311610071578063df5cf723146103bc578063e7a050aa146103e3578063f2fde38b146103f6578063fabc1cbc1461040957600080fd5b8063cc7a20491461035f578063d80b3f6e14610386578063daa92983146103a957600080fd5b80638da5cb5b146102d65780638e749873146102e757806392ab89bb1461031057806394f649dd14610318578063ae0d7c6014610339578063c377b9061461034c57600080fd5b80635c975abb116101305780635c975abb1461023d5780636876e790146102455780636be2343f14610258578063715018a6146102835780637ecebe001461028b578063886f1195146102ab57600080fd5b8063136439dd1461017857806320606b701461018d5780633644e515146101c7578063485cc955146101d057806348825e94146101e35780635ac86ab71461020a575b600080fd5b61018b6101863660046122a3565b61041c565b005b6101b47f8cad95687ba82c2ce50e74f7b754645e5117c3a5bec8151c0726d5857980a86681565b6040519081526020015b60405180910390f35b6101b460975481565b61018b6101de3660046122d1565b6105c0565b6101b47f0a564d4cfe5cb0d4ee082aab2ca54b8c48e129485a8f7c77766ab5ef0c3566f181565b61022d61021836600461230a565b609d54600160ff9092169190911b9081161490565b60405190151581526020016101be565b609d546101b4565b6101b4610253366004612334565b610752565b6101b46102663660046122d1565b609960209081526000928352604080842090915290825290205481565b61018b610a74565b6101b46102993660046123a2565b60986020526000908152604090205481565b609c546102be906001600160a01b031681565b6040516001600160a01b0390911681526020016101be565b6033546001600160a01b03166102be565b6101b46102f53660046123a2565b6001600160a01b03166000908152609a602052604090205490565b61018b610a88565b61032b6103263660046123a2565b610b3a565b6040516101be9291906123bf565b61018b6103473660046123a2565b610cba565b6102be61035a366004612445565b610ce6565b6102be7f000000000000000000000000000000000000000000000000000000000000000081565b61022d6103943660046123a2565b609b6020526000908152604090205460ff1681565b61022d6103b73660046124cb565b610d1e565b6102be7f000000000000000000000000000000000000000000000000000000000000000081565b6101b46103f13660046125a2565b611115565b61018b6104043660046123a2565b611211565b61018b6104173660046122a3565b61128a565b609c60009054906101000a90046001600160a01b03166001600160a01b0316639fd0506d6040518163ffffffff1660e01b8152600401602060405180830381865afa15801561046f573d6000803e3d6000fd5b505050506040513d601f19601f8201168201806040525081019061049391906125e3565b6001600160a01b0316336001600160a01b0316146105095760405162461bcd60e51b815260206004820152602860248201527f6d73672e73656e646572206973206e6f74207065726d697373696f6e6564206160448201526739903830bab9b2b960c11b60648201526084015b60405180910390fd5b609d54818116146105825760405162461bcd60e51b815260206004820152603860248201527f5061757361626c652e70617573653a20696e76616c696420617474656d70742060448201527f746f20756e70617573652066756e6374696f6e616c69747900000000000000006064820152608401610500565b609d81905560405181815233907fab40a374bc51de372200a8bc981af8c9ecdc08dfdaef0bb6e09f88f3c616ef3d906020015b60405180910390a250565b600054610100900460ff16158080156105e05750600054600160ff909116105b806105fa5750303b1580156105fa575060005460ff166001145b61065d5760405162461bcd60e51b815260206004820152602e60248201527f496e697469616c697a61626c653a20636f6e747261637420697320616c72656160448201526d191e481a5b9a5d1a585b1a5e995960921b6064820152608401610500565b6000805460ff191660011790558015610680576000805461ff0019166101001790555b7f8cad95687ba82c2ce50e74f7b754645e5117c3a5bec8151c0726d5857980a8666040518060400160405280600981526020016822b4b3b2b72630bcb960b91b81525046306040516020016106d89493929190612658565b60408051601f1981840301815291905280516020909101206097556106fe836000611429565b61070782611529565b801561074d576000805461ff0019169055604051600181527f7f26b83ff96e1f2b6a682f133852f6798a09c465da95921460cefb38474024989060200160405180910390a15b505050565b609d5460009081906001908116141561077d5760405162461bcd60e51b815260040161050090612692565b61078561157b565b60405163314145ff60e11b81523360048201527f00000000000000000000000000000000000000000000000000000000000000006001600160a01b0316906362828bfe90602401602060405180830381865afa1580156107e9573d6000803e3d6000fd5b505050506040513d601f19601f8201168201806040525081019061080d91906126c9565b151560011461082e5760405162461bcd60e51b8152600401610500906126e6565b84158061083b5750428510155b6108c35760405162461bcd60e51b815260206004820152604d60248201527f496e766573746d656e744d616e616765722e6465706f736974496e746f53747260448201527f61746567794f6e426568616c664f663a2064656c65676174696f6e207369676e60648201526c185d1d5c9948195e1c1a5c9959609a1b608482015260a401610500565b6001600160a01b038616600090815260986020526040812080547f0a564d4cfe5cb0d4ee082aab2ca54b8c48e129485a8f7c77766ab5ef0c3566f1918c918c918c91908661091083612774565b909155506040805160208101969096526001600160a01b0394851690860152929091166060840152608083015260a082015260c0810187905260e00160405160208183030381529060405280519060200120905060006097548260405160200161099192919061190160f01b81526002810192909252602282015260420190565b60405160208183030381529060405280519060200120905060006109b68288886115d5565b9050886001600160a01b0316816001600160a01b031614610a4d5760405162461bcd60e51b8152602060048201526044602482018190527f496e766573746d656e744d616e616765722e6465706f736974496e746f537472908201527f61746567794f6e426568616c664f663a20736967206e6f742066726f6d20737460648201526330b5b2b960e11b608482015260a401610500565b610a59898d8d8d6115fb565b9450505050610a686001606555565b50979650505050505050565b610a7c61169a565b610a866000611529565b565b60405163314145ff60e11b81523360048201527f00000000000000000000000000000000000000000000000000000000000000006001600160a01b0316906362828bfe90602401602060405180830381865afa158015610aec573d6000803e3d6000fd5b505050506040513d601f19601f82011682018060405250810190610b1091906126c9565b1515600114610b315760405162461bcd60e51b8152600401610500906126e6565b610a86336116f4565b6001600160a01b0381166000908152609a60205260408120546060918291908167ffffffffffffffff811115610b7257610b7261278f565b604051908082528060200260200182016040528015610b9b578160200160208202803683370190505b50905060005b82811015610c2c576001600160a01b0386166000908152609960209081526040808320609a9092528220805491929184908110610be057610be06127a5565b60009182526020808320909101546001600160a01b031683528201929092526040019020548251839083908110610c1957610c196127a5565b6020908102919091010152600101610ba1565b50609a6000866001600160a01b03166001600160a01b031681526020019081526020016000208181805480602002602001604051908101604052809291908181526020018280548015610ca857602002820191906000526020600020905b81546001600160a01b03168152600190910190602001808311610c8a575b50505050509150935093505050915091565b610cc261169a565b6001600160a01b03166000908152609b60205260409020805460ff19166001179055565b609a6020528160005260406000208181548110610d0257600080fd5b6000918252602090912001546001600160a01b03169150829050565b6000610d2861157b565b60405163314145ff60e11b81523360048201527f00000000000000000000000000000000000000000000000000000000000000006001600160a01b0316906362828bfe90602401602060405180830381865afa158015610d8c573d6000803e3d6000fd5b505050506040513d601f19601f82011682018060405250810190610db091906126c9565b1515600114610dd15760405162461bcd60e51b8152600401610500906126e6565b609d5460029081161415610df75760405162461bcd60e51b815260040161050090612692565b336000908152609b602052604090205460ff161515600114610e975760405162461bcd60e51b815260206004820152604d60248201527f496e766573746d656e744d616e616765722e64656c656761746f72576974686460448201527f7261773a20796f7520686173206e6f74207065726d697373696f6e20746f207760648201526c34ba34323930bb903a37b5b2b760991b608482015260a401610500565b604051631608124760e21b81526001600160a01b037f00000000000000000000000000000000000000000000000000000000000000001690635820491c90610eeb9033908c908c908a908a9060040161283a565b600060405180830381600087803b158015610f0557600080fd5b505af1158015610f19573d6000803e3d6000fd5b50600092508991508290505b8181101561108457610f8f338e8e86818110610f4357610f436127a5565b905060200201358d8d85818110610f5c57610f5c6127a5565b9050602002016020810190610f7191906123a2565b8a8a86818110610f8357610f836127a5565b905060200201356117fe565b15610f9b578260010192505b8a8a82818110610fad57610fad6127a5565b9050602002016020810190610fc291906123a2565b6001600160a01b031663d9caed12338b8b85818110610fe357610fe36127a5565b9050602002016020810190610ff891906123a2565b8a8a8681811061100a5761100a6127a5565b6040516001600160e01b031960e088901b1681526001600160a01b03958616600482015294909316602485015250602090910201356044820152606401600060405180830381600087803b15801561106157600080fd5b505af1158015611075573d6000803e3d6000fd5b50505050806001019050610f25565b5083801561109f5750336000908152609a6020526040902054155b156110ad576110ad336116f4565b336001600160a01b03167f7d34f7fb26ff055b2b4bf91ebbe921865c5131ec66acb990ca27194473eedaf68b8b8b8b8b8b6040516110f09695949392919061287e565b60405180910390a26001925050506111086001606555565b9998505050505050505050565b609d546000908190600190811614156111405760405162461bcd60e51b815260040161050090612692565b61114861157b565b60405163314145ff60e11b81523360048201527f00000000000000000000000000000000000000000000000000000000000000006001600160a01b0316906362828bfe90602401602060405180830381865afa1580156111ac573d6000803e3d6000fd5b505050506040513d601f19601f820116820180604052508101906111d091906126c9565b15156001146111f15760405162461bcd60e51b8152600401610500906126e6565b6111fd338686866115fb565b91506112096001606555565b509392505050565b61121961169a565b6001600160a01b03811661127e5760405162461bcd60e51b815260206004820152602660248201527f4f776e61626c653a206e6577206f776e657220697320746865207a65726f206160448201526564647265737360d01b6064820152608401610500565b61128781611529565b50565b609c60009054906101000a90046001600160a01b03166001600160a01b031663eab66d7a6040518163ffffffff1660e01b8152600401602060405180830381865afa1580156112dd573d6000803e3d6000fd5b505050506040513d601f19601f8201168201806040525081019061130191906125e3565b6001600160a01b0316336001600160a01b0316146113745760405162461bcd60e51b815260206004820152602a60248201527f6d73672e73656e646572206973206e6f74207065726d697373696f6e6564206160448201526939903ab73830bab9b2b960b11b6064820152608401610500565b609d54198119609d541916146113f25760405162461bcd60e51b815260206004820152603860248201527f5061757361626c652e756e70617573653a20696e76616c696420617474656d7060448201527f7420746f2070617573652066756e6374696f6e616c69747900000000000000006064820152608401610500565b609d81905560405181815233907f3582d1828e26bf56bd801502bc021ac0bc8afb57c826e4986b45593c8fad389c906020016105b5565b609c546001600160a01b031615801561144a57506001600160a01b03821615155b6114cc5760405162461bcd60e51b815260206004820152604760248201527f5061757361626c652e5f696e697469616c697a655061757365723a205f696e6960448201527f7469616c697a6550617573657228292063616e206f6e6c792062652063616c6c6064820152666564206f6e636560c81b608482015260a401610500565b609d81905560405181815233907fab40a374bc51de372200a8bc981af8c9ecdc08dfdaef0bb6e09f88f3c616ef3d9060200160405180910390a250609c80546001600160a01b0319166001600160a01b0392909216919091179055565b603380546001600160a01b038381166001600160a01b0319831681179093556040519116919082907f8be0079c531659141344cd1fd0a4f28419497f9722a3daafe3b4186f6b6457e090600090a35050565b600260655414156115ce5760405162461bcd60e51b815260206004820152601f60248201527f5265656e7472616e637947756172643a207265656e7472616e742063616c6c006044820152606401610500565b6002606555565b60008060006115e586868661195e565b915091506115f281611997565b50949350505050565b60006116126001600160a01b038416338685611ae5565b6040516311f9fbc960e21b81526001600160a01b038481166004830152602482018490528516906347e7ef24906044016020604051808303816000875af1158015611661573d6000803e3d6000fd5b505050506040513d601f19601f8201168201806040525081019061168591906128f9565b9050611692858583611b45565b949350505050565b6033546001600160a01b03163314610a865760405162461bcd60e51b815260206004820181905260248201527f4f776e61626c653a2063616c6c6572206973206e6f7420746865206f776e65726044820152606401610500565b6001600160a01b0381166000908152609a6020526040902054156117805760405162461bcd60e51b815260206004820152603c60248201527f496e766573746d656e744d616e616765722e5f756e64656c65676174653a206460448201527f65706f7369746f722068617320616374697665206465706f73697473000000006064820152608401610500565b6040516336a2fa1960e21b81526001600160a01b0382811660048301527f0000000000000000000000000000000000000000000000000000000000000000169063da8be86490602401600060405180830381600087803b1580156117e357600080fd5b505af11580156117f7573d6000803e3d6000fd5b5050505050565b600081611875576040805162461bcd60e51b81526020600482015260248101919091527f496e766573746d656e744d616e616765722e5f72656d6f76655368617265733a60448201527f207368617265416d6f756e742073686f756c64206e6f74206265207a65726f216064820152608401610500565b6001600160a01b03808616600090815260996020908152604080832093871683529290522054808311156119095760405162461bcd60e51b815260206004820152603560248201527f496e766573746d656e744d616e616765722e5f72656d6f76655368617265733a604482015274040e6d0c2e4ca82dadeeadce840e8dede40d0d2ced605b1b6064820152608401610500565b6001600160a01b038087166000908152609960209081526040808320938816835292905220838203908190559083141561195257611948868686611d91565b6001915050611692565b50600095945050505050565b6000806001600160ff1b0383168161197b60ff86901c601b612912565b905061198987828885611fed565b935093505050935093915050565b60008160048111156119ab576119ab61292a565b14156119b45750565b60018160048111156119c8576119c861292a565b1415611a165760405162461bcd60e51b815260206004820152601860248201527f45434453413a20696e76616c6964207369676e617475726500000000000000006044820152606401610500565b6002816004811115611a2a57611a2a61292a565b1415611a785760405162461bcd60e51b815260206004820152601f60248201527f45434453413a20696e76616c6964207369676e6174757265206c656e677468006044820152606401610500565b6003816004811115611a8c57611a8c61292a565b14156112875760405162461bcd60e51b815260206004820152602260248201527f45434453413a20696e76616c6964207369676e6174757265202773272076616c604482015261756560f01b6064820152608401610500565b604080516001600160a01b0385811660248301528416604482015260648082018490528251808303909101815260849091019091526020810180516001600160e01b03166323b872dd60e01b179052611b3f9085906120b1565b50505050565b80611bb85760405162461bcd60e51b815260206004820152603860248201527f496e766573746d656e744d616e616765722e5f6164645368617265733a20736860448201527f617265732073686f756c64206e6f74206265207a65726f2100000000000000006064820152608401610500565b6001600160a01b03808416600090815260996020908152604080832093861683529290522054611cc6576001600160a01b0383166000908152609a602090815260409091205410611c875760405162461bcd60e51b815260206004820152604d60248201527f496e766573746d656e744d616e616765722e5f6164645368617265733a20646560448201527f706f73697420776f756c6420657863656564204d41585f494e564553544f525f60648201526c0a6a8a482a8a6be988a9c8ea89609b1b608482015260a401610500565b6001600160a01b038381166000908152609a602090815260408220805460018101825590835291200180546001600160a01b0319169184169190911790555b6001600160a01b03808416600090815260996020908152604080832093861683529290529081208054839290611cfd908490612912565b9091555050604051631452b9d760e11b81526001600160a01b0384811660048301528381166024830152604482018390527f000000000000000000000000000000000000000000000000000000000000000016906328a573ae90606401600060405180830381600087803b158015611d7457600080fd5b505af1158015611d88573d6000803e3d6000fd5b50505050505050565b6001600160a01b038381166000908152609a6020526040902080549183169184908110611dc057611dc06127a5565b6000918252602090912001546001600160a01b03161415611e81576001600160a01b0383166000908152609a602052604090208054611e0190600190612940565b81548110611e1157611e116127a5565b60009182526020808320909101546001600160a01b038681168452609a9092526040909220805491909216919084908110611e4e57611e4e6127a5565b9060005260206000200160006101000a8154816001600160a01b0302191690836001600160a01b03160217905550611f9f565b6001600160a01b0383166000908152609a6020526040812054905b81811015611f9c576001600160a01b038581166000908152609a6020526040902080549185169183908110611ed357611ed36127a5565b6000918252602090912001546001600160a01b03161415611f94576001600160a01b0385166000908152609a602052604090208054611f1490600190612940565b81548110611f2457611f246127a5565b60009182526020808320909101546001600160a01b038881168452609a9092526040909220805491909216919083908110611f6157611f616127a5565b9060005260206000200160006101000a8154816001600160a01b0302191690836001600160a01b03160217905550611f9c565b600101611e9c565b50505b6001600160a01b0383166000908152609a60205260409020805480611fc657611fc6612957565b600082815260209020810160001990810180546001600160a01b0319169055019055505050565b6000807f7fffffffffffffffffffffffffffffff5d576e7357a4501ddfe92f46681b20a083111561202457506000905060036120a8565b6040805160008082526020820180845289905260ff881692820192909252606081018690526080810185905260019060a0016020604051602081039080840390855afa158015612078573d6000803e3d6000fd5b5050604051601f1901519150506001600160a01b0381166120a1576000600192509250506120a8565b9150600090505b94509492505050565b6000612106826040518060400160405280602081526020017f5361666545524332303a206c6f772d6c6576656c2063616c6c206661696c6564815250856001600160a01b03166121839092919063ffffffff16565b80519091501561074d578080602001905181019061212491906126c9565b61074d5760405162461bcd60e51b815260206004820152602a60248201527f5361666545524332303a204552433230206f7065726174696f6e20646964206e6044820152691bdd081cdd58d8d9595960b21b6064820152608401610500565b6060611692848460008585600080866001600160a01b031685876040516121aa919061296d565b60006040518083038185875af1925050503d80600081146121e7576040519150601f19603f3d011682016040523d82523d6000602084013e6121ec565b606091505b50915091506121fd87838387612208565b979650505050505050565b6060831561227457825161226d576001600160a01b0385163b61226d5760405162461bcd60e51b815260206004820152601d60248201527f416464726573733a2063616c6c20746f206e6f6e2d636f6e74726163740000006044820152606401610500565b5081611692565b61169283838151156122895781518083602001fd5b8060405162461bcd60e51b81526004016105009190612989565b6000602082840312156122b557600080fd5b5035919050565b6001600160a01b038116811461128757600080fd5b600080604083850312156122e457600080fd5b82356122ef816122bc565b915060208301356122ff816122bc565b809150509250929050565b60006020828403121561231c57600080fd5b813560ff8116811461232d57600080fd5b9392505050565b600080600080600080600060e0888a03121561234f57600080fd5b873561235a816122bc565b9650602088013561236a816122bc565b9550604088013594506060880135612381816122bc565b9699959850939660808101359560a0820135955060c0909101359350915050565b6000602082840312156123b457600080fd5b813561232d816122bc565b604080825283519082018190526000906020906060840190828701845b828110156124035781516001600160a01b03168452602084019350908401906001016123dc565b5050508381038285015284518082528583019183019060005b818110156124385783518352928401929184019160010161241c565b5090979650505050505050565b6000806040838503121561245857600080fd5b8235612463816122bc565b946020939093013593505050565b60008083601f84011261248357600080fd5b50813567ffffffffffffffff81111561249b57600080fd5b6020830191508360208260051b85010111156124b657600080fd5b9250929050565b801515811461128757600080fd5b600080600080600080600080600060a08a8c0312156124e957600080fd5b893567ffffffffffffffff8082111561250157600080fd5b61250d8d838e01612471565b909b50995060208c013591508082111561252657600080fd5b6125328d838e01612471565b909950975060408c013591508082111561254b57600080fd5b6125578d838e01612471565b909750955060608c013591508082111561257057600080fd5b5061257d8c828d01612471565b90945092505060808a0135612591816124bd565b809150509295985092959850929598565b6000806000606084860312156125b757600080fd5b83356125c2816122bc565b925060208401356125d2816122bc565b929592945050506040919091013590565b6000602082840312156125f557600080fd5b815161232d816122bc565b60005b8381101561261b578181015183820152602001612603565b83811115611b3f5750506000910152565b60008151808452612644816020860160208601612600565b601f01601f19169290920160200192915050565b848152608060208201526000612671608083018661262c565b6040830194909452506001600160a01b039190911660609091015292915050565b60208082526019908201527f5061757361626c653a20696e6465782069732070617573656400000000000000604082015260600190565b6000602082840312156126db57600080fd5b815161232d816124bd565b60208082526052908201527f496e766573746d656e744d616e616765722e6465706f736974496e746f53747260408201527f61746567793a207374616b657220686173206e6f74207065726d697373696f6e606082015271103a37903237903a3434b99030b1ba34b7b760711b608082015260a00190565b634e487b7160e01b600052601160045260246000fd5b60006000198214156127885761278861275e565b5060010190565b634e487b7160e01b600052604160045260246000fd5b634e487b7160e01b600052603260045260246000fd5b8183526000602080850194508260005b858110156127f95781356127de816122bc565b6001600160a01b0316875295820195908201906001016127cb565b509495945050505050565b81835260006001600160fb1b0383111561281d57600080fd5b8260051b8083602087013760009401602001938452509192915050565b6001600160a01b038616815260606020820181905260009061285f90830186886127bb565b8281036040840152612872818587612804565b98975050505050505050565b60608152600061289260608301888a6127bb565b8281036020848101919091528682528791810160005b888110156128d65783356128bb816122bc565b6001600160a01b0316825292820192908201906001016128a8565b5084810360408601526128ea818789612804565b9b9a5050505050505050505050565b60006020828403121561290b57600080fd5b5051919050565b600082198211156129255761292561275e565b500190565b634e487b7160e01b600052602160045260246000fd5b6000828210156129525761295261275e565b500390565b634e487b7160e01b600052603160045260246000fd5b6000825161297f818460208701612600565b9190910192915050565b60208152600061232d602083018461262c56fea2646970667358221220eaf7b281904b20a2578403e1f0850d9848b248e3676cbab28fe7cc2080abdb7364736f6c634300080c0033",
    "linkReferences": {}
  },
  "methodIdentifiers": {
    "DEPOSIT_TYPEHASH()": "48825e94",
    "DOMAIN_SEPARATOR()": "3644e515",
    "DOMAIN_TYPEHASH()": "20606b70",
    "delegation()": "df5cf723",
    "delegatorWithdraw(uint256[],address[],address[],uint256[],bool)": "daa92983",
    "delegatorWithdrawWhiteList(address)": "d80b3f6e",
    "depositIntoStrategy(address,address,uint256)": "e7a050aa",
    "depositIntoStrategyOnBehalfOf(address,address,uint256,address,uint256,bytes32,bytes32)": "6876e790",
    "getDeposits(address)": "94f649dd",
    "initialize(address,address)": "485cc955",
    "investorStratShares(address,address)": "6be2343f",
    "investorStrats(address,uint256)": "c377b906",
    "investorStratsLength(address)": "8e749873",
    "nonces(address)": "7ecebe00",
    "owner()": "8da5cb5b",
    "pause(uint256)": "136439dd",
    "paused()": "5c975abb",
    "paused(uint8)": "5ac86ab7",
    "pauserRegistry()": "886f1195",
    "permissionManager()": "cc7a2049",
    "renounceOwnership()": "715018a6",
    "setDelegatorCanWithdraw(address)": "ae0d7c60",
    "transferOwnership(address)": "f2fde38b",
    "undelegate()": "92ab89bb",
    "unpause(uint256)": "fabc1cbc"
  },
  "id": 2
}