{
  "abi": [
    {
      "inputs": [
        {
          "internalType": "contract IDataLayrServiceManager",
          "name": "_dataLayrServiceManager",
          "type": "address"
        },
        {
          "internalType": "contract IQuorumRegistry",
          "name": "_dlRegistry",
          "type": "address"
        },
        {
          "internalType": "contract DataLayrChallengeUtils",
          "name": "_challengeUtils",
          "type": "address"
        }
      ],
      "stateMutability": "nonpayable",
      "type": "constructor"
    },
    {
      "anonymous": false,
      "inputs": [
        {
          "indexed": false,
          "internalType": "uint8",
          "name": "version",
          "type": "uint8"
        }
      ],
      "name": "Initialized",
      "type": "event"
    },
    {
      "anonymous": false,
      "inputs": [
        {
          "indexed": true,
          "internalType": "bytes32",
          "name": "headerHash",
          "type": "bytes32"
        },
        {
          "indexed": false,
          "internalType": "address",
          "name": "challenger",
          "type": "address"
        }
      ],
      "name": "SuccessfulLowDegreeChallenge",
      "type": "event"
    },
    {
      "inputs": [
        {
          "internalType": "bytes",
          "name": "header",
          "type": "bytes"
        },
        {
          "components": [
            {
              "internalType": "uint256[2]",
              "name": "X",
              "type": "uint256[2]"
            },
            {
              "internalType": "uint256[2]",
              "name": "Y",
              "type": "uint256[2]"
            }
          ],
          "internalType": "struct BN254.G2Point",
          "name": "potElement",
          "type": "tuple"
        },
        {
          "internalType": "bytes",
          "name": "potMerkleProof",
          "type": "bytes"
        },
        {
          "components": [
            {
              "components": [
                {
                  "internalType": "bytes32",
                  "name": "headerHash",
                  "type": "bytes32"
                },
                {
                  "internalType": "uint32",
                  "name": "durationDataStoreId",
                  "type": "uint32"
                },
                {
                  "internalType": "uint32",
                  "name": "globalDataStoreId",
                  "type": "uint32"
                },
                {
                  "internalType": "uint32",
                  "name": "referenceBlockNumber",
                  "type": "uint32"
                },
                {
                  "internalType": "uint32",
                  "name": "blockNumber",
                  "type": "uint32"
                },
                {
                  "internalType": "uint96",
                  "name": "fee",
                  "type": "uint96"
                },
                {
                  "internalType": "address",
                  "name": "confirmer",
                  "type": "address"
                },
                {
                  "internalType": "bytes32",
                  "name": "signatoryRecordHash",
                  "type": "bytes32"
                }
              ],
              "internalType": "struct IDataLayrServiceManager.DataStoreMetadata",
              "name": "metadata",
              "type": "tuple"
            },
            {
              "internalType": "uint8",
              "name": "duration",
              "type": "uint8"
            },
            {
              "internalType": "uint256",
              "name": "timestamp",
              "type": "uint256"
            },
            {
              "internalType": "uint32",
              "name": "index",
              "type": "uint32"
            }
          ],
          "internalType": "struct IDataLayrServiceManager.DataStoreSearchData",
          "name": "dataStoreSearchData",
          "type": "tuple"
        },
        {
          "components": [
            {
              "internalType": "bytes32[]",
              "name": "nonSignerPubkeyHashes",
              "type": "bytes32[]"
            },
            {
              "internalType": "uint256",
              "name": "signedStakeFirstQuorum",
              "type": "uint256"
            },
            {
              "internalType": "uint256",
              "name": "signedStakeSecondQuorum",
              "type": "uint256"
            }
          ],
          "internalType": "struct IDataLayrServiceManager.SignatoryRecordMinusDataStoreId",
          "name": "signatoryRecord",
          "type": "tuple"
        }
      ],
      "name": "challengeLowDegreenessProof",
      "outputs": [],
      "stateMutability": "nonpayable",
      "type": "function"
    },
    {
      "inputs": [],
      "name": "challengeUtils",
      "outputs": [
        {
          "internalType": "contract DataLayrChallengeUtils",
          "name": "",
          "type": "address"
        }
      ],
      "stateMutability": "view",
      "type": "function"
    },
    {
      "inputs": [],
      "name": "dataLayrServiceManager",
      "outputs": [
        {
          "internalType": "contract IDataLayrServiceManager",
          "name": "",
          "type": "address"
        }
      ],
      "stateMutability": "view",
      "type": "function"
    },
    {
      "inputs": [],
      "name": "dlRegistry",
      "outputs": [
        {
          "internalType": "contract IQuorumRegistry",
          "name": "",
          "type": "address"
        }
      ],
      "stateMutability": "view",
      "type": "function"
    },
    {
      "inputs": [
        {
          "components": [
            {
              "internalType": "address",
              "name": "signerAddress",
              "type": "address"
            },
            {
              "internalType": "uint32",
              "name": "operatorHistoryIndex",
              "type": "uint32"
            }
          ],
          "internalType": "struct DataLayrChallenge.NonSignerExclusionProof[]",
          "name": "nonSignerExclusionProofs",
          "type": "tuple[]"
        },
        {
          "internalType": "uint256",
          "name": "nonSignerIndex",
          "type": "uint256"
        },
        {
          "components": [
            {
              "components": [
                {
                  "internalType": "bytes32",
                  "name": "headerHash",
                  "type": "bytes32"
                },
                {
                  "internalType": "uint32",
                  "name": "durationDataStoreId",
                  "type": "uint32"
                },
                {
                  "internalType": "uint32",
                  "name": "globalDataStoreId",
                  "type": "uint32"
                },
                {
                  "internalType": "uint32",
                  "name": "referenceBlockNumber",
                  "type": "uint32"
                },
                {
                  "internalType": "uint32",
                  "name": "blockNumber",
                  "type": "uint32"
                },
                {
                  "internalType": "uint96",
                  "name": "fee",
                  "type": "uint96"
                },
                {
                  "internalType": "address",
                  "name": "confirmer",
                  "type": "address"
                },
                {
                  "internalType": "bytes32",
                  "name": "signatoryRecordHash",
                  "type": "bytes32"
                }
              ],
              "internalType": "struct IDataLayrServiceManager.DataStoreMetadata",
              "name": "metadata",
              "type": "tuple"
            },
            {
              "internalType": "uint8",
              "name": "duration",
              "type": "uint8"
            },
            {
              "internalType": "uint256",
              "name": "timestamp",
              "type": "uint256"
            },
            {
              "internalType": "uint32",
              "name": "index",
              "type": "uint32"
            }
          ],
          "internalType": "struct IDataLayrServiceManager.DataStoreSearchData",
          "name": "searchData",
          "type": "tuple"
        },
        {
          "components": [
            {
              "internalType": "bytes32[]",
              "name": "nonSignerPubkeyHashes",
              "type": "bytes32[]"
            },
            {
              "internalType": "uint256",
              "name": "signedStakeFirstQuorum",
              "type": "uint256"
            },
            {
              "internalType": "uint256",
              "name": "signedStakeSecondQuorum",
              "type": "uint256"
            }
          ],
          "internalType": "struct IDataLayrServiceManager.SignatoryRecordMinusDataStoreId",
          "name": "signatoryRecord",
          "type": "tuple"
        }
      ],
      "name": "freezeOperatorsForLowDegreeChallenge",
      "outputs": [],
      "stateMutability": "nonpayable",
      "type": "function"
    },
    {
      "inputs": [
        {
          "internalType": "bytes32",
          "name": "",
          "type": "bytes32"
        }
      ],
      "name": "lowDegreeChallenges",
      "outputs": [
        {
          "internalType": "address",
          "name": "challenger",
          "type": "address"
        },
        {
          "internalType": "enum DataLayrChallenge.ChallengeStatus",
          "name": "status",
          "type": "uint8"
        }
      ],
      "stateMutability": "view",
      "type": "function"
    },
    {
      "inputs": [],
      "name": "pairingGasLimit",
      "outputs": [
        {
          "internalType": "uint256",
          "name": "",
          "type": "uint256"
        }
      ],
      "stateMutability": "view",
      "type": "function"
    },
    {
      "inputs": [
        {
          "internalType": "bytes",
          "name": "header",
          "type": "bytes"
        },
        {
          "components": [
            {
              "internalType": "uint256[2]",
              "name": "X",
              "type": "uint256[2]"
            },
            {
              "internalType": "uint256[2]",
              "name": "Y",
              "type": "uint256[2]"
            }
          ],
          "internalType": "struct BN254.G2Point",
          "name": "potElement",
          "type": "tuple"
        },
        {
          "internalType": "bytes",
          "name": "potMerkleProof",
          "type": "bytes"
        },
        {
          "components": [
            {
              "internalType": "uint256",
              "name": "X",
              "type": "uint256"
            },
            {
              "internalType": "uint256",
              "name": "Y",
              "type": "uint256"
            }
          ],
          "internalType": "struct BN254.G1Point",
          "name": "lowDegreenessProof",
          "type": "tuple"
        }
      ],
      "name": "verifyLowDegreenessProof",
      "outputs": [
        {
          "internalType": "bool",
          "name": "",
          "type": "bool"
        }
      ],
      "stateMutability": "view",
      "type": "function"
    },
    {
      "inputs": [
        {
          "internalType": "bytes",
          "name": "header",
          "type": "bytes"
        },
        {
          "components": [
            {
              "internalType": "uint256",
              "name": "X",
              "type": "uint256"
            },
            {
              "internalType": "uint256",
              "name": "Y",
              "type": "uint256"
            }
          ],
          "internalType": "struct BN254.G1Point",
          "name": "paddingProof",
          "type": "tuple"
        },
        {
          "components": [
            {
              "internalType": "uint256",
              "name": "X",
              "type": "uint256"
            },
            {
              "internalType": "uint256",
              "name": "Y",
              "type": "uint256"
            }
          ],
          "internalType": "struct BN254.G1Point",
          "name": "paddingQuotientPolyCommit",
          "type": "tuple"
        }
      ],
      "name": "verifyZeroPaddingProof",
      "outputs": [
        {
          "internalType": "bool",
          "name": "",
          "type": "bool"
        }
      ],
      "stateMutability": "nonpayable",
      "type": "function"
    }
  ],
  "bytecode": {
    "object": "0x60e06040523480156200001157600080fd5b5060405162002ef838038062002ef883398101604081905262000034916200013b565b6001600160a01b0380841660805282811660a052811660c0526200005762000060565b5050506200018f565b600054610100900460ff1615620000cd5760405162461bcd60e51b815260206004820152602760248201527f496e697469616c697a61626c653a20636f6e747261637420697320696e697469604482015266616c697a696e6760c81b606482015260840160405180910390fd5b60005460ff908116101562000120576000805460ff191660ff9081179091556040519081527f7f26b83ff96e1f2b6a682f133852f6798a09c465da95921460cefb38474024989060200160405180910390a15b565b6001600160a01b03811681146200013857600080fd5b50565b6000806000606084860312156200015157600080fd5b83516200015e8162000122565b6020850151909350620001718162000122565b6040850151909250620001848162000122565b809150509250925092565b60805160a05160c051612cd0620002286000396000818161015b01528181610615015281816107030152818161095e01528181610a3201528181610aef01528181610c2701528181610d3c015281816115660152818161171501526117bc0152600081816101c101528181611303015261139e01526000818161019a015281816102d601528181610ec501526115ef0152612cd06000f3fe608060405234801561001057600080fd5b50600436106100935760003560e01c80635af4c7b6116100665780635af4c7b61461010057806386df954514610143578063ad78237414610156578063e573231114610195578063e999a1b5146101bc57600080fd5b8063181351ef1461009857806320d8b2cb146100ad5780632568464e146100d55780633d2a75bc146100ed575b600080fd5b6100ab6100a6366004612266565b6101e3565b005b6100c06100bb36600461234a565b610959565b60405190151581526020015b60405180910390f35b6100df6207a12081565b6040519081526020016100cc565b6100ab6100fb3660046123dc565b610ebb565b61013561010e3660046124fa565b6001602052600090815260409020546001600160a01b03811690600160a01b900460ff1682565b6040516100cc929190612529565b6100c0610151366004612564565b61166b565b61017d7f000000000000000000000000000000000000000000000000000000000000000081565b6040516001600160a01b0390911681526020016100cc565b61017d7f000000000000000000000000000000000000000000000000000000000000000081565b61017d7f000000000000000000000000000000000000000000000000000000000000000081565b85856040516101f39291906125f4565b6040519081900390208235146102b95760405162461bcd60e51b815260206004820152607460248201527f446174614c6179724c6f774465677265654368616c6c656e67652e6368616c6c60448201527f656e67654c6f774465677265656e65737350726f6f663a2070726f766964656460648201527f206461746173746f7265207365617263684461746120646f6573206e6f74206d60848201527330ba31b410383937bb34b232b2103432b0b232b960611b60a482015260c4015b60405180910390fd5b6040805180820190915260748701358152609487013560208201527f00000000000000000000000000000000000000000000000000000000000000006001600160a01b031663ba4994b161031561012086016101008701612615565b61012086013561032d61016088016101408901612637565b6040516001600160e01b031960e086901b16815261035293929190899060040161271f565b602060405180830381865afa15801561036f573d6000803e3d6000fd5b505050506040513d601f19601f82011682018060405250810190610393919061274a565b61043f5760405162461bcd60e51b815260206004820152606b60248201527f446174614c6179724368616c6c656e67652e6368616c6c656e67654c6f77446560448201527f677265654865616465723a2050726f7669646564206d6574616461746120646f60648201527f6573206e6f74206d617463682073746f726564206461746173746f7265206d6560848201526a0e8c2c8c2e8c240d0c2e6d60ab1b60a482015260c4016102b0565b600061049e6104546060860160408701612637565b61045e858061276c565b808060200260200160405190810160405280939291908181526020018383602002808284376000920191909152505050506020860135604087013561195e565b905060e084013581146105655760405162461bcd60e51b815260206004820152607b60248201527f446174614c6179724368616c6c656e67652e6c6f774465677265654368616c6c60448201527f656e67653a2070726f7669646564207369676e61746f72795265636f7264486160648201527f736820646f6573206e6f74206d61746368207369676e61746f725265636f726460848201527f4861736820696e2070726f76696465642073656172636844617461000000000060a482015260c4016102b0565b610572888888888661166b565b156105fe5760405162461bcd60e51b815260206004820152605060248201527f446174614c6179724368616c6c656e67652e6c6f774465677265654368616c6c60448201527f656e67653a206c6f77206465677265656e6573732070726f6f6620766572696660648201526f696564207375636365737366756c6c7960801b608482015260a4016102b0565b6040516371a61ceb60e11b81526001600160a01b037f00000000000000000000000000000000000000000000000000000000000000001690630e425d1790829063e34c39d690610654908d908d906004016127b5565b602060405180830381865afa158015610671573d6000803e3d6000fd5b505050506040513d601f19601f8201168201806040525081019061069591906127ef565b6040516001600160e01b031960e084901b16815263ffffffff919091166004820152602401602060405180830381865afa1580156106d7573d6000803e3d6000fd5b505050506040513d601f19601f820116820180604052508101906106fb919061280c565b63ffffffff167f00000000000000000000000000000000000000000000000000000000000000006001600160a01b031663e34c39d68a8a6040518363ffffffff1660e01b815260040161074f9291906127b5565b602060405180830381865afa15801561076c573d6000803e3d6000fd5b505050506040513d601f19601f8201168201806040525081019061079091906127ef565b63ffffffff161461087b5760408051808201825260b48a0135815260d48a0135602080830191909152825180840190935260f48b013583526101148b013590830152906107df8a8a8484610959565b156108785760405162461bcd60e51b815260206004820152605b60248201527f446174614c6179725a65726f50616464696e674368616c6c656e67652e7a657260448201527f6f50616464696e674368616c6c656e67653a207a65726f2070616464696e672060648201527f70726f6f66207665726966696564207375636365737366756c6c790000000000608482015260a4016102b0565b50505b60008460405160200161088e9190612825565b60408051601f1981840301815282825280516020918201208383018352338452600182850181815260008381529382905293909220845181546001600160a01b031981166001600160a01b03909216918217835594519296509093919284926001600160a81b03191690911790600160a01b90849081111561091257610912612513565b0217905550506040513381528291507f91be3139524c3fed7487ce8c6f3b7dda5836580478a4b5bd739199a6825219cd9060200160405180910390a2505050505050505050565b6000807f00000000000000000000000000000000000000000000000000000000000000006001600160a01b0316632a79787087876040518363ffffffff1660e01b81526004016109aa9291906127b5565b60a060405180830381865afa1580156109c7573d6000803e3d6000fd5b505050506040513d601f19601f820116820180604052508101906109eb9190612875565b9050600081606001518260400151610a039190612934565b6040808401519051630e425d1760e01b815263ffffffff90911660048201529091506000906001600160a01b037f00000000000000000000000000000000000000000000000000000000000000001690630e425d1790602401602060405180830381865afa158015610a79573d6000803e3d6000fd5b505050506040513d601f19601f82011682018060405250810190610a9d919061280c565b90506000836040015183610ab19190612972565b63ffffffff1615610ac3576001610ac6565b60005b60ff16846040015184610ad99190612995565b610ae39190612934565b90506001600160a01b037f000000000000000000000000000000000000000000000000000000000000000016630e425d17610b1e83856129b8565b6040516001600160e01b031960e084901b16815263ffffffff919091166004820152602401602060405180830381865afa158015610b60573d6000803e3d6000fd5b505050506040513d601f19601f82011682018060405250810190610b84919061280c565b86516020808901518751805190830151604051959850600096507f30644e72e131a029b85045b68181585d2833e84879b9709143e1f593f000000195610be195940193845260208401929092526040830152606082015260800190565b6040516020818303038152906040528051906020012060001c610c0491906129e4565b9050610c23604051806040016040528060008152602001600081525090565b60007f00000000000000000000000000000000000000000000000000000000000000006001600160a01b031663421052ad876040015163ffffffff1688602001516001610c7091906129f8565b6040516001600160e01b031960e085901b168152600481019290925263ffffffff908116602483015288166044820152606481018690526084016020604051808303816000875af1158015610cc9573d6000803e3d6000fd5b505050506040513d601f19601f82011682018060405250810190610ced919061280c565b9050600086604001516001610d029190612934565b90505b8463ffffffff168163ffffffff161015610e14577f30644e72e131a029b85045b68181585d2833e84879b9709143e1f593f00000017f00000000000000000000000000000000000000000000000000000000000000006001600160a01b031663421052ad8363ffffffff168a602001516001610d8191906129f8565b6040516001600160e01b031960e085901b168152600481019290925263ffffffff90811660248301528a166044820152606481018890526084016020604051808303816000875af1158015610dda573d6000803e3d6000fd5b505050506040513d601f19601f82011682018060405250810190610dfe919061280c565b8309915080610e0c81612a19565b915050610d05565b50610e1f8882611997565b915050610e3f604051806040016040528060008152602001600081525090565b610e498984611997565b9050610e59818760000151611a2e565b9050610e6d81610e6884611ac2565b611a2e565b90506000610e79611b81565b90506000610e85611c41565b9050600080610e9a8d8487876207a120611d01565b91509150818015610ea85750805b9f9e505050505050505050505050505050565b6001600160a01b037f00000000000000000000000000000000000000000000000000000000000000001663ba4994b1610efc61012085016101008601612615565b610120850135610f1461016087016101408801612637565b6040516001600160e01b031960e086901b168152610f3993929190889060040161271f565b602060405180830381865afa158015610f56573d6000803e3d6000fd5b505050506040513d601f19601f82011682018060405250810190610f7a919061274a565b6110385760405162461bcd60e51b815260206004820152608060248201527f446174614c6179724c6f774465677265654368616c6c656e67652e667265657a60448201527f654f70657261746f7273466f724c6f774465677265654368616c6c656e67653a60648201527f2050726f7669646564206d6574616461746120646f6573206e6f74206d61746360848201527f682073746f726564206461746173746f7265206d65746164617461206861736860a482015260c4016102b0565b600061109761104d6060850160408601612637565b611057848061276c565b808060200260200160405190810160405280939291908181526020018383602002808284376000920191909152505050506020850135604086013561195e565b905060e0830135811461117d5760405162461bcd60e51b815260206004820152609660248201527f446174614c6179724c6f774465677265654368616c6c656e67652e667265657a60448201527f654f70657261746f7273466f724c6f774465677265654368616c6c656e67653a60648201527f2070726f7669646564207369676e61746f72795265636f72644861736820646f60848201527f6573206e6f74206d61746368207369676e61746f725265636f7264486173682060a482015275696e2070726f7669646564207365617263684461746160501b60c482015260e4016102b0565b6000836040516020016111909190612825565b60408051601f19818403018152919052805160209091012090506001600082815260016020819052604090912054600160a01b900460ff16908111156111d8576111d8612513565b1461128e5760405162461bcd60e51b815260206004820152607460248201527f446174614c6179724c6f774465677265654368616c6c656e67652e667265657a60448201527f654f70657261746f7273466f724c6f774465677265654368616c6c656e67653a60648201527f20204461746153746f726520686173206e6f7420796574206265656e2073756360848201527318d95cdcd99d5b1b1e4818da185b1b195b99d95960621b60a482015260c4016102b0565b60005b86518110156116625760008782815181106112ae576112ae612a3d565b602002602001015160000151905060008883815181106112d0576112d0612a3d565b6020908102919091018101510151604051637e86c98560e11b81526001600160a01b0384811660048301529192506000917f0000000000000000000000000000000000000000000000000000000000000000169063fd0d930a90602401602060405180830381865afa15801561134a573d6000803e3d6000fd5b505050506040513d601f19601f8201168201806040525081019061136e919061280c565b604051632173fa2360e01b81526004810182905263ffffffff841660248201529091506000906001600160a01b037f00000000000000000000000000000000000000000000000000000000000000001690632173fa2390604401608060405180830381865afa1580156113e5573d6000803e3d6000fd5b505050506040513d601f19601f820116820180604052508101906114099190612a53565b905061141b60808a0160608b01612637565b63ffffffff16816000015163ffffffff161115801561146b575061144560808a0160608b01612637565b63ffffffff16816020015163ffffffff1610158061146b5750602081015163ffffffff16155b61153e5760405162461bcd60e51b815260206004820152608c60248201527f446174614c6179724368616c6c656e6765426173652e667265657a654f70657260448201527f61746f7273466f724c6f774465677265654368616c6c656e67653a206f70657260648201527f61746f7220776173206e6f742061637469766520647572696e6720626c6f636b60848201527f4e756d62657220737065636966696564206279206461746153746f726549642060a48201526b05e40d0cac2c8cae490c2e6d60a31b60c482015260e4016102b0565b611548888061276c565b1590506115d05760405163c1e3286160e01b81526001600160a01b037f0000000000000000000000000000000000000000000000000000000000000000169063c1e328619061159f9085908e908d90600401612ad7565b60006040518083038186803b1580156115b757600080fd5b505afa1580156115cb573d6000803e3d6000fd5b505050505b604051630e323b9960e21b81526001600160a01b0385811660048301527f000000000000000000000000000000000000000000000000000000000000000016906338c8ee6490602401600060405180830381600087803b15801561163357600080fd5b505af1158015611647573d6000803e3d6000fd5b5050505050505050808061165a90612b81565b915050611291565b50505050505050565b6000601c6020845161167d9190612b9c565b146116fb5760405162461bcd60e51b815260206004820152604260248201527f446174614c6179724368616c6c656e67652e7665726966794c6f77446567726560448201527f656e65737350726f6f663a20696e636f72726563742070726f6f66206c656e676064820152610e8d60f31b608482015260a4016102b0565b6040516302a7978760e41b81526000906001600160a01b037f00000000000000000000000000000000000000000000000000000000000000001690632a7978709061174c908a908a906004016127b5565b60a060405180830381865afa158015611769573d6000803e3d6000fd5b505050506040513d601f19601f8201168201806040525081019061178d9190612875565b6040808201519051630e425d1760e01b815263ffffffff90911660048201529091506000906001600160a01b037f00000000000000000000000000000000000000000000000000000000000000001690630e425d1790602401602060405180830381865afa158015611803573d6000803e3d6000fd5b505050506040513d601f19601f82011682018060405250810190611827919061280c565b826020015165ffffffffffff1661183e9190612bb0565b61184c906310000000612bcf565b8651602080890151604051939450600093611868939201612c0f565b6040516020818303038152906040528051906020012090506118af867f22c998e49752bbb1918ba87d6d59dd0e83620a311ba91dd4b2cc84990b31b56f60001b8385611f25565b6119215760405162461bcd60e51b815260206004820152603d60248201527f446174614c6179724368616c6c656e67652e70726f76654c6f7744656772656560448201527f6e6573733a20506f54206d65726b6c652070726f6f66206661696c656400000060648201526084016102b0565b60008061193f85600001518a89611936611b81565b6207a120611d01565b9150915081801561194d5750805b955050505050505b95945050505050565b6000848484846040516020016119779493929190612c2f565b604051602081830303815290604052805190602001209050949350505050565b60408051808201909152600080825260208201526119b3611fab565b835181526020808501519082015260408082018490526000908360608460076107d05a03fa90508080156119e6576119e8565bfe5b5080611a265760405162461bcd60e51b815260206004820152600d60248201526c1958cb5b5d5b0b59985a5b1959609a1b60448201526064016102b0565b505092915050565b6040805180820190915260008082526020820152611a4a611fc9565b835181526020808501518183015283516040808401919091529084015160608301526000908360808460066107d05a03fa90508080156119e6575080611a265760405162461bcd60e51b815260206004820152600d60248201526c1958cb5859190b59985a5b1959609a1b60448201526064016102b0565b60408051808201909152600080825260208201528151158015611ae757506020820151155b15611b05575050604080518082019091526000808252602082015290565b6040518060400160405280836000015181526020017f30644e72e131a029b85045b68181585d97816a916871ca8d3c208c16d87cfd478460200151611b4a91906129e4565b611b74907f30644e72e131a029b85045b68181585d97816a916871ca8d3c208c16d87cfd47612bcf565b905292915050565b919050565b611b89611fe7565b50604080516080810182527f198e9393920d483a7260bfb731fb5d25f1aa493335a9e71297e485b7aef312c28183019081527f1800deef121f1e76426a00665e5c4479674322d4f75edadd46debd5cd992f6ed6060830152815281518083019092527f275dc4a288d1afb3cbb1ac09187524c7db36395df7be3b99e673b13a075a65ec82527f1d9befcd05a5323e6da4d435f3b617cdb3af83285c2df711ef39c01571827f9d60208381019190915281019190915290565b611c49611fe7565b50604080516080810182527f2e8410cfc6daee438a7015943ab15798172fcf3e155739205071ccfd3c20644c8183019081527f117e35dc7b1be323481a94c23a4dfee6100a79c2a38bfcaf562efe20281f1cb36060830152815281518083019092527f10c5cd069ed09502ddf37aeb98e6f876194678bcb34957fb57eee156ff8a218382527f29565b8f163088a5fe2d16f59527599a40d3bc47702d19569aacc02c8d9a1f3f60208381019190915281019190915290565b604080518082018252868152602080820186905282518084019093528683528201849052600091829190611d3361200c565b60005b6002811015611ef8576000611d4c826006612bb0565b9050848260028110611d6057611d60612a3d565b60200201515183611d72836000612c82565b600c8110611d8257611d82612a3d565b6020020152848260028110611d9957611d99612a3d565b60200201516020015183826001611db09190612c82565b600c8110611dc057611dc0612a3d565b6020020152838260028110611dd757611dd7612a3d565b6020020151515183611dea836002612c82565b600c8110611dfa57611dfa612a3d565b6020020152838260028110611e1157611e11612a3d565b6020020151516001602002015183611e2a836003612c82565b600c8110611e3a57611e3a612a3d565b6020020152838260028110611e5157611e51612a3d565b602002015160200151600060028110611e6c57611e6c612a3d565b602002015183611e7d836004612c82565b600c8110611e8d57611e8d612a3d565b6020020152838260028110611ea457611ea4612a3d565b602002015160200151600160028110611ebf57611ebf612a3d565b602002015183611ed0836005612c82565b600c8110611ee057611ee0612a3d565b60200201525080611ef081612b81565b915050611d36565b50611f0161202b565b60006020826101808560088cfa9151919c9115159b50909950505050505050505050565b600083611f33868585611f3d565b1495945050505050565b60008260205b85518111611fa257611f566002856129e4565b611f7757816000528086015160205260406000209150600284049350611f90565b8086015160005281602052604060002091506002840493505b611f9b602082612c82565b9050611f43565b50949350505050565b60405180606001604052806003906020820280368337509192915050565b60405180608001604052806004906020820280368337509192915050565b6040518060400160405280611ffa612049565b8152602001612007612049565b905290565b604051806101800160405280600c906020820280368337509192915050565b60405180602001604052806001906020820280368337509192915050565b60405180604001604052806002906020820280368337509192915050565b60008083601f84011261207957600080fd5b5081356001600160401b0381111561209057600080fd5b6020830191508360208285010111156120a857600080fd5b9250929050565b634e487b7160e01b600052604160045260246000fd5b604080519081016001600160401b03811182821017156120e7576120e76120af565b60405290565b604051601f8201601f191681016001600160401b0381118282101715612115576121156120af565b604052919050565b600082601f83011261212e57600080fd5b604051604081018181106001600160401b0382111715612150576121506120af565b806040525080604084018581111561216757600080fd5b845b81811015612181578035835260209283019201612169565b509195945050505050565b60006080828403121561219e57600080fd5b6121a66120c5565b90506121b2838361211d565b81526121c1836040840161211d565b602082015292915050565b600082601f8301126121dd57600080fd5b81356001600160401b038111156121f6576121f66120af565b612209601f8201601f19166020016120ed565b81815284602083860101111561221e57600080fd5b816020850160208301376000918101602001919091529392505050565b6000610160828403121561224e57600080fd5b50919050565b60006060828403121561224e57600080fd5b600080600080600080610240878903121561228057600080fd5b86356001600160401b038082111561229757600080fd5b6122a38a838b01612067565b90985096508691506122b88a60208b0161218c565b955060a08901359150808211156122ce57600080fd5b6122da8a838b016121cc565b94506122e98a60c08b0161223b565b935061022089013591508082111561230057600080fd5b5061230d89828a01612254565b9150509295509295509295565b60006040828403121561232c57600080fd5b6123346120c5565b9050813581526020820135602082015292915050565b60008060008060a0858703121561236057600080fd5b84356001600160401b0381111561237657600080fd5b61238287828801612067565b90955093506123969050866020870161231a565b91506123a5866060870161231a565b905092959194509250565b80356001600160a01b0381168114611b7c57600080fd5b63ffffffff811681146123d957600080fd5b50565b6000806000806101c085870312156123f357600080fd5b84356001600160401b038082111561240a57600080fd5b818701915087601f83011261241e57600080fd5b8135602082821115612432576124326120af565b612440818360051b016120ed565b82815260069290921b8401810191818101908b84111561245f57600080fd5b948201945b838610156124b3576040868d03121561247d5760008081fd5b6124856120c5565b61248e876123b0565b81528387013561249d816123c7565b8185015282526040959095019490820190612464565b98505088013595506124ca9050886040890161223b565b93506101a08701359150808211156124e157600080fd5b506124ee87828801612254565b91505092959194509250565b60006020828403121561250c57600080fd5b5035919050565b634e487b7160e01b600052602160045260246000fd5b6001600160a01b0383168152604081016002831061255757634e487b7160e01b600052602160045260246000fd5b8260208301529392505050565b6000806000806000610100868803121561257d57600080fd5b85356001600160401b038082111561259457600080fd5b6125a089838a01612067565b90975095508591506125b58960208a0161218c565b945060a08801359150808211156125cb57600080fd5b506125d8888289016121cc565b9250506125e88760c0880161231a565b90509295509295909350565b8183823760009101908152919050565b803560ff81168114611b7c57600080fd5b60006020828403121561262757600080fd5b61263082612604565b9392505050565b60006020828403121561264957600080fd5b8135612630816123c7565b6bffffffffffffffffffffffff811681146123d957600080fd5b8035611b7c81612654565b80358252602081013561268b816123c7565b63ffffffff90811660208401526040820135906126a7826123c7565b90811660408401526060820135906126be826123c7565b90811660608401526080820135906126d5826123c7565b1660808301526126e760a0820161266e565b6bffffffffffffffffffffffff1660a083015261270660c082016123b0565b6001600160a01b031660c083015260e090810135910152565b60ff851681526020810184905263ffffffff8316604082015261016081016119556060830184612679565b60006020828403121561275c57600080fd5b8151801515811461263057600080fd5b6000808335601e1984360301811261278357600080fd5b8301803591506001600160401b0382111561279d57600080fd5b6020019150600581901b36038213156120a857600080fd5b60208152816020820152818360408301376000818301604090810191909152601f909201601f19160101919050565b8051611b7c816123c7565b60006020828403121561280157600080fd5b8151612630816123c7565b60006020828403121561281e57600080fd5b5051919050565b61016081016128348284612679565b61010060ff612844828601612604565b1690830152610120838101359083015261014080840135612864816123c7565b63ffffffff16920191909152919050565b600081830360a081121561288857600080fd5b604051608081018181106001600160401b03821117156128aa576128aa6120af565b60409081528212156128bb57600080fd5b6128c36120c5565b845181526020808601519082015281526040840151915065ffffffffffff821682146128ee57600080fd5b816020820152612900606085016127e4565b6040820152612911608085016127e4565b6060820152949350505050565b634e487b7160e01b600052601160045260246000fd5b600063ffffffff8083168185168083038211156129535761295361291e565b01949350505050565b634e487b7160e01b600052601260045260246000fd5b600063ffffffff808416806129895761298961295c565b92169190910692915050565b600063ffffffff808416806129ac576129ac61295c565b92169190910492915050565b600063ffffffff808316818516818304811182151516156129db576129db61291e565b02949350505050565b6000826129f3576129f361295c565b500690565b600065ffffffffffff8083168185168083038211156129535761295361291e565b600063ffffffff80831681811415612a3357612a3361291e565b6001019392505050565b634e487b7160e01b600052603260045260246000fd5b600060808284031215612a6557600080fd5b604051608081018181106001600160401b0382111715612a8757612a876120af565b6040528251612a95816123c7565b81526020830151612aa5816123c7565b60208201526040830151612ab881612654565b60408201526060830151612acb81612654565b60608201529392505050565b8381528260208201526060604082015260008235601e19843603018112612afd57600080fd5b830180356001600160401b03811115612b1557600080fd5b8060051b803603861315612b2857600080fd5b60608581015260c085018290526001600160fb1b03821115612b4957600080fd5b806020840160e087013760e081860101925050506000815260208401356080840152604084013560a084015280915050949350505050565b6000600019821415612b9557612b9561291e565b5060010190565b600082612bab57612bab61295c565b500490565b6000816000190483118215151615612bca57612bca61291e565b500290565b600082821015612be157612be161291e565b500390565b8060005b6002811015612c09578151845260209384019390910190600101612bea565b50505050565b612c198184612be6565b612c266040820183612be6565b60800192915050565b63ffffffff60e01b8560e01b1681526000600482018551602080880160005b83811015612c6a57815185529382019390820190600101612c4e565b50509582525093840192909252505060400192915050565b60008219821115612c9557612c9561291e565b50019056fea26469706673582212201eb8b96fd145f7f4c2c70faa8566bbf7483354862a417bdf6b2c54874d60a57664736f6c634300080c0033",
    "linkReferences": {}
  },
  "methodIdentifiers": {
    "challengeLowDegreenessProof(bytes,(uint256[2],uint256[2]),bytes,((bytes32,uint32,uint32,uint32,uint32,uint96,address,bytes32),uint8,uint256,uint32),(bytes32[],uint256,uint256))": "181351ef",
    "challengeUtils()": "ad782374",
    "dataLayrServiceManager()": "e5732311",
    "dlRegistry()": "e999a1b5",
    "freezeOperatorsForLowDegreeChallenge((address,uint32)[],uint256,((bytes32,uint32,uint32,uint32,uint32,uint96,address,bytes32),uint8,uint256,uint32),(bytes32[],uint256,uint256))": "3d2a75bc",
    "lowDegreeChallenges(bytes32)": "5af4c7b6",
    "pairingGasLimit()": "2568464e",
    "verifyLowDegreenessProof(bytes,(uint256[2],uint256[2]),bytes,(uint256,uint256))": "86df9545",
    "verifyZeroPaddingProof(bytes,(uint256,uint256),(uint256,uint256))": "20d8b2cb"
  },
  "id": 112
}