{
  "address": "0xa83239cf2b900682001f9144144B5E5e5788A631",
  "abi": [
    {
      "inputs": [],
      "name": "foo",
      "outputs": [
        {
          "internalType": "uint256",
          "name": "",
          "type": "uint256"
        }
      ],
      "stateMutability": "pure",
      "type": "function"
    }
  ],
  "transactionHash": "0x89abf621a683cf8f43484ae70d3b53320d99ed8606a35da5e367dbac7612db17",
  "args": [],
  "numDeployments": 1,
  "solcInputHash": "fe99b601f5497e13bda09b4a1462ee32",
  "bytecode": "0x6080604052348015600f57600080fd5b50607780601d6000396000f3fe6080604052348015600f57600080fd5b506004361060285760003560e01c8063c298557814602d575b600080fd5b600060405190815260200160405180910390f3fea2646970667358221220b72a61a19498172c16e3dd47e923813a716c2b1749272efe87dc903ee958638864736f6c63430008090033",
  "devdoc": {
    "kind": "dev",
    "methods": {},
    "version": 1
  },
  "userdoc": {
    "kind": "user",
    "methods": {},
    "version": 1
  },
  "storageLayout": {
    "storage": [],
    "types": null
  }
}