{
  "abi": [
    {
      "inputs": [],
      "name": "foo",
      "outputs": [
        {
          "internalType": "uint256",
          "name": "",
          "type": "uint256"
        }
      ],
      "stateMutability": "pure",
      "type": "function"
    }
  ],
  "bytecode": {
    "object": "0x6080604052348015600f57600080fd5b50607780601d6000396000f3fe6080604052348015600f57600080fd5b506004361060285760003560e01c8063c298557814602d575b600080fd5b600060405190815260200160405180910390f3fea264697066735822122057e81d1beec347ee1ab91ed22e6aa82653eeeda30a7a7d2b8c72e7b7c7916fac64736f6c634300080c0033",
    "linkReferences": {}
  },
  "methodIdentifiers": {
    "foo()": "c2985578"
  },
  "id": 88
}