{
  "abi": [
    {
      "inputs": [
        {
          "internalType": "contract IDataLayrServiceManager",
          "name": "_dlsm",
          "type": "address"
        },
        {
          "internalType": "contract IQuorumRegistry",
          "name": "_dlRegistry",
          "type": "address"
        },
        {
          "internalType": "contract DataLayrChallengeUtils",
          "name": "_challengeUtils",
          "type": "address"
        }
      ],
      "stateMutability": "nonpayable",
      "type": "constructor"
    },
    {
      "anonymous": false,
      "inputs": [
        {
          "indexed": false,
          "internalType": "uint8",
          "name": "version",
          "type": "uint8"
        }
      ],
      "name": "Initialized",
      "type": "event"
    },
    {
      "inputs": [],
      "name": "BOMB_FRAUDRPOOF_INTERVAL",
      "outputs": [
        {
          "internalType": "uint256",
          "name": "",
          "type": "uint256"
        }
      ],
      "stateMutability": "view",
      "type": "function"
    },
    {
      "inputs": [],
      "name": "BOMB_THRESHOLD",
      "outputs": [
        {
          "internalType": "uint256",
          "name": "",
          "type": "uint256"
        }
      ],
      "stateMutability": "view",
      "type": "function"
    },
    {
      "inputs": [],
      "name": "challengeUtils",
      "outputs": [
        {
          "internalType": "contract DataLayrChallengeUtils",
          "name": "",
          "type": "address"
        }
      ],
      "stateMutability": "view",
      "type": "function"
    },
    {
      "inputs": [],
      "name": "dlRegistry",
      "outputs": [
        {
          "internalType": "contract IQuorumRegistry",
          "name": "",
          "type": "address"
        }
      ],
      "stateMutability": "view",
      "type": "function"
    },
    {
      "inputs": [],
      "name": "dlsm",
      "outputs": [
        {
          "internalType": "contract IDataLayrServiceManager",
          "name": "",
          "type": "address"
        }
      ],
      "stateMutability": "view",
      "type": "function"
    },
    {
      "inputs": [
        {
          "internalType": "address",
          "name": "operator",
          "type": "address"
        },
        {
          "components": [
            {
              "components": [
                {
                  "components": [
                    {
                      "internalType": "bytes32",
                      "name": "headerHash",
                      "type": "bytes32"
                    },
                    {
                      "internalType": "uint32",
                      "name": "durationDataStoreId",
                      "type": "uint32"
                    },
                    {
                      "internalType": "uint32",
                      "name": "globalDataStoreId",
                      "type": "uint32"
                    },
                    {
                      "internalType": "uint32",
                      "name": "referenceBlockNumber",
                      "type": "uint32"
                    },
                    {
                      "internalType": "uint32",
                      "name": "blockNumber",
                      "type": "uint32"
                    },
                    {
                      "internalType": "uint96",
                      "name": "fee",
                      "type": "uint96"
                    },
                    {
                      "internalType": "address",
                      "name": "confirmer",
                      "type": "address"
                    },
                    {
                      "internalType": "bytes32",
                      "name": "signatoryRecordHash",
                      "type": "bytes32"
                    }
                  ],
                  "internalType": "struct IDataLayrServiceManager.DataStoreMetadata",
                  "name": "metadata",
                  "type": "tuple"
                },
                {
                  "internalType": "uint8",
                  "name": "duration",
                  "type": "uint8"
                },
                {
                  "internalType": "uint256",
                  "name": "timestamp",
                  "type": "uint256"
                },
                {
                  "internalType": "uint32",
                  "name": "index",
                  "type": "uint32"
                }
              ],
              "internalType": "struct IDataLayrServiceManager.DataStoreSearchData",
              "name": "operatorFromDataStore",
              "type": "tuple"
            },
            {
              "components": [
                {
                  "components": [
                    {
                      "internalType": "bytes32",
                      "name": "headerHash",
                      "type": "bytes32"
                    },
                    {
                      "internalType": "uint32",
                      "name": "durationDataStoreId",
                      "type": "uint32"
                    },
                    {
                      "internalType": "uint32",
                      "name": "globalDataStoreId",
                      "type": "uint32"
                    },
                    {
                      "internalType": "uint32",
                      "name": "referenceBlockNumber",
                      "type": "uint32"
                    },
                    {
                      "internalType": "uint32",
                      "name": "blockNumber",
                      "type": "uint32"
                    },
                    {
                      "internalType": "uint96",
                      "name": "fee",
                      "type": "uint96"
                    },
                    {
                      "internalType": "address",
                      "name": "confirmer",
                      "type": "address"
                    },
                    {
                      "internalType": "bytes32",
                      "name": "signatoryRecordHash",
                      "type": "bytes32"
                    }
                  ],
                  "internalType": "struct IDataLayrServiceManager.DataStoreMetadata",
                  "name": "metadata",
                  "type": "tuple"
                },
                {
                  "internalType": "uint8",
                  "name": "duration",
                  "type": "uint8"
                },
                {
                  "internalType": "uint256",
                  "name": "timestamp",
                  "type": "uint256"
                },
                {
                  "internalType": "uint32",
                  "name": "index",
                  "type": "uint32"
                }
              ],
              "internalType": "struct IDataLayrServiceManager.DataStoreSearchData[]",
              "name": "bombDataStores",
              "type": "tuple[]"
            },
            {
              "components": [
                {
                  "components": [
                    {
                      "internalType": "bytes32",
                      "name": "headerHash",
                      "type": "bytes32"
                    },
                    {
                      "internalType": "uint32",
                      "name": "durationDataStoreId",
                      "type": "uint32"
                    },
                    {
                      "internalType": "uint32",
                      "name": "globalDataStoreId",
                      "type": "uint32"
                    },
                    {
                      "internalType": "uint32",
                      "name": "referenceBlockNumber",
                      "type": "uint32"
                    },
                    {
                      "internalType": "uint32",
                      "name": "blockNumber",
                      "type": "uint32"
                    },
                    {
                      "internalType": "uint96",
                      "name": "fee",
                      "type": "uint96"
                    },
                    {
                      "internalType": "address",
                      "name": "confirmer",
                      "type": "address"
                    },
                    {
                      "internalType": "bytes32",
                      "name": "signatoryRecordHash",
                      "type": "bytes32"
                    }
                  ],
                  "internalType": "struct IDataLayrServiceManager.DataStoreMetadata",
                  "name": "metadata",
                  "type": "tuple"
                },
                {
                  "internalType": "uint8",
                  "name": "duration",
                  "type": "uint8"
                },
                {
                  "internalType": "uint256",
                  "name": "timestamp",
                  "type": "uint256"
                },
                {
                  "internalType": "uint32",
                  "name": "index",
                  "type": "uint32"
                }
              ],
              "internalType": "struct IDataLayrServiceManager.DataStoreSearchData",
              "name": "detonationDataStore",
              "type": "tuple"
            }
          ],
          "internalType": "struct DataLayrBombVerifier.DataStoreProofs",
          "name": "dataStoreProofs",
          "type": "tuple"
        },
        {
          "components": [
            {
              "internalType": "uint32",
              "name": "operatorIndex",
              "type": "uint32"
            },
            {
              "internalType": "uint32",
              "name": "totalOperatorsIndex",
              "type": "uint32"
            },
            {
              "internalType": "uint256",
              "name": "detonationNonSignerIndex",
              "type": "uint256"
            },
            {
              "internalType": "uint256[]",
              "name": "successiveSignerIndexes",
              "type": "uint256[]"
            }
          ],
          "internalType": "struct DataLayrBombVerifier.Indexes",
          "name": "indexes",
          "type": "tuple"
        },
        {
          "components": [
            {
              "internalType": "bytes32[]",
              "name": "nonSignerPubkeyHashes",
              "type": "bytes32[]"
            },
            {
              "internalType": "uint256",
              "name": "signedStakeFirstQuorum",
              "type": "uint256"
            },
            {
              "internalType": "uint256",
              "name": "signedStakeSecondQuorum",
              "type": "uint256"
            }
          ],
          "internalType": "struct IDataLayrServiceManager.SignatoryRecordMinusDataStoreId[]",
          "name": "signatoryRecords",
          "type": "tuple[]"
        },
        {
          "components": [
            {
              "internalType": "uint256",
              "name": "timestamp",
              "type": "uint256"
            },
            {
              "internalType": "uint32",
              "name": "index",
              "type": "uint32"
            },
            {
              "components": [
                {
                  "internalType": "bytes32",
                  "name": "headerHash",
                  "type": "bytes32"
                },
                {
                  "internalType": "uint32",
                  "name": "durationDataStoreId",
                  "type": "uint32"
                },
                {
                  "internalType": "uint32",
                  "name": "globalDataStoreId",
                  "type": "uint32"
                },
                {
                  "internalType": "uint32",
                  "name": "referenceBlockNumber",
                  "type": "uint32"
                },
                {
                  "internalType": "uint32",
                  "name": "blockNumber",
                  "type": "uint32"
                },
                {
                  "internalType": "uint96",
                  "name": "fee",
                  "type": "uint96"
                },
                {
                  "internalType": "address",
                  "name": "confirmer",
                  "type": "address"
                },
                {
                  "internalType": "bytes32",
                  "name": "signatoryRecordHash",
                  "type": "bytes32"
                }
              ],
              "internalType": "struct IDataLayrServiceManager.DataStoreMetadata",
              "name": "metadata",
              "type": "tuple"
            }
          ],
          "internalType": "struct DataLayrBombVerifier.DataStoresForDuration[2][2][]",
          "name": "sandwichProofs",
          "type": "tuple[2][2][]"
        },
        {
          "components": [
            {
              "internalType": "bytes",
              "name": "header",
              "type": "bytes"
            },
            {
              "internalType": "bytes",
              "name": "poly",
              "type": "bytes"
            },
            {
              "components": [
                {
                  "components": [
                    {
                      "internalType": "uint256",
                      "name": "X",
                      "type": "uint256"
                    },
                    {
                      "internalType": "uint256",
                      "name": "Y",
                      "type": "uint256"
                    }
                  ],
                  "internalType": "struct BN254.G1Point",
                  "name": "interpolationPoly",
                  "type": "tuple"
                },
                {
                  "components": [
                    {
                      "internalType": "uint256",
                      "name": "X",
                      "type": "uint256"
                    },
                    {
                      "internalType": "uint256",
                      "name": "Y",
                      "type": "uint256"
                    }
                  ],
                  "internalType": "struct BN254.G1Point",
                  "name": "revealProof",
                  "type": "tuple"
                },
                {
                  "components": [
                    {
                      "internalType": "uint256[2]",
                      "name": "X",
                      "type": "uint256[2]"
                    },
                    {
                      "internalType": "uint256[2]",
                      "name": "Y",
                      "type": "uint256[2]"
                    }
                  ],
                  "internalType": "struct BN254.G2Point",
                  "name": "zeroPoly",
                  "type": "tuple"
                },
                {
                  "internalType": "bytes",
                  "name": "zeroPolyProof",
                  "type": "bytes"
                }
              ],
              "internalType": "struct DataLayrChallengeUtils.MultiRevealProof",
              "name": "multiRevealProof",
              "type": "tuple"
            },
            {
              "components": [
                {
                  "internalType": "uint256[2]",
                  "name": "X",
                  "type": "uint256[2]"
                },
                {
                  "internalType": "uint256[2]",
                  "name": "Y",
                  "type": "uint256[2]"
                }
              ],
              "internalType": "struct BN254.G2Point",
              "name": "polyEquivalenceProof",
              "type": "tuple"
            }
          ],
          "internalType": "struct DataLayrBombVerifier.DisclosureProof",
          "name": "disclosureProof",
          "type": "tuple"
        },
        {
          "components": [
            {
              "internalType": "uint256",
              "name": "operatorActiveFromBlockNumber",
              "type": "uint256"
            },
            {
              "internalType": "uint256",
              "name": "stakeHistoryIndex",
              "type": "uint256"
            }
          ],
          "internalType": "struct DataLayrBombVerifier.VerificationData",
          "name": "verificationData",
          "type": "tuple"
        }
      ],
      "name": "verifyBomb",
      "outputs": [],
      "stateMutability": "nonpayable",
      "type": "function"
    }
  ],
  "bytecode": {
    "object": "0x60e06040523480156200001157600080fd5b5060405162003a1e38038062003a1e83398101604081905262000034916200013b565b6001600160a01b0380841660805282811660a052811660c0526200005762000060565b5050506200018f565b600054610100900460ff1615620000cd5760405162461bcd60e51b815260206004820152602760248201527f496e697469616c697a61626c653a20636f6e747261637420697320696e697469604482015266616c697a696e6760c81b606482015260840160405180910390fd5b60005460ff908116101562000120576000805460ff191660ff9081179091556040519081527f7f26b83ff96e1f2b6a682f133852f6798a09c465da95921460cefb38474024989060200160405180910390a15b565b6001600160a01b03811681146200013857600080fd5b50565b6000806000606084860312156200015157600080fd5b83516200015e8162000122565b6020850151909350620001718162000122565b6040850151909250620001848162000122565b809150509250925092565b60805160a05160c0516137d6620002486000396000818160c801528181610c6201528181610ea9015261196701526000818160ef0152818161027b015281816103a30152818161122b0152818161232a01526123e8015260008181606c015281816110ae0152818161113a0152818161137301528181611afa01528181611bc501528181611c9801528181611de101528181611f090152818161219001528181612665015281816128570152612abc01526137d66000f3fe608060405234801561001057600080fd5b50600436106100625760003560e01c806329c8beb114610067578063a656a3bd146100ab578063ad782374146100c3578063e999a1b5146100ea578063f94a9fd314610111578063fa67b8c314610119575b600080fd5b61008e7f000000000000000000000000000000000000000000000000000000000000000081565b6040516001600160a01b0390911681526020015b60405180910390f35b6100b562093a8081565b6040519081526020016100a2565b61008e7f000000000000000000000000000000000000000000000000000000000000000081565b61008e7f000000000000000000000000000000000000000000000000000000000000000081565b6100b561012e565b61012c610127366004612d7d565b61013d565b005b61013a60f96002612f76565b81565b61014688611117565b6101bd5760405162461bcd60e51b8152602060048201526049602482015260008051602061378183398151915260448201527f206f70657261746f7246726f6d206d6574616461746120707265696d616765206064820152681a5b98dbdc9c9958dd60ba1b608482015260a4015b60405180910390fd5b6101ca8861018001611117565b61023a5760405162461bcd60e51b8152602060048201526047602482015260008051602061378183398151915260448201527f206465746f6e6174696f6e206d6574616461746120707265696d61676520696e60648201526618dbdc9c9958dd60ca1b608482015260a4016101b4565b60006102488a8a8787611205565b60405163314d989560e11b81526001600160a01b038c8116600483015284356024830152602085013560448301529192507f00000000000000000000000000000000000000000000000000000000000000009091169063629b312a90606401602060405180830381865afa1580156102c4573d6000803e3d6000fd5b505050506040513d601f19601f820116820180604052508101906102e89190612f82565b6103815760405162461bcd60e51b815260206004820152606a602482015260008051602061378183398151915260448201527f206f70657261746f7220776173206e6f7420616374697665206174207665726960648201527f6669636174696f6e446174612e6f70657261746f7241637469766546726f6d426084820152693637b1b5a73ab6b132b960b11b60a482015260c4016101b4565b604051637e86c98560e11b81526001600160a01b038b811660048301526000917f00000000000000000000000000000000000000000000000000000000000000009091169063fd0d930a90602401602060405180830381865afa1580156103ec573d6000803e3d6000fd5b505050506040513d601f19601f820116820180604052508101906104109190612fab565b9050600060016104246101608d018d612fc4565b61042f92915061300e565b905060005b818110156108935763ffffffff84166104516101608e018e612fc4565b8381811061046157610461613025565b61047b92606061016090920201908101915060400161305b565b63ffffffff16146104f05760405162461bcd60e51b815260206004820152604460248201819052600080516020613781833981519152908201527f20626f6d624461746153746f7265206973206e6f7420666f7220636f727265636064820152631d081a5960e21b608482015260a4016101b4565b61051d6105016101608e018e612fc4565b8381811061051157610511613025565b90506101600201611117565b6105915760405162461bcd60e51b815260206004820152604b602482015260008051602061378183398151915260448201527f20626f6d624461746153746f726573206d6574616461746120707265696d616760648201526a19481a5b98dbdc9c9958dd60aa1b608482015260a4016101b4565b84356105a16101608e018e612fc4565b838181106105b1576105b1613025565b6105cb92608061016090920201908101915060600161305b565b63ffffffff161061084a5760006105e66101608e018e612fc4565b838181106105f6576105f6613025565b9050610160020160000160e001351461084a576106c4848b8b8481811061061f5761061f613025565b90506020028101906106319190613078565b61063b9080613098565b808060200260200160405190810160405280939291908181526020018383602002808284376000920191909152508f92508e915086905081811061068157610681613025565b90506020028101906106939190613078565b602001358d8d868181106106a9576106a9613025565b90506020028101906106bb9190613078565b60400135611778565b6106d26101608e018e612fc4565b838181106106e2576106e2613025565b9050610160020160000160e001351461076e5760405162461bcd60e51b8152602060048201526054602482015260008051602061378183398151915260448201527f20426f6d62206461746173746f7265207369676e61746f7279207265636f7264606482015273040c8decae640dcdee840dac2e8c6d040d0c2e6d60631b608482015260a4016101b4565b828a8a8381811061078157610781613025565b90506020028101906107939190613078565b61079d9080613098565b6107aa60608f018f613098565b858181106107ba576107ba613025565b905060200201358181106107d0576107d0613025565b905060200201351461084a5760405162461bcd60e51b8152602060048201526049602482015260008051602061378183398151915260448201527f20496e636f727265637420426f6d62206461746173746f7265206e6f6e7369676064820152683732b910383937b7b360b91b608482015260a4016101b4565b610853846130e2565b93506108676101e08d016101c08e0161305b565b63ffffffff168463ffffffff161415610883575050505061110c565b61088c81613106565b9050610434565b5063ffffffff83166108a96101608d018d612fc4565b838181106108b9576108b9613025565b6108d392606061016090920201908101915060400161305b565b63ffffffff16146109545760405162461bcd60e51b8152602060048201526051602482015260008051602061378183398151915260448201527f2070726f766964656420626f6d62206461746173746f7265206964206d75737460648201527008189948185cc818d85b18dd5b185d1959607a1b608482015260a4016101b4565b6109656105016101608d018d612fc4565b6109d95760405162461bcd60e51b815260206004820152604b602482015260008051602061378183398151915260448201527f20424f4d42206461746173746f7265206d6574616461746120707265696d616760648201526a19481a5b98dbdc9c9958dd60aa1b608482015260a4016101b4565b610ab06109ea6101608d018d612fc4565b838181106109fa576109fa613025565b610a1492606061016090920201908101915060400161305b565b8a8a84818110610a2657610a26613025565b9050602002810190610a389190613078565b610a429080613098565b808060200260200160405190810160405280939291908181526020018383602002808284376000920191909152508e92508d9150869050818110610a8857610a88613025565b9050602002810190610a9a9190613078565b602001358c8c868181106106a9576106a9613025565b610abe6101608d018d612fc4565b83818110610ace57610ace613025565b9050610160020160000160e0013514610b545760405162461bcd60e51b815260206004820152604e602482015260008051602061378183398151915260448201527f20424f4d42206461746173746f726520736967207265636f726420646f65732060648201526d0dcdee840dac2e8c6d040d0c2e6d60931b608482015260a4016101b4565b8335610b646101608d018d612fc4565b83818110610b7457610b74613025565b610b8e92608061016090920201908101915060600161305b565b63ffffffff161015610c235760405162461bcd60e51b815260206004820152605260248201527f446174614c617972426f6d6256657269666965722e766572666979426f6d623a60448201527f20424f4d42206461746173746f726520776173206e6f74207573696e6720746860648201527165206f70657261746f722773207374616b6560701b608482015260a4016101b4565b888882818110610c3557610c35613025565b9050602002810190610c479190613078565b610c519080613098565b159050610d08576001600160a01b037f00000000000000000000000000000000000000000000000000000000000000001663c1e3286183610c9560208e018e61305b565b8c8c86818110610ca757610ca7613025565b9050602002810190610cb99190613078565b6040518463ffffffff1660e01b8152600401610cd7939291906131b7565b60006040518083038186803b158015610cef57600080fd5b505afa158015610d03573d6000803e3d6000fd5b505050505b6000610d1560018a61300e565b9050610d3e610d2c6101e08e016101c08f0161305b565b8b8b8481811061061f5761061f613025565b6102608d013514610dbe5760405162461bcd60e51b8152602060048201526050602482015260008051602061378183398151915260448201527f204465746f6e6174696f6e2073696e6761746f7279207265636f726420646f6560648201526f0e640dcdee840dac2e8c6d040d0c2e6d60831b608482015260a4016101b4565b8435610dd26102008e016101e08f0161305b565b63ffffffff161015610e725760405162461bcd60e51b815260206004820152605860248201527f446174614c617972426f6d6256657269666965722e766572666979426f6d623a60448201527f204465746f6e6174696f6e206461746173746f726520776173206e6f7420757360648201527f696e6720746865206f70657261746f722773207374616b650000000000000000608482015260a4016101b4565b898982818110610e8457610e84613025565b9050602002810190610e969190613078565b610ea09080613098565b159050610f4f577f00000000000000000000000000000000000000000000000000000000000000006001600160a01b031663c1e32861848d604001358d8d86818110610eee57610eee613025565b9050602002810190610f009190613078565b6040518463ffffffff1660e01b8152600401610f1e939291906131dc565b60006040518083038186803b158015610f3657600080fd5b505afa158015610f4a573d6000803e3d6000fd5b505050505b50610f7d91508b9050610f6560208b018b61305b565b610f7560408c0160208d0161305b565b84878e6117b1565b610ff75760405162461bcd60e51b8152602060048201526051602482015260008051602061378183398151915260448201527f20492066726f6d206d756c746972657665616c206973206e6f742074686520636064820152706f6d6d69746d656e74206f6620706f6c7960781b608482015260a4016101b4565b61100360f96002612f76565b61101060208501856131fb565b60405161102a9291908e906101808f013590602001613242565b6040516020818303038152906040528051906020012060001c1061108f5760405162461bcd60e51b81526020600482015260286024820152600080516020613781833981519152604482015267102737903137b6b160c11b60648201526084016101b4565b604051630e323b9960e21b81526001600160a01b038b811660048301527f000000000000000000000000000000000000000000000000000000000000000016906338c8ee6490602401600060405180830381600087803b1580156110f257600080fd5b505af1158015611106573d6000803e3d6000fd5b50505050505b505050505050505050565b600061113061112b368490038401846132a4565b611a24565b6001600160a01b037f00000000000000000000000000000000000000000000000000000000000000001663ed82c0ee6111716101208601610100870161337b565b6101208601356111896101608801610140890161305b565b6040516001600160e01b031960e086901b16815260ff9093166004840152602483019190915263ffffffff166044820152606401602060405180830381865afa1580156111da573d6000803e3d6000fd5b505050506040513d601f19601f820116820180604052508101906111fe9190612fab565b1492915050565b6040516302b8493560e61b81526001600160a01b038581166004830152600091829182917f00000000000000000000000000000000000000000000000000000000000000009091169063ae124d4090602401602060405180830381865afa158015611274573d6000803e3d6000fd5b505050506040513d601f19601f820116820180604052508101906112989190613398565b90506112aa606087016040880161305b565b63ffffffff168163ffffffff16146113485760405162461bcd60e51b8152602060048201526061602482015260008051602061376183398151915260448201527f61746153746f726549643a2068656164657248617368206973206e6f7420666f60648201527f7220636f7272656374206f70657261746f722066726f6d206461746173746f726084820152606560f81b60a482015260c4016101b4565b50506101208401356000808061136b610180890135856102a08b01358a8a611af0565b9250925092507f00000000000000000000000000000000000000000000000000000000000000006001600160a01b031663578ae5a16040518163ffffffff1660e01b8152600401602060405180830381865afa1580156113cf573d6000803e3d6000fd5b505050506040513d601f19601f820116820180604052508101906113f391906133b5565b6113fe9060016133d2565b60ff1686146114ba5760405162461bcd60e51b8152602060048201526082602482015260008051602061376183398151915260448201527f61746153746f726549643a20496e636f72726563742073616e6477696368207060648201527f726f6f66206c656e6774682e202a6d757374206163636f756e7420666f72206c60848201527f6173742070726f6f66206f6620626f6d62206461746173746f72656d6574646160a482015261746160f01b60c482015260e4016101b4565b6114c58360016133d2565b60ff166114d66101608a018a612fc4565b60008181106114e7576114e7613025565b90506101600201610100016020810190611501919061337b565b60ff16146115965760405162461bcd60e51b8152602060048201526062602482015260008051602061376183398151915260448201527f61746153746f726549643a20626f6d62206461746173746f726520696427732060648201527f6475726174696f6e206973207468652073616d652061732063616c63756c6174608482015261195960f21b60a482015260c4016101b4565b63ffffffff82166115ab6101608a018a612fc4565b60008181106115bc576115bc613025565b6115d692604061016090920201908101915060200161305b565b63ffffffff16146116715760405162461bcd60e51b81526020600482015260646024820181905260008051602061376183398151915260448301527f61746153746f726549643a20626f6d62206461746173746f7265206964207072908201527f6f7669646564206973206e6f74207468652073616d652061732063616c63756c608482015263185d195960e21b60a482015260c4016101b4565b63ffffffff811661168a6101e08a016101c08b0161305b565b63ffffffff16146117325760405162461bcd60e51b8152602060048201526072602482015260008051602061376183398151915260448201527f61746153746f726549643a206e657874206461746173746f726520616674657260648201527f20626f6d6220646f6573206e6f74206d617463682070726f7669646564206465608482015271746f6e6174696f6e206461746173746f726560701b60a482015260c4016101b4565b611740610160890189612fc4565b600081811061175157611751613025565b61176b92606061016090920201908101915060400161305b565b9998505050505050505050565b60008484848460405160200161179194939291906133f7565b604051602081830303815290604052805190602001209050949350505050565b6000806117c088888886612184565b905063ffffffff85166117d9606085016040860161305b565b63ffffffff16146118835760405162461bcd60e51b815260206004820152606260248201527f446174614c617972426f6d6256657269666965722e6e6f6e496e74657261637460448201527f697665506f6c796e6f6d69616c50726f6f663a2073656172636844617461206460648201527f6f6573206e6f74206d617463682070726f7669646564206461746153746f7265608482015261125960f21b60a482015260c4016101b4565b61188d84806131fb565b60405161189b92919061344a565b60405190819003902083351461195d5760405162461bcd60e51b815260206004820152607560248201527f446174614c617972426f6d6256657269666965722e6e6f6e496e74657261637460448201527f697665506f6c796e6f6d69616c50726f6f663a2068617368206f66206469736c60648201527f6f737572652070726f6f662068656164657220646f6573206e6f74206d617463608482015274682070726f7669646564207365617263684461746160581b60a482015260c4016101b4565b6001600160a01b037f00000000000000000000000000000000000000000000000000000000000000001663a1b063f061199686806131fb565b846119a460208a018a6131fb565b6119b160408c018c61345a565b8b6060016040518863ffffffff1660e01b81526004016119d797969594939291906134ba565b602060405180830381865afa1580156119f4573d6000803e3d6000fd5b505050506040513d601f19601f82011682018060405250810190611a189190612f82565b98975050505050505050565b600080826000015183602001518460400151856060015186608001518760a001518860c001518960e00151604051602001611ad198979695949392919097885260e096871b6001600160e01b031990811660208a015295871b8616602489015293861b851660288801529190941b909216602c85015260a09290921b6001600160a01b031916603084015260601b6bffffffffffffffffffffffff1916603c830152605082015260700190565b60408051601f1981840301815291905280516020909101209392505050565b60008060008060007f00000000000000000000000000000000000000000000000000000000000000006001600160a01b031663578ae5a16040518163ffffffff1660e01b8152600401602060405180830381865afa158015611b56573d6000803e3d6000fd5b505050506040513d601f19601f82011682018060405250810190611b7a91906133b5565b60ff1667ffffffffffffffff811115611b9557611b95613272565b604051908082528060200260200182016040528015611bbe578160200160208202803683370190505b50905060007f00000000000000000000000000000000000000000000000000000000000000006001600160a01b031663578ae5a16040518163ffffffff1660e01b8152600401602060405180830381865afa158015611c21573d6000803e3d6000fd5b505050506040513d601f19601f82011682018060405250810190611c4591906133b5565b60ff1667ffffffffffffffff811115611c6057611c60613272565b604051908082528060200260200182016040528015611c89578160200160208202803683370190505b50905063ffffffff935060005b7f00000000000000000000000000000000000000000000000000000000000000006001600160a01b031663578ae5a16040518163ffffffff1660e01b8152600401602060405180830381865afa158015611cf4573d6000803e3d6000fd5b505050506040513d601f19601f82011682018060405250810190611d1891906133b5565b60ff168160ff1610156121215788888260ff16818110611d3a57611d3a613025565b90506105000201600060028110611d5357611d53613025565b61028002016001610140020135898960ff8416818110611d7557611d75613025565b90506105000201600060028110611d8e57611d8e613025565b610280020135148015611dd2575088888260ff16818110611db157611db1613025565b90506105000201600060028110611dca57611dca613025565b610280020135155b15611f02576001600160a01b037f0000000000000000000000000000000000000000000000000000000000000000166373441c4e611e118360016133d2565b6040516001600160e01b031960e084901b16815260ff9091166004820152602401602060405180830381865afa158015611e4f573d6000803e3d6000fd5b505050506040513d601f19601f82011682018060405250810190611e739190613398565b63ffffffff1615611efd5760405162461bcd60e51b815260206004820152604860248201527f446174614c617972426f6d6256657269666965722e76657269667953616e647760448201527f69636865733a204461746153746f72657320666f72206475726174696f6e206160648201526707265206e6f7420360c41b608482015260a4016101b4565b612111565b6000611fb17f00000000000000000000000000000000000000000000000000000000000000006001600160a01b03166331a219c56040518163ffffffff1660e01b8152600401602060405180830381865afa158015611f65573d6000803e3d6000fd5b505050506040513d601f19601f82011682018060405250810190611f899190612fab565b611f948460016133d2565b60ff16611fa1919061359a565b611fab908d61300e565b8d6124ba565b9050611ffa81611fc28460016133d2565b8c8c8660ff16818110611fd757611fd7613025565b90506105000201600060028110611ff057611ff0613025565b61028002016124d4565b60200151838360ff168151811061201357612013613025565b63ffffffff9092166020928302919091019091015260006120678c6120398560016133d2565b8d8d8760ff1681811061204e5761204e613025565b90506105000201600160028110611ff057611ff0613025565b9050806040015163ffffffff168763ffffffff16111561208957806040015196505b838360ff168151811061209e5761209e613025565b602002602001015181602001516120b591906135b9565b858460ff16815181106120ca576120ca613025565b602002602001019063ffffffff16908163ffffffff1681525050848360ff16815181106120f9576120f9613025565b60200260200101518661210c91906135de565b955050505b61211a81613606565b9050611c96565b50600061213463ffffffff85168d61363c565b905060006121428285612c01565b809250819950505080838960ff168151811061216057612160613025565b602002602001015161217291906135de565b96505050505050955095509592505050565b60006001600160a01b037f00000000000000000000000000000000000000000000000000000000000000001663ba4994b16121c76101208501610100860161337b565b6101208501356121df6101608701610140880161305b565b6040516001600160e01b031960e086901b168152612204939291908890600401613650565b602060405180830381865afa158015612221573d6000803e3d6000fd5b505050506040513d601f19601f820116820180604052508101906122459190612f82565b6122cf5760405162461bcd60e51b815260206004820152604f60248201527f446174614c617972426f6d6256657269666965722e6765744368756e6b4e756d60448201527f6265723a207365617263682e6d65746164617461636c65617220707265696d6160648201526e19d9481a5cc81a5b98dbdc9c9958dd608a1b608482015260a4016101b4565b60e08201356123205760405162461bcd60e51b815260206004820152601e60248201527f4461746173746f7265206973206e6f7420636f6d6d697474656420796574000060448201526064016101b4565b6001600160a01b037f000000000000000000000000000000000000000000000000000000000000000016637210b0c986612360608086016060870161305b565b6040516001600160e01b031960e085901b1681526001600160a01b03909216600483015263ffffffff908116602483015287166044820152606401602060405180830381865afa1580156123b8573d6000803e3d6000fd5b505050506040513d601f19601f820116820180604052508101906123dc9190613398565b93506001600160a01b037f00000000000000000000000000000000000000000000000000000000000000001663b322bdc761241d608085016060860161305b565b6040516001600160e01b031960e084901b16815263ffffffff91821660048201529086166024820152604401602060405180830381865afa158015612466573d6000803e3d6000fd5b505050506040513d601f19601f8201168201806040525081019061248a9190613398565b92508261249d606084016040850161305b565b6124a790866135de565b6124b1919061371d565b95945050505050565b60008183116124c957816124cb565b825b90505b92915050565b6040805161010081018252600080825260208201819052918101829052606081018290526080810182905260a0810182905260c0810182905260e0810191909152813584116125aa5760405162461bcd60e51b8152602060048201526062602482015260008051602061374183398151915260448201527f746f7265496453616e64776963683a2073616e64776963685b305d2e74696d6560648201527f7374616d70206d757374206265206265666f72652073616e64776963682074696084820152616d6560f01b60a482015260c4016101b4565b610140820135841115806125c15750610140820135155b61265c5760405162461bcd60e51b815260206004820152606c602482015260008051602061374183398151915260448201527f746f7265496453616e64776963683a2073616e64776963685b315d2e74696d6560648201527f7374616d70206d757374206265206174206f722061667465722073616e64776960848201526b063682074696d65206f7220360a41b60a482015260c4016101b4565b813515612798577f00000000000000000000000000000000000000000000000000000000000000006001600160a01b031663ba4994b18484356126a5604087016020880161305b565b604080516001600160e01b031960e087901b1681526126cc94939291890190600401613650565b602060405180830381865afa1580156126e9573d6000803e3d6000fd5b505050506040513d601f19601f8201168201806040525081019061270d9190612f82565b6127935760405162461bcd60e51b815260206004820152605a602482015260008051602061374183398151915260448201527f746f7265496453616e64776963683a2073616e64776963685b305d2e6d65746160648201527f6461746120707265696d61676520697320696e636f7272656374000000000000608482015260a4016101b4565b61284a565b6127a8608083016060840161305b565b63ffffffff161561284a5760405162461bcd60e51b815260206004820152606c602482015260008051602061374183398151915260448201527f746f7265496453616e64776963683a2073616e64776963685b305d2e74696d7360648201527f74616d7020776173203020627574206475726174696f6e206461746173746f7260848201526b19481a59081dd85cc81b9bdd60a21b60a482015260c4016101b4565b61014082013515612a82577f00000000000000000000000000000000000000000000000000000000000000006001600160a01b031663ba4994b18461014085013561289d6101808701610160880161305b565b6040516001600160e01b031960e086901b1681526128c693929190610180890190600401613650565b602060405180830381865afa1580156128e3573d6000803e3d6000fd5b505050506040513d601f19601f820116820180604052508101906129079190612f82565b61298d5760405162461bcd60e51b815260206004820152605a602482015260008051602061374183398151915260448201527f746f7265496453616e64776963683a2073616e64776963685b315d2e6d65746160648201527f6461746120707265696d61676520697320696e636f7272656374000000000000608482015260a4016101b4565b61299f6101c083016101a0840161305b565b63ffffffff166129b5608084016060850161305b565b6129c09060016135de565b63ffffffff1614612a7d5760405162461bcd60e51b8152602060048201526081602482015260008051602061374183398151915260448201527f746f7265496453616e64776963683a207820616e642079206461746173746f7260648201527f65206d75737420626520696e6372656d656e74616c206f72207920646174617360848201527f746f7265206973206e6f7420666972737420696e20746865206475726174696f60a4820152603760f91b60c482015260e4016101b4565b612be6565b612a92608083016060840161305b565b6040516339a20e2760e11b815260ff8516600482015263ffffffff91909116906001600160a01b037f000000000000000000000000000000000000000000000000000000000000000016906373441c4e90602401602060405180830381865afa158015612b03573d6000803e3d6000fd5b505050506040513d601f19601f82011682018060405250810190612b279190613398565b63ffffffff1614612be65760405162461bcd60e51b8152602060048201526083602482015260008051602061374183398151915260448201527f746f7265496453616e64776963683a2078206461746173746f7265206973206e60648201527f6f7420746865206c617374206461746173746f726520696e207468652064757260848201527f6174696f6e206f72206e6f206461746173746f72657320666f7220647572617460a48201526234b7b760e91b60c482015260e4016101b4565b612bf936839003830161018084016132a4565b949350505050565b6000825b82518260ff161015612c80578063ffffffff16838360ff1681518110612c2d57612c2d613025565b602002602001015163ffffffff161115612c4657612c80565b828260ff1681518110612c5b57612c5b613025565b602002602001015181612c6e91906135b9565b9050612c7982613606565b9150612c05565b9250929050565b80356001600160a01b0381168114612c9e57600080fd5b919050565b60006102e08284031215612cb657600080fd5b50919050565b600060808284031215612cb657600080fd5b60008083601f840112612ce057600080fd5b50813567ffffffffffffffff811115612cf857600080fd5b6020830191508360208260051b8501011115612c8057600080fd5b60008083601f840112612d2557600080fd5b50813567ffffffffffffffff811115612d3d57600080fd5b60208301915083602061050083028501011115612c8057600080fd5b600060e08284031215612cb657600080fd5b600060408284031215612cb657600080fd5b60008060008060008060008060006101008a8c031215612d9c57600080fd5b612da58a612c87565b985060208a013567ffffffffffffffff80821115612dc257600080fd5b612dce8d838e01612ca3565b995060408c0135915080821115612de457600080fd5b612df08d838e01612cbc565b985060608c0135915080821115612e0657600080fd5b612e128d838e01612cce565b909850965060808c0135915080821115612e2b57600080fd5b612e378d838e01612d13565b909650945060a08c0135915080821115612e5057600080fd5b50612e5d8c828d01612d59565b925050612e6d8b60c08c01612d6b565b90509295985092959850929598565b634e487b7160e01b600052601160045260246000fd5b600181815b80851115612ecd578160001904821115612eb357612eb3612e7c565b80851615612ec057918102915b93841c9390800290612e97565b509250929050565b600082612ee4575060016124ce565b81612ef1575060006124ce565b8160018114612f075760028114612f1157612f2d565b60019150506124ce565b60ff841115612f2257612f22612e7c565b50506001821b6124ce565b5060208310610133831016604e8410600b8410161715612f50575081810a6124ce565b612f5a8383612e92565b8060001904821115612f6e57612f6e612e7c565b029392505050565b60006124cb8383612ed5565b600060208284031215612f9457600080fd5b81518015158114612fa457600080fd5b9392505050565b600060208284031215612fbd57600080fd5b5051919050565b6000808335601e19843603018112612fdb57600080fd5b83018035915067ffffffffffffffff821115612ff657600080fd5b602001915061016081023603821315612c8057600080fd5b60008282101561302057613020612e7c565b500390565b634e487b7160e01b600052603260045260246000fd5b63ffffffff8116811461304d57600080fd5b50565b8035612c9e8161303b565b60006020828403121561306d57600080fd5b8135612fa48161303b565b60008235605e1983360301811261308e57600080fd5b9190910192915050565b6000808335601e198436030181126130af57600080fd5b83018035915067ffffffffffffffff8211156130ca57600080fd5b6020019150600581901b3603821315612c8057600080fd5b600063ffffffff808316818114156130fc576130fc612e7c565b6001019392505050565b600060001982141561311a5761311a612e7c565b5060010190565b60008135601e1983360301811261313757600080fd5b8201803567ffffffffffffffff81111561315057600080fd5b8060051b80360385131561316357600080fd5b606080875286018290526001600160fb1b0382111561318157600080fd5b80602084016080880137608081870101925050506000815260208301356020850152604083013560408501528091505092915050565b83815263ffffffff831660208201526060604082015260006124b16060830184613121565b8381528260208201526060604082015260006124b16060830184613121565b6000808335601e1984360301811261321257600080fd5b83018035915067ffffffffffffffff82111561322d57600080fd5b602001915036819003821315612c8057600080fd5b8385823760609290921b6bffffffffffffffffffffffff1916919092019081526014810191909152603401919050565b634e487b7160e01b600052604160045260246000fd5b80356bffffffffffffffffffffffff81168114612c9e57600080fd5b60006101008083850312156132b857600080fd5b6040519081019067ffffffffffffffff821181831017156132e957634e487b7160e01b600052604160045260246000fd5b81604052833581526132fd60208501613050565b602082015261330e60408501613050565b604082015261331f60608501613050565b606082015261333060808501613050565b608082015261334160a08501613288565b60a082015261335260c08501612c87565b60c082015260e084013560e0820152809250505092915050565b60ff8116811461304d57600080fd5b60006020828403121561338d57600080fd5b8135612fa48161336c565b6000602082840312156133aa57600080fd5b8151612fa48161303b565b6000602082840312156133c757600080fd5b8151612fa48161336c565b600060ff821660ff84168060ff038211156133ef576133ef612e7c565b019392505050565b63ffffffff60e01b8560e01b1681526000600482018551602080880160005b8381101561343257815185529382019390820190600101613416565b50509582525093840192909252505060400192915050565b8183823760009101908152919050565b6000823561011e1983360301811261308e57600080fd5b81835281816020850137506000828201602090810191909152601f909101601f19169091010190565b604081833760408201600081526040808301823750600060808301525050565b60006101008083526134cf8184018a8c613471565b63ffffffff8916602085015283810360408501526134ee81888a613471565b848103606086015286358152602080880135908201529050610120613523604083016040890180358252602090810135910152565b613533608083016080890161349a565b82870135601e1988360301811261354957600080fd5b8701803567ffffffffffffffff81111561356257600080fd5b80360389131561357157600080fd5b82858501526135868385018260208501613471565b95505050505050611a18608083018461349a565b60008160001904831182151516156135b4576135b4612e7c565b500290565b600063ffffffff838116908316818110156135d6576135d6612e7c565b039392505050565b600063ffffffff8083168185168083038211156135fd576135fd612e7c565b01949350505050565b600060ff821660ff81141561361d5761361d612e7c565b60010192915050565b634e487b7160e01b600052601260045260246000fd5b60008261364b5761364b613626565b500690565b60ff85168152602080820185905263ffffffff8481166040840152833560608401526101608301918401356136848161303b565b8116608084015260408401356136998161303b565b1660a08301526136ab60608401613050565b63ffffffff1660c08301526136c260808401613050565b63ffffffff1660e08301526136d960a08401613288565b6bffffffffffffffffffffffff166101008301526136f960c08401612c87565b6001600160a01b031661012083015260e09290920135610140909101529392505050565b600063ffffffff8084168061373457613734613626565b9216919091069291505056fe446174614c617972426f6d6256657269666965722e7665726966794461746153446174614c617972426f6d6256657269666965722e766572696679426f6d6244446174614c617972426f6d6256657269666965722e766572696679426f6d623aa2646970667358221220ec57dca4fd213b31f155630d6476c35b8d634bd66a78c61bad255c13769614c464736f6c634300080c0033",
    "linkReferences": {}
  },
  "methodIdentifiers": {
    "BOMB_FRAUDRPOOF_INTERVAL()": "a656a3bd",
    "BOMB_THRESHOLD()": "f94a9fd3",
    "challengeUtils()": "ad782374",
    "dlRegistry()": "e999a1b5",
    "dlsm()": "29c8beb1",
    "verifyBomb(address,(((bytes32,uint32,uint32,uint32,uint32,uint96,address,bytes32),uint8,uint256,uint32),((bytes32,uint32,uint32,uint32,uint32,uint96,address,bytes32),uint8,uint256,uint32)[],((bytes32,uint32,uint32,uint32,uint32,uint96,address,bytes32),uint8,uint256,uint32)),(uint32,uint32,uint256,uint256[]),(bytes32[],uint256,uint256)[],(uint256,uint32,(bytes32,uint32,uint32,uint32,uint32,uint96,address,bytes32))[2][2][],(bytes,bytes,((uint256,uint256),(uint256,uint256),(uint256[2],uint256[2]),bytes),(uint256[2],uint256[2])),(uint256,uint256))": "fa67b8c3"
  },
  "id": 111
}