{
  "abi": [
    {
      "inputs": [
        {
          "internalType": "contract IInvestmentManager",
          "name": "_investmentManager",
          "type": "address"
        },
        {
          "internalType": "contract IRegistryPermission",
          "name": "_permissionManager",
          "type": "address"
        }
      ],
      "stateMutability": "nonpayable",
      "type": "constructor"
    },
    {
      "anonymous": false,
      "inputs": [
        {
          "indexed": false,
          "internalType": "uint8",
          "name": "version",
          "type": "uint8"
        }
      ],
      "name": "Initialized",
      "type": "event"
    },
    {
      "anonymous": false,
      "inputs": [
        {
          "indexed": true,
          "internalType": "address",
          "name": "previousOwner",
          "type": "address"
        },
        {
          "indexed": true,
          "internalType": "address",
          "name": "newOwner",
          "type": "address"
        }
      ],
      "name": "OwnershipTransferred",
      "type": "event"
    },
    {
      "anonymous": false,
      "inputs": [
        {
          "indexed": true,
          "internalType": "address",
          "name": "account",
          "type": "address"
        },
        {
          "indexed": false,
          "internalType": "uint256",
          "name": "newPausedStatus",
          "type": "uint256"
        }
      ],
      "name": "Paused",
      "type": "event"
    },
    {
      "anonymous": false,
      "inputs": [
        {
          "indexed": true,
          "internalType": "address",
          "name": "account",
          "type": "address"
        },
        {
          "indexed": false,
          "internalType": "uint256",
          "name": "newPausedStatus",
          "type": "uint256"
        }
      ],
      "name": "Unpaused",
      "type": "event"
    },
    {
      "inputs": [],
      "name": "DELEGATION_TYPEHASH",
      "outputs": [
        {
          "internalType": "bytes32",
          "name": "",
          "type": "bytes32"
        }
      ],
      "stateMutability": "view",
      "type": "function"
    },
    {
      "inputs": [],
      "name": "DOMAIN_SEPARATOR",
      "outputs": [
        {
          "internalType": "bytes32",
          "name": "",
          "type": "bytes32"
        }
      ],
      "stateMutability": "view",
      "type": "function"
    },
    {
      "inputs": [],
      "name": "DOMAIN_TYPEHASH",
      "outputs": [
        {
          "internalType": "bytes32",
          "name": "",
          "type": "bytes32"
        }
      ],
      "stateMutability": "view",
      "type": "function"
    },
    {
      "inputs": [
        {
          "internalType": "address",
          "name": "staker",
          "type": "address"
        },
        {
          "internalType": "contract IInvestmentStrategy[]",
          "name": "strategies",
          "type": "address[]"
        },
        {
          "internalType": "uint256[]",
          "name": "shares",
          "type": "uint256[]"
        }
      ],
      "name": "decreaseDelegatedShares",
      "outputs": [],
      "stateMutability": "nonpayable",
      "type": "function"
    },
    {
      "inputs": [
        {
          "internalType": "address",
          "name": "operator",
          "type": "address"
        }
      ],
      "name": "delegateTo",
      "outputs": [],
      "stateMutability": "nonpayable",
      "type": "function"
    },
    {
      "inputs": [
        {
          "internalType": "address",
          "name": "staker",
          "type": "address"
        },
        {
          "internalType": "address",
          "name": "operator",
          "type": "address"
        },
        {
          "internalType": "uint256",
          "name": "expiry",
          "type": "uint256"
        },
        {
          "internalType": "bytes32",
          "name": "r",
          "type": "bytes32"
        },
        {
          "internalType": "bytes32",
          "name": "vs",
          "type": "bytes32"
        }
      ],
      "name": "delegateToBySignature",
      "outputs": [],
      "stateMutability": "nonpayable",
      "type": "function"
    },
    {
      "inputs": [
        {
          "internalType": "address",
          "name": "",
          "type": "address"
        }
      ],
      "name": "delegatedTo",
      "outputs": [
        {
          "internalType": "address",
          "name": "",
          "type": "address"
        }
      ],
      "stateMutability": "view",
      "type": "function"
    },
    {
      "inputs": [
        {
          "internalType": "address",
          "name": "operator",
          "type": "address"
        }
      ],
      "name": "getOperatorRewardAddress",
      "outputs": [
        {
          "internalType": "address",
          "name": "",
          "type": "address"
        }
      ],
      "stateMutability": "view",
      "type": "function"
    },
    {
      "inputs": [
        {
          "internalType": "address",
          "name": "staker",
          "type": "address"
        },
        {
          "internalType": "contract IInvestmentStrategy",
          "name": "strategy",
          "type": "address"
        },
        {
          "internalType": "uint256",
          "name": "shares",
          "type": "uint256"
        }
      ],
      "name": "increaseDelegatedShares",
      "outputs": [],
      "stateMutability": "nonpayable",
      "type": "function"
    },
    {
      "inputs": [
        {
          "internalType": "contract IPauserRegistry",
          "name": "_pauserRegistry",
          "type": "address"
        },
        {
          "internalType": "address",
          "name": "initialOwner",
          "type": "address"
        }
      ],
      "name": "initialize",
      "outputs": [],
      "stateMutability": "nonpayable",
      "type": "function"
    },
    {
      "inputs": [],
      "name": "investmentManager",
      "outputs": [
        {
          "internalType": "contract IInvestmentManager",
          "name": "",
          "type": "address"
        }
      ],
      "stateMutability": "view",
      "type": "function"
    },
    {
      "inputs": [
        {
          "internalType": "address",
          "name": "staker",
          "type": "address"
        }
      ],
      "name": "isDelegated",
      "outputs": [
        {
          "internalType": "bool",
          "name": "",
          "type": "bool"
        }
      ],
      "stateMutability": "view",
      "type": "function"
    },
    {
      "inputs": [
        {
          "internalType": "address",
          "name": "staker",
          "type": "address"
        }
      ],
      "name": "isNotDelegated",
      "outputs": [
        {
          "internalType": "bool",
          "name": "",
          "type": "bool"
        }
      ],
      "stateMutability": "view",
      "type": "function"
    },
    {
      "inputs": [
        {
          "internalType": "address",
          "name": "operator",
          "type": "address"
        }
      ],
      "name": "isOperator",
      "outputs": [
        {
          "internalType": "bool",
          "name": "",
          "type": "bool"
        }
      ],
      "stateMutability": "view",
      "type": "function"
    },
    {
      "inputs": [
        {
          "internalType": "address",
          "name": "",
          "type": "address"
        }
      ],
      "name": "nonces",
      "outputs": [
        {
          "internalType": "uint256",
          "name": "",
          "type": "uint256"
        }
      ],
      "stateMutability": "view",
      "type": "function"
    },
    {
      "inputs": [
        {
          "internalType": "address",
          "name": "",
          "type": "address"
        }
      ],
      "name": "operatorReceiverRewardAddress",
      "outputs": [
        {
          "internalType": "address",
          "name": "",
          "type": "address"
        }
      ],
      "stateMutability": "view",
      "type": "function"
    },
    {
      "inputs": [
        {
          "internalType": "address",
          "name": "",
          "type": "address"
        },
        {
          "internalType": "contract IInvestmentStrategy",
          "name": "",
          "type": "address"
        }
      ],
      "name": "operatorShares",
      "outputs": [
        {
          "internalType": "uint256",
          "name": "",
          "type": "uint256"
        }
      ],
      "stateMutability": "view",
      "type": "function"
    },
    {
      "inputs": [],
      "name": "owner",
      "outputs": [
        {
          "internalType": "address",
          "name": "",
          "type": "address"
        }
      ],
      "stateMutability": "view",
      "type": "function"
    },
    {
      "inputs": [
        {
          "internalType": "uint256",
          "name": "newPausedStatus",
          "type": "uint256"
        }
      ],
      "name": "pause",
      "outputs": [],
      "stateMutability": "nonpayable",
      "type": "function"
    },
    {
      "inputs": [
        {
          "internalType": "uint8",
          "name": "index",
          "type": "uint8"
        }
      ],
      "name": "paused",
      "outputs": [
        {
          "internalType": "bool",
          "name": "",
          "type": "bool"
        }
      ],
      "stateMutability": "view",
      "type": "function"
    },
    {
      "inputs": [],
      "name": "paused",
      "outputs": [
        {
          "internalType": "uint256",
          "name": "",
          "type": "uint256"
        }
      ],
      "stateMutability": "view",
      "type": "function"
    },
    {
      "inputs": [],
      "name": "pauserRegistry",
      "outputs": [
        {
          "internalType": "contract IPauserRegistry",
          "name": "",
          "type": "address"
        }
      ],
      "stateMutability": "view",
      "type": "function"
    },
    {
      "inputs": [],
      "name": "permissionManager",
      "outputs": [
        {
          "internalType": "contract IRegistryPermission",
          "name": "",
          "type": "address"
        }
      ],
      "stateMutability": "view",
      "type": "function"
    },
    {
      "inputs": [
        {
          "internalType": "address",
          "name": "rewardReceiveAddress",
          "type": "address"
        }
      ],
      "name": "registerAsOperator",
      "outputs": [],
      "stateMutability": "nonpayable",
      "type": "function"
    },
    {
      "inputs": [],
      "name": "renounceOwnership",
      "outputs": [],
      "stateMutability": "nonpayable",
      "type": "function"
    },
    {
      "inputs": [
        {
          "internalType": "address",
          "name": "newOwner",
          "type": "address"
        }
      ],
      "name": "transferOwnership",
      "outputs": [],
      "stateMutability": "nonpayable",
      "type": "function"
    },
    {
      "inputs": [
        {
          "internalType": "address",
          "name": "staker",
          "type": "address"
        }
      ],
      "name": "undelegate",
      "outputs": [],
      "stateMutability": "nonpayable",
      "type": "function"
    },
    {
      "inputs": [
        {
          "internalType": "uint256",
          "name": "newPausedStatus",
          "type": "uint256"
        }
      ],
      "name": "unpause",
      "outputs": [],
      "stateMutability": "nonpayable",
      "type": "function"
    }
  ],
  "bytecode": {
    "object": "0x60c06040523480156200001157600080fd5b50604051620021d9380380620021d9833981016040819052620000349162000134565b6001600160a01b03808316608052811660a0526200005162000059565b505062000173565b600054610100900460ff1615620000c65760405162461bcd60e51b815260206004820152602760248201527f496e697469616c697a61626c653a20636f6e747261637420697320696e697469604482015266616c697a696e6760c81b606482015260840160405180910390fd5b60005460ff908116101562000119576000805460ff191660ff9081179091556040519081527f7f26b83ff96e1f2b6a682f133852f6798a09c465da95921460cefb38474024989060200160405180910390a15b565b6001600160a01b03811681146200013157600080fd5b50565b600080604083850312156200014857600080fd5b825162000155816200011b565b602084015190925062000168816200011b565b809150509250929050565b60805160a05161200f620001ca6000396000818161046401528181610b0201528181610bb80152610e360152600081816102b7015281816106c1015281816109a50152818161101f01526116b4015261200f6000f3fe608060405234801561001057600080fd5b50600436106101c45760003560e01c8063778e55f3116100f9578063bd44e40311610097578063e7a324dc11610071578063e7a324dc14610499578063ee4ea66a146104c0578063f2fde38b146104ec578063fabc1cbc146104ff57600080fd5b8063bd44e4031461044c578063cc7a20491461045f578063da8be8641461048657600080fd5b80638b8209df116100d35780638b8209df146103ec5780638da5cb5b14610415578063ac637c7a14610426578063b41b394b1461043957600080fd5b8063778e55f31461038e5780637ecebe00146103b9578063886f1195146103d957600080fd5b80634b31bb10116101665780635c975abb116101405780635c975abb1461032757806365da12641461032f5780636d70f7ae14610358578063715018a61461038657600080fd5b80634b31bb10146102b25780635820491c146102f15780635ac86ab71461030457600080fd5b806328a573ae116101a257806328a573ae146102555780633644e515146102685780633e28391d14610271578063485cc9551461029f57600080fd5b8063136439dd146101c95780631d3696b7146101de57806320606b7014610220575b600080fd5b6101dc6101d7366004611a3f565b610512565b005b61020b6101ec366004611a6d565b6001600160a01b03908116600090815260686020526040902054161590565b60405190151581526020015b60405180910390f35b6102477f8cad95687ba82c2ce50e74f7b754645e5117c3a5bec8151c0726d5857980a86681565b604051908152602001610217565b6101dc610263366004611a91565b6106b6565b61024760655481565b61020b61027f366004611a6d565b6001600160a01b0390811660009081526068602052604090205416151590565b6101dc6102ad366004611ad2565b610809565b6102d97f000000000000000000000000000000000000000000000000000000000000000081565b6040516001600160a01b039091168152602001610217565b6101dc6102ff366004611b57565b61099a565b61020b610312366004611bda565b606b54600160ff9092169190911b9081161490565b606b54610247565b6102d961033d366004611a6d565b6068602052600090815260409020546001600160a01b031681565b61020b610366366004611a6d565b6001600160a01b0390811660009081526067602052604090205416151590565b6101dc610ad9565b61024761039c366004611ad2565b606660209081526000928352604080842090915290825290205481565b6102476103c7366004611a6d565b60696020526000908152604090205481565b606a546102d9906001600160a01b031681565b6102d96103fa366004611a6d565b6067602052600090815260409020546001600160a01b031681565b6033546001600160a01b03166102d9565b6101dc610434366004611a6d565b610aed565b6101dc610447366004611bfd565b610ba3565b6101dc61045a366004611a6d565b610e21565b6102d97f000000000000000000000000000000000000000000000000000000000000000081565b6101dc610494366004611a6d565b611014565b6102477fb2a21c2f78b6ef501475a2971550fe4cedb86f0dec990e23909bfb01fd61c54c81565b6102d96104ce366004611a6d565b6001600160a01b039081166000908152606760205260409020541690565b6101dc6104fa366004611a6d565b611125565b6101dc61050d366004611a3f565b61119b565b606a60009054906101000a90046001600160a01b03166001600160a01b0316639fd0506d6040518163ffffffff1660e01b8152600401602060405180830381865afa158015610565573d6000803e3d6000fd5b505050506040513d601f19601f820116820180604052508101906105899190611c4e565b6001600160a01b0316336001600160a01b0316146105ff5760405162461bcd60e51b815260206004820152602860248201527f6d73672e73656e646572206973206e6f74207065726d697373696f6e6564206160448201526739903830bab9b2b960c11b60648201526084015b60405180910390fd5b606b54818116146106785760405162461bcd60e51b815260206004820152603860248201527f5061757361626c652e70617573653a20696e76616c696420617474656d70742060448201527f746f20756e70617573652066756e6374696f6e616c697479000000000000000060648201526084016105f6565b606b81905560405181815233907fab40a374bc51de372200a8bc981af8c9ecdc08dfdaef0bb6e09f88f3c616ef3d906020015b60405180910390a250565b336001600160a01b037f000000000000000000000000000000000000000000000000000000000000000016146106fe5760405162461bcd60e51b81526004016105f690611c6b565b6001600160a01b038084166000908152606860205260409020541615610804576001600160a01b0380841660009081526068602090815260408083205484168084526066835281842094871684529390915281208054849290610762908490611cb0565b909155505060408051600180825281830190925260009160208083019080368337505060408051600180825281830190925292935060009291506020808301908036833701905050905084826000815181106107c0576107c0611cde565b60200260200101906001600160a01b031690816001600160a01b03168152505083816000815181106107f4576107f4611cde565b6020026020010181815250505050505b505050565b600054610100900460ff16158080156108295750600054600160ff909116105b806108435750303b158015610843575060005460ff166001145b6108a65760405162461bcd60e51b815260206004820152602e60248201527f496e697469616c697a61626c653a20636f6e747261637420697320616c72656160448201526d191e481a5b9a5d1a585b1a5e995960921b60648201526084016105f6565b6000805460ff1916600117905580156108c9576000805461ff0019166101001790555b6108d483600061133a565b7f8cad95687ba82c2ce50e74f7b754645e5117c3a5bec8151c0726d5857980a8666040518060400160405280600981526020016822b4b3b2b72630bcb960b91b815250463060405160200161092c9493929190611cf4565b60408051601f1981840301815291905280516020909101206065556109508261143a565b8015610804576000805461ff0019169055604051600181527f7f26b83ff96e1f2b6a682f133852f6798a09c465da95921460cefb38474024989060200160405180910390a1505050565b336001600160a01b037f000000000000000000000000000000000000000000000000000000000000000016146109e25760405162461bcd60e51b81526004016105f690611c6b565b6001600160a01b038086166000908152606860205260409020541615610ad2576001600160a01b038086166000908152606860205260408120549091169084905b81811015610ace57848482818110610a3d57610a3d611cde565b9050602002013560666000856001600160a01b03166001600160a01b031681526020019081526020016000206000898985818110610a7d57610a7d611cde565b9050602002016020810190610a929190611a6d565b6001600160a01b03166001600160a01b031681526020019081526020016000206000828254610ac19190611d70565b9091555050600101610a23565b5050505b5050505050565b610ae161148c565b610aeb600061143a565b565b60405163314145ff60e11b81523360048201527f00000000000000000000000000000000000000000000000000000000000000006001600160a01b0316906362828bfe90602401602060405180830381865afa158015610b51573d6000803e3d6000fd5b505050506040513d601f19601f82011682018060405250810190610b759190611d87565b1515600114610b965760405162461bcd60e51b81526004016105f690611da9565b610ba033826114e6565b50565b60405163314145ff60e11b81523360048201527f00000000000000000000000000000000000000000000000000000000000000006001600160a01b0316906362828bfe90602401602060405180830381865afa158015610c07573d6000803e3d6000fd5b505050506040513d601f19601f82011682018060405250810190610c2b9190611d87565b1515600114610c4c5760405162461bcd60e51b81526004016105f690611da9565b821580610c595750428310155b610ca55760405162461bcd60e51b815260206004820152601c60248201527f64656c65676174696f6e207369676e617475726520657870697265640000000060448201526064016105f6565b6001600160a01b038516600090815260696020526040812080547fb2a21c2f78b6ef501475a2971550fe4cedb86f0dec990e23909bfb01fd61c54c918891889185610cef83611e23565b909155506040805160208101959095526001600160a01b039384169085015291166060830152608082015260a0810185905260c001604051602081830303815290604052805190602001209050600060655482604051602001610d6992919061190160f01b81526002810192909252602282015260420190565b6040516020818303038152906040528051906020012090506000610d8e8286866117ce565b9050876001600160a01b0316816001600160a01b031614610e175760405162461bcd60e51b815260206004820152603e60248201527f456967656e4c61797244656c65676174696f6e2e64656c6567617465546f427960448201527f5369676e61747572653a20736967206e6f742066726f6d207374616b6572000060648201526084016105f6565b610ace88886114e6565b60405163bfd79e9960e01b81523360048201527f00000000000000000000000000000000000000000000000000000000000000006001600160a01b03169063bfd79e9990602401602060405180830381865afa158015610e85573d6000803e3d6000fd5b505050506040513d601f19601f82011682018060405250810190610ea99190611d87565b1515600114610f465760405162461bcd60e51b815260206004820152605c60248201527f456967656e4c61797244656c65676174696f6e2e726567697374657241734f7060448201527f657261746f723a204f70657261746f7220646f6573206e6f74207065726d697360648201527f73696f6e20746f207265676973746572206173206f70657261746f7200000000608482015260a4016105f6565b336000908152606760205260409020546001600160a01b031615610fe25760405162461bcd60e51b815260206004820152604760248201527f456967656e4c61797244656c65676174696f6e2e726567697374657241734f7060448201527f657261746f723a206f70657261746f722068617320616c7265616479207265676064820152661a5cdd195c995960ca1b608482015260a4016105f6565b33600081815260676020526040902080546001600160a01b0319166001600160a01b038416179055610ba090806114e6565b336001600160a01b037f0000000000000000000000000000000000000000000000000000000000000000161461105c5760405162461bcd60e51b81526004016105f690611c6b565b6001600160a01b0380821660009081526067602052604090205416156110fe5760405162461bcd60e51b815260206004820152604b60248201527f456967656e4c61797244656c65676174696f6e2e756e64656c65676174653a2060448201527f6f70657261746f72732063616e6e6f7420756e64656c65676174652066726f6d60648201526a207468656d73656c76657360a81b608482015260a4016105f6565b6001600160a01b0316600090815260686020526040902080546001600160a01b0319169055565b61112d61148c565b6001600160a01b0381166111925760405162461bcd60e51b815260206004820152602660248201527f4f776e61626c653a206e6577206f776e657220697320746865207a65726f206160448201526564647265737360d01b60648201526084016105f6565b610ba08161143a565b606a60009054906101000a90046001600160a01b03166001600160a01b031663eab66d7a6040518163ffffffff1660e01b8152600401602060405180830381865afa1580156111ee573d6000803e3d6000fd5b505050506040513d601f19601f820116820180604052508101906112129190611c4e565b6001600160a01b0316336001600160a01b0316146112855760405162461bcd60e51b815260206004820152602a60248201527f6d73672e73656e646572206973206e6f74207065726d697373696f6e6564206160448201526939903ab73830bab9b2b960b11b60648201526084016105f6565b606b54198119606b541916146113035760405162461bcd60e51b815260206004820152603860248201527f5061757361626c652e756e70617573653a20696e76616c696420617474656d7060448201527f7420746f2070617573652066756e6374696f6e616c697479000000000000000060648201526084016105f6565b606b81905560405181815233907f3582d1828e26bf56bd801502bc021ac0bc8afb57c826e4986b45593c8fad389c906020016106ab565b606a546001600160a01b031615801561135b57506001600160a01b03821615155b6113dd5760405162461bcd60e51b815260206004820152604760248201527f5061757361626c652e5f696e697469616c697a655061757365723a205f696e6960448201527f7469616c697a6550617573657228292063616e206f6e6c792062652063616c6c6064820152666564206f6e636560c81b608482015260a4016105f6565b606b81905560405181815233907fab40a374bc51de372200a8bc981af8c9ecdc08dfdaef0bb6e09f88f3c616ef3d9060200160405180910390a250606a80546001600160a01b0319166001600160a01b0392909216919091179055565b603380546001600160a01b038381166001600160a01b0319831681179093556040519116919082907f8be0079c531659141344cd1fd0a4f28419497f9722a3daafe3b4186f6b6457e090600090a35050565b6033546001600160a01b03163314610aeb5760405162461bcd60e51b815260206004820181905260248201527f4f776e61626c653a2063616c6c6572206973206e6f7420746865206f776e657260448201526064016105f6565b606b546000906001908116141561153f5760405162461bcd60e51b815260206004820152601960248201527f5061757361626c653a20696e646578206973207061757365640000000000000060448201526064016105f6565b6001600160a01b0380831660009081526067602052604090205416806115e25760405162461bcd60e51b815260206004820152604c60248201527f456967656e4c61797244656c65676174696f6e2e5f64656c65676174653a206f60448201527f70657261746f7220686173206e6f74207965742072656769737465726564206160648201526b7320612064656c656761746560a01b608482015260a4016105f6565b6001600160a01b0380851660009081526068602052604090205416156116705760405162461bcd60e51b815260206004820152603d60248201527f456967656e4c61797244656c65676174696f6e2e5f64656c65676174653a207360448201527f74616b657220686173206578697374696e672064656c65676174696f6e00000060648201526084016105f6565b6001600160a01b0384811660008181526068602052604080822080546001600160a01b031916888616179055516394f649dd60e01b815260048101929092529182917f0000000000000000000000000000000000000000000000000000000000000000909116906394f649dd90602401600060405180830381865afa1580156116fd573d6000803e3d6000fd5b505050506040513d6000823e601f3d908101601f191682016040526117259190810190611efe565b8151919350915060005b81811015610ace5782818151811061174957611749611cde565b602002602001015160666000896001600160a01b03166001600160a01b03168152602001908152602001600020600086848151811061178a5761178a611cde565b60200260200101516001600160a01b03166001600160a01b0316815260200190815260200160002060008282546117c19190611cb0565b909155505060010161172f565b60008060006117de8686866117f4565b915091506117eb8161182d565b50949350505050565b6000806001600160ff1b0383168161181160ff86901c601b611cb0565b905061181f8782888561197b565b935093505050935093915050565b600081600481111561184157611841611fc3565b141561184a5750565b600181600481111561185e5761185e611fc3565b14156118ac5760405162461bcd60e51b815260206004820152601860248201527f45434453413a20696e76616c6964207369676e6174757265000000000000000060448201526064016105f6565b60028160048111156118c0576118c0611fc3565b141561190e5760405162461bcd60e51b815260206004820152601f60248201527f45434453413a20696e76616c6964207369676e6174757265206c656e6774680060448201526064016105f6565b600381600481111561192257611922611fc3565b1415610ba05760405162461bcd60e51b815260206004820152602260248201527f45434453413a20696e76616c6964207369676e6174757265202773272076616c604482015261756560f01b60648201526084016105f6565b6000807f7fffffffffffffffffffffffffffffff5d576e7357a4501ddfe92f46681b20a08311156119b25750600090506003611a36565b6040805160008082526020820180845289905260ff881692820192909252606081018690526080810185905260019060a0016020604051602081039080840390855afa158015611a06573d6000803e3d6000fd5b5050604051601f1901519150506001600160a01b038116611a2f57600060019250925050611a36565b9150600090505b94509492505050565b600060208284031215611a5157600080fd5b5035919050565b6001600160a01b0381168114610ba057600080fd5b600060208284031215611a7f57600080fd5b8135611a8a81611a58565b9392505050565b600080600060608486031215611aa657600080fd5b8335611ab181611a58565b92506020840135611ac181611a58565b929592945050506040919091013590565b60008060408385031215611ae557600080fd5b8235611af081611a58565b91506020830135611b0081611a58565b809150509250929050565b60008083601f840112611b1d57600080fd5b50813567ffffffffffffffff811115611b3557600080fd5b6020830191508360208260051b8501011115611b5057600080fd5b9250929050565b600080600080600060608688031215611b6f57600080fd5b8535611b7a81611a58565b9450602086013567ffffffffffffffff80821115611b9757600080fd5b611ba389838a01611b0b565b90965094506040880135915080821115611bbc57600080fd5b50611bc988828901611b0b565b969995985093965092949392505050565b600060208284031215611bec57600080fd5b813560ff81168114611a8a57600080fd5b600080600080600060a08688031215611c1557600080fd5b8535611c2081611a58565b94506020860135611c3081611a58565b94979496505050506040830135926060810135926080909101359150565b600060208284031215611c6057600080fd5b8151611a8a81611a58565b60208082526015908201527437b7363ca4b73b32b9ba36b2b73a26b0b730b3b2b960591b604082015260600190565b634e487b7160e01b600052601160045260246000fd5b60008219821115611cc357611cc3611c9a565b500190565b634e487b7160e01b600052604160045260246000fd5b634e487b7160e01b600052603260045260246000fd5b84815260006020608081840152855180608085015260005b81811015611d285787810183015185820160a001528201611d0c565b81811115611d3a57600060a083870101525b5060408401869052601f01601f1916830160a0019150611d67905060608301846001600160a01b03169052565b95945050505050565b600082821015611d8257611d82611c9a565b500390565b600060208284031215611d9957600080fd5b81518015158114611a8a57600080fd5b60208082526054908201527f496e766573746d656e744d616e616765722e6465706f736974496e746f53747260408201527f61746567793a2064656c656761746f7220686173206e6f74207065726d697373606082015273696f6e20657865632064656c656761746520746f60601b608082015260a00190565b6000600019821415611e3757611e37611c9a565b5060010190565b604051601f8201601f1916810167ffffffffffffffff81118282101715611e6757611e67611cc8565b604052919050565b600067ffffffffffffffff821115611e8957611e89611cc8565b5060051b60200190565b600082601f830112611ea457600080fd5b81516020611eb9611eb483611e6f565b611e3e565b82815260059290921b84018101918181019086841115611ed857600080fd5b8286015b84811015611ef35780518352918301918301611edc565b509695505050505050565b60008060408385031215611f1157600080fd5b825167ffffffffffffffff80821115611f2957600080fd5b818501915085601f830112611f3d57600080fd5b81516020611f4d611eb483611e6f565b82815260059290921b84018101918181019089841115611f6c57600080fd5b948201945b83861015611f93578551611f8481611a58565b82529482019490820190611f71565b91880151919650909350505080821115611fac57600080fd5b50611fb985828601611e93565b9150509250929050565b634e487b7160e01b600052602160045260246000fdfea2646970667358221220121faaed132d92ec283fa668aae08539c8ad895f208a34c13bc8fe412382466664736f6c634300080c0033",
    "linkReferences": {}
  },
  "methodIdentifiers": {
    "DELEGATION_TYPEHASH()": "e7a324dc",
    "DOMAIN_SEPARATOR()": "3644e515",
    "DOMAIN_TYPEHASH()": "20606b70",
    "decreaseDelegatedShares(address,address[],uint256[])": "5820491c",
    "delegateTo(address)": "ac637c7a",
    "delegateToBySignature(address,address,uint256,bytes32,bytes32)": "b41b394b",
    "delegatedTo(address)": "65da1264",
    "getOperatorRewardAddress(address)": "ee4ea66a",
    "increaseDelegatedShares(address,address,uint256)": "28a573ae",
    "initialize(address,address)": "485cc955",
    "investmentManager()": "4b31bb10",
    "isDelegated(address)": "3e28391d",
    "isNotDelegated(address)": "1d3696b7",
    "isOperator(address)": "6d70f7ae",
    "nonces(address)": "7ecebe00",
    "operatorReceiverRewardAddress(address)": "8b8209df",
    "operatorShares(address,address)": "778e55f3",
    "owner()": "8da5cb5b",
    "pause(uint256)": "136439dd",
    "paused()": "5c975abb",
    "paused(uint8)": "5ac86ab7",
    "pauserRegistry()": "886f1195",
    "permissionManager()": "cc7a2049",
    "registerAsOperator(address)": "bd44e403",
    "renounceOwnership()": "715018a6",
    "transferOwnership(address)": "f2fde38b",
    "undelegate(address)": "da8be864",
    "unpause(uint256)": "fabc1cbc"
  },
  "id": 0
}