{
  "abi": [
    {
      "inputs": [
        {
          "internalType": "address",
          "name": "_pauser",
          "type": "address"
        },
        {
          "internalType": "address",
          "name": "_unpauser",
          "type": "address"
        }
      ],
      "stateMutability": "nonpayable",
      "type": "constructor"
    },
    {
      "anonymous": false,
      "inputs": [
        {
          "indexed": false,
          "internalType": "address",
          "name": "previousPauser",
          "type": "address"
        },
        {
          "indexed": false,
          "internalType": "address",
          "name": "newPauser",
          "type": "address"
        }
      ],
      "name": "PauserChanged",
      "type": "event"
    },
    {
      "anonymous": false,
      "inputs": [
        {
          "indexed": false,
          "internalType": "address",
          "name": "previousUnpauser",
          "type": "address"
        },
        {
          "indexed": false,
          "internalType": "address",
          "name": "newUnpauser",
          "type": "address"
        }
      ],
      "name": "UnpauserChanged",
      "type": "event"
    },
    {
      "inputs": [],
      "name": "pauser",
      "outputs": [
        {
          "internalType": "address",
          "name": "",
          "type": "address"
        }
      ],
      "stateMutability": "view",
      "type": "function"
    },
    {
      "inputs": [
        {
          "internalType": "address",
          "name": "newPauser",
          "type": "address"
        }
      ],
      "name": "setPauser",
      "outputs": [],
      "stateMutability": "nonpayable",
      "type": "function"
    },
    {
      "inputs": [
        {
          "internalType": "address",
          "name": "newUnpauser",
          "type": "address"
        }
      ],
      "name": "setUnpauser",
      "outputs": [],
      "stateMutability": "nonpayable",
      "type": "function"
    },
    {
      "inputs": [],
      "name": "unpauser",
      "outputs": [
        {
          "internalType": "address",
          "name": "",
          "type": "address"
        }
      ],
      "stateMutability": "view",
      "type": "function"
    }
  ],
  "bytecode": {
    "object": "0x608060405234801561001057600080fd5b506040516105e03803806105e083398101604081905261002f91610215565b61003882610048565b61004181610122565b5050610248565b6001600160a01b0381166100b95760405162461bcd60e51b815260206004820152602d60248201527f50617573657252656769737472792e5f7365745061757365723a207a65726f2060448201526c1859191c995cdcc81a5b9c1d5d609a1b60648201526084015b60405180910390fd5b600054604080516001600160a01b03928316815291831660208301527f95bb211a5a393c4d30c3edc9a745825fba4e6ad3e3bb949e6bf8ccdfe431a811910160405180910390a1600080546001600160a01b0319166001600160a01b0392909216919091179055565b6001600160a01b0381166101905760405162461bcd60e51b815260206004820152602f60248201527f50617573657252656769737472792e5f736574556e7061757365723a207a657260448201526e1bc81859191c995cdcc81a5b9c1d5d608a1b60648201526084016100b0565b600154604080516001600160a01b03928316815291831660208301527f06b4167a2528887a1e97a366eefe8549bfbf1ea3e6ac81cb2564a934d20e8892910160405180910390a1600180546001600160a01b0319166001600160a01b0392909216919091179055565b80516001600160a01b038116811461021057600080fd5b919050565b6000806040838503121561022857600080fd5b610231836101f9565b915061023f602084016101f9565b90509250929050565b610389806102576000396000f3fe608060405234801561001057600080fd5b506004361061004c5760003560e01c80632d88af4a146100515780639fd0506d14610066578063ce54842814610095578063eab66d7a146100a8575b600080fd5b61006461005f3660046102d9565b6100bb565b005b600054610079906001600160a01b031681565b6040516001600160a01b03909116815260200160405180910390f35b6100646100a33660046102d9565b6100fa565b600154610079906001600160a01b031681565b6001546001600160a01b031633146100ee5760405162461bcd60e51b81526004016100e590610309565b60405180910390fd5b6100f78161012d565b50565b6001546001600160a01b031633146101245760405162461bcd60e51b81526004016100e590610309565b6100f781610202565b6001600160a01b0381166101995760405162461bcd60e51b815260206004820152602d60248201527f50617573657252656769737472792e5f7365745061757365723a207a65726f2060448201526c1859191c995cdcc81a5b9c1d5d609a1b60648201526084016100e5565b600054604080516001600160a01b03928316815291831660208301527f95bb211a5a393c4d30c3edc9a745825fba4e6ad3e3bb949e6bf8ccdfe431a811910160405180910390a1600080546001600160a01b0319166001600160a01b0392909216919091179055565b6001600160a01b0381166102705760405162461bcd60e51b815260206004820152602f60248201527f50617573657252656769737472792e5f736574556e7061757365723a207a657260448201526e1bc81859191c995cdcc81a5b9c1d5d608a1b60648201526084016100e5565b600154604080516001600160a01b03928316815291831660208301527f06b4167a2528887a1e97a366eefe8549bfbf1ea3e6ac81cb2564a934d20e8892910160405180910390a1600180546001600160a01b0319166001600160a01b0392909216919091179055565b6000602082840312156102eb57600080fd5b81356001600160a01b038116811461030257600080fd5b9392505050565b6020808252602a908201527f6d73672e73656e646572206973206e6f74207065726d697373696f6e6564206160408201526939903ab73830bab9b2b960b11b60608201526080019056fea264697066735822122028fb5294d3a04dee48657e73a3685b670691896e41caac6f1fdeca24799fc42964736f6c634300080c0033",
    "linkReferences": {}
  },
  "methodIdentifiers": {
    "pauser()": "9fd0506d",
    "setPauser(address)": "2d88af4a",
    "setUnpauser(address)": "ce548428",
    "unpauser()": "eab66d7a"
  },
  "id": 60
}