{
  "abi": [
    {
      "inputs": [
        {
          "internalType": "contract IInvestmentManager",
          "name": "_investmentManager",
          "type": "address"
        }
      ],
      "stateMutability": "nonpayable",
      "type": "constructor"
    },
    {
      "anonymous": false,
      "inputs": [
        {
          "indexed": false,
          "internalType": "uint8",
          "name": "version",
          "type": "uint8"
        }
      ],
      "name": "Initialized",
      "type": "event"
    },
    {
      "anonymous": false,
      "inputs": [
        {
          "indexed": true,
          "internalType": "address",
          "name": "account",
          "type": "address"
        },
        {
          "indexed": false,
          "internalType": "uint256",
          "name": "newPausedStatus",
          "type": "uint256"
        }
      ],
      "name": "Paused",
      "type": "event"
    },
    {
      "anonymous": false,
      "inputs": [
        {
          "indexed": true,
          "internalType": "address",
          "name": "account",
          "type": "address"
        },
        {
          "indexed": false,
          "internalType": "uint256",
          "name": "newPausedStatus",
          "type": "uint256"
        }
      ],
      "name": "Unpaused",
      "type": "event"
    },
    {
      "inputs": [
        {
          "internalType": "contract IERC20",
          "name": "token",
          "type": "address"
        },
        {
          "internalType": "uint256",
          "name": "amount",
          "type": "uint256"
        }
      ],
      "name": "deposit",
      "outputs": [
        {
          "internalType": "uint256",
          "name": "newShares",
          "type": "uint256"
        }
      ],
      "stateMutability": "nonpayable",
      "type": "function"
    },
    {
      "inputs": [],
      "name": "explanation",
      "outputs": [
        {
          "internalType": "string",
          "name": "",
          "type": "string"
        }
      ],
      "stateMutability": "pure",
      "type": "function"
    },
    {
      "inputs": [
        {
          "internalType": "contract IERC20",
          "name": "_underlyingToken",
          "type": "address"
        },
        {
          "internalType": "contract IPauserRegistry",
          "name": "_pauserRegistry",
          "type": "address"
        }
      ],
      "name": "initialize",
      "outputs": [],
      "stateMutability": "nonpayable",
      "type": "function"
    },
    {
      "inputs": [],
      "name": "investmentManager",
      "outputs": [
        {
          "internalType": "contract IInvestmentManager",
          "name": "",
          "type": "address"
        }
      ],
      "stateMutability": "view",
      "type": "function"
    },
    {
      "inputs": [
        {
          "internalType": "uint256",
          "name": "newPausedStatus",
          "type": "uint256"
        }
      ],
      "name": "pause",
      "outputs": [],
      "stateMutability": "nonpayable",
      "type": "function"
    },
    {
      "inputs": [
        {
          "internalType": "uint8",
          "name": "index",
          "type": "uint8"
        }
      ],
      "name": "paused",
      "outputs": [
        {
          "internalType": "bool",
          "name": "",
          "type": "bool"
        }
      ],
      "stateMutability": "view",
      "type": "function"
    },
    {
      "inputs": [],
      "name": "paused",
      "outputs": [
        {
          "internalType": "uint256",
          "name": "",
          "type": "uint256"
        }
      ],
      "stateMutability": "view",
      "type": "function"
    },
    {
      "inputs": [],
      "name": "pauserRegistry",
      "outputs": [
        {
          "internalType": "contract IPauserRegistry",
          "name": "",
          "type": "address"
        }
      ],
      "stateMutability": "view",
      "type": "function"
    },
    {
      "inputs": [
        {
          "internalType": "address",
          "name": "user",
          "type": "address"
        }
      ],
      "name": "shares",
      "outputs": [
        {
          "internalType": "uint256",
          "name": "",
          "type": "uint256"
        }
      ],
      "stateMutability": "view",
      "type": "function"
    },
    {
      "inputs": [
        {
          "internalType": "uint256",
          "name": "amountShares",
          "type": "uint256"
        }
      ],
      "name": "sharesToUnderlying",
      "outputs": [
        {
          "internalType": "uint256",
          "name": "",
          "type": "uint256"
        }
      ],
      "stateMutability": "view",
      "type": "function"
    },
    {
      "inputs": [
        {
          "internalType": "uint256",
          "name": "amountShares",
          "type": "uint256"
        }
      ],
      "name": "sharesToUnderlyingView",
      "outputs": [
        {
          "internalType": "uint256",
          "name": "",
          "type": "uint256"
        }
      ],
      "stateMutability": "view",
      "type": "function"
    },
    {
      "inputs": [],
      "name": "totalShares",
      "outputs": [
        {
          "internalType": "uint256",
          "name": "",
          "type": "uint256"
        }
      ],
      "stateMutability": "view",
      "type": "function"
    },
    {
      "inputs": [
        {
          "internalType": "uint256",
          "name": "amountUnderlying",
          "type": "uint256"
        }
      ],
      "name": "underlyingToShares",
      "outputs": [
        {
          "internalType": "uint256",
          "name": "",
          "type": "uint256"
        }
      ],
      "stateMutability": "view",
      "type": "function"
    },
    {
      "inputs": [
        {
          "internalType": "uint256",
          "name": "amountUnderlying",
          "type": "uint256"
        }
      ],
      "name": "underlyingToSharesView",
      "outputs": [
        {
          "internalType": "uint256",
          "name": "",
          "type": "uint256"
        }
      ],
      "stateMutability": "view",
      "type": "function"
    },
    {
      "inputs": [],
      "name": "underlyingToken",
      "outputs": [
        {
          "internalType": "contract IERC20",
          "name": "",
          "type": "address"
        }
      ],
      "stateMutability": "view",
      "type": "function"
    },
    {
      "inputs": [
        {
          "internalType": "uint256",
          "name": "newPausedStatus",
          "type": "uint256"
        }
      ],
      "name": "unpause",
      "outputs": [],
      "stateMutability": "nonpayable",
      "type": "function"
    },
    {
      "inputs": [
        {
          "internalType": "address",
          "name": "user",
          "type": "address"
        }
      ],
      "name": "userUnderlying",
      "outputs": [
        {
          "internalType": "uint256",
          "name": "",
          "type": "uint256"
        }
      ],
      "stateMutability": "nonpayable",
      "type": "function"
    },
    {
      "inputs": [
        {
          "internalType": "address",
          "name": "user",
          "type": "address"
        }
      ],
      "name": "userUnderlyingView",
      "outputs": [
        {
          "internalType": "uint256",
          "name": "",
          "type": "uint256"
        }
      ],
      "stateMutability": "view",
      "type": "function"
    },
    {
      "inputs": [
        {
          "internalType": "address",
          "name": "depositor",
          "type": "address"
        },
        {
          "internalType": "contract IERC20",
          "name": "token",
          "type": "address"
        },
        {
          "internalType": "uint256",
          "name": "amountShares",
          "type": "uint256"
        }
      ],
      "name": "withdraw",
      "outputs": [],
      "stateMutability": "nonpayable",
      "type": "function"
    }
  ],
  "bytecode": {
    "object": "0x60a060405234801561001057600080fd5b5060405161154338038061154383398101604081905261002f9161010a565b6001600160a01b03811660805261004461004a565b5061013a565b600054610100900460ff16156100b65760405162461bcd60e51b815260206004820152602760248201527f496e697469616c697a61626c653a20636f6e747261637420697320696e697469604482015266616c697a696e6760c81b606482015260840160405180910390fd5b60005460ff9081161015610108576000805460ff191660ff9081179091556040519081527f7f26b83ff96e1f2b6a682f133852f6798a09c465da95921460cefb38474024989060200160405180910390a15b565b60006020828403121561011c57600080fd5b81516001600160a01b038116811461013357600080fd5b9392505050565b6080516113d961016a600039600081816101ad015281816104e3015281816107e801526108b301526113d96000f3fe608060405234801561001057600080fd5b50600436106101215760003560e01c80637a8b2637116100ad578063ce7c2ac211610071578063ce7c2ac214610280578063d9caed1214610293578063e3dae51c146102a6578063f3e73875146102b9578063fabc1cbc146102cc57600080fd5b80637a8b263714610219578063886f11951461022c5780638c871019146102455780638f6a624014610258578063ab5921e11461026b57600080fd5b8063485cc955116100f4578063485cc955146101955780634b31bb10146101a8578063553ca5f8146101cf5780635ac86ab7146101e25780635c975abb1461021157600080fd5b8063136439dd146101265780632495a5991461013b5780633a98ef391461016b57806347e7ef2414610182575b600080fd5b61013961013436600461108c565b6102df565b005b60025461014e906001600160a01b031681565b6040516001600160a01b0390911681526020015b60405180910390f35b61017460035481565b604051908152602001610162565b6101746101903660046110bd565b610483565b6101396101a33660046110e9565b610611565b61014e7f000000000000000000000000000000000000000000000000000000000000000081565b6101746101dd366004611122565b610742565b6102016101f036600461113f565b6001805460ff9092161b9081161490565b6040519015158152602001610162565b600154610174565b61017461022736600461108c565b610756565b60005461014e906201000090046001600160a01b031681565b61017461025336600461108c565b610787565b610174610266366004611122565b610792565b6102736107a0565b6040516101629190611192565b61017461028e366004611122565b6107c0565b6101396102a13660046111c5565b610855565b6101746102b436600461108c565b610a82565b6101746102c736600461108c565b610ac8565b6101396102da36600461108c565b610ad3565b600060029054906101000a90046001600160a01b03166001600160a01b0316639fd0506d6040518163ffffffff1660e01b8152600401602060405180830381865afa158015610332573d6000803e3d6000fd5b505050506040513d601f19601f820116820180604052508101906103569190611206565b6001600160a01b0316336001600160a01b0316146103cc5760405162461bcd60e51b815260206004820152602860248201527f6d73672e73656e646572206973206e6f74207065726d697373696f6e6564206160448201526739903830bab9b2b960c11b60648201526084015b60405180910390fd5b600154818116146104455760405162461bcd60e51b815260206004820152603860248201527f5061757361626c652e70617573653a20696e76616c696420617474656d70742060448201527f746f20756e70617573652066756e6374696f6e616c697479000000000000000060648201526084016103c3565b600181905560405181815233907fab40a374bc51de372200a8bc981af8c9ecdc08dfdaef0bb6e09f88f3c616ef3d906020015b60405180910390a250565b600180546000918291811614156104d85760405162461bcd60e51b815260206004820152601960248201527814185d5cd8589b194e881a5b99195e081a5cc81c185d5cd959603a1b60448201526064016103c3565b336001600160a01b037f000000000000000000000000000000000000000000000000000000000000000016146105205760405162461bcd60e51b81526004016103c390611223565b6002546001600160a01b038581169116146105a5576040805162461bcd60e51b81526020600482015260248101919091527f496e766573746d656e745374726174656779426173652e6465706f7369743a2060448201527f43616e206f6e6c79206465706f73697420756e6465726c79696e67546f6b656e60648201526084016103c3565b6000836105b0610c72565b6105ba9190611285565b90508015806105c95750600354155b156105d6578392506105f2565b80600354856105e5919061129c565b6105ef91906112bb565b92505b826003600082825461060491906112dd565b9091555050505092915050565b600054610100900460ff16158080156106315750600054600160ff909116105b8061064b5750303b15801561064b575060005460ff166001145b6106ae5760405162461bcd60e51b815260206004820152602e60248201527f496e697469616c697a61626c653a20636f6e747261637420697320616c72656160448201526d191e481a5b9a5d1a585b1a5e995960921b60648201526084016103c3565b6000805460ff1916600117905580156106d1576000805461ff0019166101001790555b600280546001600160a01b0319166001600160a01b0385161790556106f7826000610ce4565b801561073d576000805461ff0019169055604051600181527f7f26b83ff96e1f2b6a682f133852f6798a09c465da95921460cefb38474024989060200160405180910390a15b505050565b6000610750610227836107c0565b92915050565b600060035460001415610767575090565b60035482610773610c72565b61077d919061129c565b61075091906112bb565b600061075082610a82565b60006107506102c7836107c0565b606060405180608001604052806057815260200161134d60579139905090565b604051636be2343f60e01b81526001600160a01b0382811660048301523060248301526000917f000000000000000000000000000000000000000000000000000000000000000090911690636be2343f90604401602060405180830381865afa158015610831573d6000803e3d6000fd5b505050506040513d601f19601f8201168201806040525081019061075091906112f5565b60018054600290811614156108a85760405162461bcd60e51b815260206004820152601960248201527814185d5cd8589b194e881a5b99195e081a5cc81c185d5cd959603a1b60448201526064016103c3565b336001600160a01b037f000000000000000000000000000000000000000000000000000000000000000016146108f05760405162461bcd60e51b81526004016103c390611223565b6002546001600160a01b038481169116146109815760405162461bcd60e51b815260206004820152604560248201527f496e766573746d656e745374726174656779426173652e77697468647261773a60448201527f2043616e206f6e6c7920776974686472617720746865207374726174656779206064820152643a37b5b2b760d91b608482015260a4016103c3565b600354821115610a1f5760405162461bcd60e51b815260206004820152605760248201527f496e766573746d656e745374726174656779426173652e77697468647261773a60448201527f20616d6f756e74536861726573206d757374206265206c657373207468616e2060648201527f6f7220657175616c20746f20746f74616c536861726573000000000000000000608482015260a4016103c3565b60038054838103909155600083821415610a4257610a3b610c72565b9050610a63565b8184610a4c610c72565b610a56919061129c565b610a6091906112bb565b90505b600254610a7a906001600160a01b03168783610df2565b505050505050565b600080610a8d610c72565b9050801580610a9c5750600354155b15610aa8575090919050565b8060035484610ab7919061129c565b610ac191906112bb565b9392505050565b600061075082610756565b600060029054906101000a90046001600160a01b03166001600160a01b031663eab66d7a6040518163ffffffff1660e01b8152600401602060405180830381865afa158015610b26573d6000803e3d6000fd5b505050506040513d601f19601f82011682018060405250810190610b4a9190611206565b6001600160a01b0316336001600160a01b031614610bbd5760405162461bcd60e51b815260206004820152602a60248201527f6d73672e73656e646572206973206e6f74207065726d697373696f6e6564206160448201526939903ab73830bab9b2b960b11b60648201526084016103c3565b600154198119600154191614610c3b5760405162461bcd60e51b815260206004820152603860248201527f5061757361626c652e756e70617573653a20696e76616c696420617474656d7060448201527f7420746f2070617573652066756e6374696f6e616c697479000000000000000060648201526084016103c3565b600181905560405181815233907f3582d1828e26bf56bd801502bc021ac0bc8afb57c826e4986b45593c8fad389c90602001610478565b6002546040516370a0823160e01b81523060048201526000916001600160a01b0316906370a0823190602401602060405180830381865afa158015610cbb573d6000803e3d6000fd5b505050506040513d601f19601f82011682018060405250810190610cdf91906112f5565b905090565b6000546201000090046001600160a01b0316158015610d0b57506001600160a01b03821615155b610d8d5760405162461bcd60e51b815260206004820152604760248201527f5061757361626c652e5f696e697469616c697a655061757365723a205f696e6960448201527f7469616c697a6550617573657228292063616e206f6e6c792062652063616c6c6064820152666564206f6e636560c81b608482015260a4016103c3565b600181905560405181815233907fab40a374bc51de372200a8bc981af8c9ecdc08dfdaef0bb6e09f88f3c616ef3d9060200160405180910390a250600080546001600160a01b03909216620100000262010000600160b01b0319909216919091179055565b604080516001600160a01b03848116602483015260448083018590528351808403909101815260649092018352602080830180516001600160e01b031663a9059cbb60e01b17905283518085019094528084527f5361666545524332303a206c6f772d6c6576656c2063616c6c206661696c65649084015261073d92869291600091610e82918516908490610eff565b80519091501561073d5780806020019051810190610ea0919061130e565b61073d5760405162461bcd60e51b815260206004820152602a60248201527f5361666545524332303a204552433230206f7065726174696f6e20646964206e6044820152691bdd081cdd58d8d9595960b21b60648201526084016103c3565b6060610f0e8484600085610f16565b949350505050565b606082471015610f775760405162461bcd60e51b815260206004820152602660248201527f416464726573733a20696e73756666696369656e742062616c616e636520666f6044820152651c8818d85b1b60d21b60648201526084016103c3565b600080866001600160a01b03168587604051610f939190611330565b60006040518083038185875af1925050503d8060008114610fd0576040519150601f19603f3d011682016040523d82523d6000602084013e610fd5565b606091505b5091509150610fe687838387610ff1565b979650505050505050565b6060831561105d578251611056576001600160a01b0385163b6110565760405162461bcd60e51b815260206004820152601d60248201527f416464726573733a2063616c6c20746f206e6f6e2d636f6e747261637400000060448201526064016103c3565b5081610f0e565b610f0e83838151156110725781518083602001fd5b8060405162461bcd60e51b81526004016103c39190611192565b60006020828403121561109e57600080fd5b5035919050565b6001600160a01b03811681146110ba57600080fd5b50565b600080604083850312156110d057600080fd5b82356110db816110a5565b946020939093013593505050565b600080604083850312156110fc57600080fd5b8235611107816110a5565b91506020830135611117816110a5565b809150509250929050565b60006020828403121561113457600080fd5b8135610ac1816110a5565b60006020828403121561115157600080fd5b813560ff81168114610ac157600080fd5b60005b8381101561117d578181015183820152602001611165565b8381111561118c576000848401525b50505050565b60208152600082518060208401526111b1816040850160208701611162565b601f01601f19169190910160400192915050565b6000806000606084860312156111da57600080fd5b83356111e5816110a5565b925060208401356111f5816110a5565b929592945050506040919091013590565b60006020828403121561121857600080fd5b8151610ac1816110a5565b6020808252602c908201527f496e766573746d656e745374726174656779426173652e6f6e6c79496e76657360408201526b3a36b2b73a26b0b730b3b2b960a11b606082015260800190565b634e487b7160e01b600052601160045260246000fd5b6000828210156112975761129761126f565b500390565b60008160001904831182151516156112b6576112b661126f565b500290565b6000826112d857634e487b7160e01b600052601260045260246000fd5b500490565b600082198211156112f0576112f061126f565b500190565b60006020828403121561130757600080fd5b5051919050565b60006020828403121561132057600080fd5b81518015158114610ac157600080fd5b60008251611342818460208701611162565b919091019291505056fe4261736520496e766573746d656e74537472617465677920696d706c656d656e746174696f6e20746f20696e68657269742066726f6d20666f72206d6f726520636f6d706c657820696d706c656d656e746174696f6e73a264697066735822122086882c08d9b647b64a1702a9459fb66bd6f0db3b59c1f86307791cbcfdf2b5e864736f6c634300080c0033",
    "linkReferences": {}
  },
  "methodIdentifiers": {
    "deposit(address,uint256)": "47e7ef24",
    "explanation()": "ab5921e1",
    "initialize(address,address)": "485cc955",
    "investmentManager()": "4b31bb10",
    "pause(uint256)": "136439dd",
    "paused()": "5c975abb",
    "paused(uint8)": "5ac86ab7",
    "pauserRegistry()": "886f1195",
    "shares(address)": "ce7c2ac2",
    "sharesToUnderlying(uint256)": "f3e73875",
    "sharesToUnderlyingView(uint256)": "7a8b2637",
    "totalShares()": "3a98ef39",
    "underlyingToShares(uint256)": "8c871019",
    "underlyingToSharesView(uint256)": "e3dae51c",
    "underlyingToken()": "2495a599",
    "unpause(uint256)": "fabc1cbc",
    "userUnderlying(address)": "8f6a6240",
    "userUnderlyingView(address)": "553ca5f8",
    "withdraw(address,address,uint256)": "d9caed12"
  },
  "id": 29
}