{
  "abi": [
    {
      "inputs": [
        {
          "internalType": "contract IInvestmentManager",
          "name": "_investmentManager",
          "type": "address"
        },
        {
          "internalType": "contract IServiceManager",
          "name": "_serviceManager",
          "type": "address"
        },
        {
          "internalType": "uint8",
          "name": "_NUMBER_OF_QUORUMS",
          "type": "uint8"
        },
        {
          "internalType": "contract IBLSPublicKeyCompendium",
          "name": "_pubkeyCompendium",
          "type": "address"
        },
        {
          "internalType": "contract IRegistryPermission",
          "name": "_permissionManager",
          "type": "address"
        },
        {
          "internalType": "address",
          "name": "_forceDeregister",
          "type": "address"
        }
      ],
      "stateMutability": "nonpayable",
      "type": "constructor"
    },
    {
      "anonymous": false,
      "inputs": [
        {
          "indexed": false,
          "internalType": "address",
          "name": "operator",
          "type": "address"
        },
        {
          "indexed": false,
          "internalType": "address",
          "name": "swapped",
          "type": "address"
        },
        {
          "components": [
            {
              "internalType": "uint256",
              "name": "X",
              "type": "uint256"
            },
            {
              "internalType": "uint256",
              "name": "Y",
              "type": "uint256"
            }
          ],
          "indexed": false,
          "internalType": "struct BN254.G1Point",
          "name": "pk",
          "type": "tuple"
        },
        {
          "indexed": false,
          "internalType": "bytes32",
          "name": "apkHash",
          "type": "bytes32"
        }
      ],
      "name": "Deregistration",
      "type": "event"
    },
    {
      "anonymous": false,
      "inputs": [
        {
          "indexed": false,
          "internalType": "uint8",
          "name": "version",
          "type": "uint8"
        }
      ],
      "name": "Initialized",
      "type": "event"
    },
    {
      "anonymous": false,
      "inputs": [
        {
          "indexed": true,
          "internalType": "address",
          "name": "previousOwner",
          "type": "address"
        },
        {
          "indexed": true,
          "internalType": "address",
          "name": "newOwner",
          "type": "address"
        }
      ],
      "name": "OwnershipTransferred",
      "type": "event"
    },
    {
      "anonymous": false,
      "inputs": [
        {
          "indexed": true,
          "internalType": "address",
          "name": "operator",
          "type": "address"
        },
        {
          "indexed": false,
          "internalType": "bytes32",
          "name": "pkHash",
          "type": "bytes32"
        },
        {
          "components": [
            {
              "internalType": "uint256",
              "name": "X",
              "type": "uint256"
            },
            {
              "internalType": "uint256",
              "name": "Y",
              "type": "uint256"
            }
          ],
          "indexed": false,
          "internalType": "struct BN254.G1Point",
          "name": "pk",
          "type": "tuple"
        },
        {
          "indexed": false,
          "internalType": "uint32",
          "name": "apkHashIndex",
          "type": "uint32"
        },
        {
          "indexed": false,
          "internalType": "bytes32",
          "name": "apkHash",
          "type": "bytes32"
        },
        {
          "indexed": false,
          "internalType": "string",
          "name": "socket",
          "type": "string"
        }
      ],
      "name": "Registration",
      "type": "event"
    },
    {
      "anonymous": false,
      "inputs": [
        {
          "indexed": false,
          "internalType": "address",
          "name": "operator",
          "type": "address"
        },
        {
          "indexed": false,
          "internalType": "string",
          "name": "socket",
          "type": "string"
        }
      ],
      "name": "SocketUpdate",
      "type": "event"
    },
    {
      "anonymous": false,
      "inputs": [
        {
          "indexed": false,
          "internalType": "address",
          "name": "operator",
          "type": "address"
        },
        {
          "indexed": false,
          "internalType": "uint96",
          "name": "firstQuorumStake",
          "type": "uint96"
        },
        {
          "indexed": false,
          "internalType": "uint96",
          "name": "secondQuorumStake",
          "type": "uint96"
        },
        {
          "indexed": false,
          "internalType": "uint32",
          "name": "updateBlockNumber",
          "type": "uint32"
        },
        {
          "indexed": false,
          "internalType": "uint32",
          "name": "prevUpdateBlockNumber",
          "type": "uint32"
        }
      ],
      "name": "StakeUpdate",
      "type": "event"
    },
    {
      "anonymous": false,
      "inputs": [
        {
          "indexed": true,
          "internalType": "uint256",
          "name": "quorumNumber",
          "type": "uint256"
        },
        {
          "indexed": false,
          "internalType": "contract IInvestmentStrategy",
          "name": "strategy",
          "type": "address"
        }
      ],
      "name": "StrategyAddedToQuorum",
      "type": "event"
    },
    {
      "anonymous": false,
      "inputs": [
        {
          "indexed": true,
          "internalType": "uint256",
          "name": "quorumNumber",
          "type": "uint256"
        },
        {
          "indexed": false,
          "internalType": "contract IInvestmentStrategy",
          "name": "strategy",
          "type": "address"
        }
      ],
      "name": "StrategyRemovedFromQuorum",
      "type": "event"
    },
    {
      "inputs": [],
      "name": "NUMBER_OF_QUORUMS",
      "outputs": [
        {
          "internalType": "uint256",
          "name": "",
          "type": "uint256"
        }
      ],
      "stateMutability": "view",
      "type": "function"
    },
    {
      "inputs": [
        {
          "internalType": "uint256",
          "name": "quorumNumber",
          "type": "uint256"
        },
        {
          "components": [
            {
              "internalType": "contract IInvestmentStrategy",
              "name": "strategy",
              "type": "address"
            },
            {
              "internalType": "uint96",
              "name": "multiplier",
              "type": "uint96"
            }
          ],
          "internalType": "struct VoteWeigherBaseStorage.StrategyAndWeightingMultiplier[]",
          "name": "_newStrategiesConsideredAndMultipliers",
          "type": "tuple[]"
        }
      ],
      "name": "addStrategiesConsideredAndMultipliers",
      "outputs": [],
      "stateMutability": "nonpayable",
      "type": "function"
    },
    {
      "inputs": [],
      "name": "apk",
      "outputs": [
        {
          "internalType": "uint256",
          "name": "X",
          "type": "uint256"
        },
        {
          "internalType": "uint256",
          "name": "Y",
          "type": "uint256"
        }
      ],
      "stateMutability": "view",
      "type": "function"
    },
    {
      "inputs": [
        {
          "internalType": "uint256",
          "name": "index",
          "type": "uint256"
        }
      ],
      "name": "apkHashes",
      "outputs": [
        {
          "internalType": "bytes32",
          "name": "",
          "type": "bytes32"
        }
      ],
      "stateMutability": "view",
      "type": "function"
    },
    {
      "inputs": [
        {
          "internalType": "uint256",
          "name": "index",
          "type": "uint256"
        }
      ],
      "name": "apkUpdateBlockNumbers",
      "outputs": [
        {
          "internalType": "uint32",
          "name": "",
          "type": "uint32"
        }
      ],
      "stateMutability": "view",
      "type": "function"
    },
    {
      "inputs": [
        {
          "internalType": "uint256",
          "name": "index",
          "type": "uint256"
        }
      ],
      "name": "apkUpdates",
      "outputs": [
        {
          "components": [
            {
              "internalType": "bytes32",
              "name": "apkHash",
              "type": "bytes32"
            },
            {
              "internalType": "uint32",
              "name": "blockNumber",
              "type": "uint32"
            }
          ],
          "internalType": "struct IBLSRegistry.ApkUpdate",
          "name": "",
          "type": "tuple"
        }
      ],
      "stateMutability": "view",
      "type": "function"
    },
    {
      "inputs": [
        {
          "internalType": "address",
          "name": "operator",
          "type": "address"
        },
        {
          "internalType": "uint256",
          "name": "blockNumber",
          "type": "uint256"
        },
        {
          "internalType": "uint256",
          "name": "stakeHistoryIndex",
          "type": "uint256"
        }
      ],
      "name": "checkOperatorActiveAtBlockNumber",
      "outputs": [
        {
          "internalType": "bool",
          "name": "",
          "type": "bool"
        }
      ],
      "stateMutability": "view",
      "type": "function"
    },
    {
      "inputs": [
        {
          "internalType": "address",
          "name": "operator",
          "type": "address"
        },
        {
          "internalType": "uint256",
          "name": "blockNumber",
          "type": "uint256"
        },
        {
          "internalType": "uint256",
          "name": "stakeHistoryIndex",
          "type": "uint256"
        }
      ],
      "name": "checkOperatorInactiveAtBlockNumber",
      "outputs": [
        {
          "internalType": "bool",
          "name": "",
          "type": "bool"
        }
      ],
      "stateMutability": "view",
      "type": "function"
    },
    {
      "inputs": [],
      "name": "delegation",
      "outputs": [
        {
          "internalType": "contract IEigenLayrDelegation",
          "name": "",
          "type": "address"
        }
      ],
      "stateMutability": "view",
      "type": "function"
    },
    {
      "inputs": [
        {
          "components": [
            {
              "internalType": "uint256",
              "name": "X",
              "type": "uint256"
            },
            {
              "internalType": "uint256",
              "name": "Y",
              "type": "uint256"
            }
          ],
          "internalType": "struct BN254.G1Point",
          "name": "pkToRemove",
          "type": "tuple"
        },
        {
          "internalType": "uint32",
          "name": "index",
          "type": "uint32"
        }
      ],
      "name": "deregisterOperator",
      "outputs": [
        {
          "internalType": "bool",
          "name": "",
          "type": "bool"
        }
      ],
      "stateMutability": "nonpayable",
      "type": "function"
    },
    {
      "inputs": [
        {
          "internalType": "address",
          "name": "operator",
          "type": "address"
        }
      ],
      "name": "firstQuorumStakedByOperator",
      "outputs": [
        {
          "internalType": "uint96",
          "name": "",
          "type": "uint96"
        }
      ],
      "stateMutability": "view",
      "type": "function"
    },
    {
      "inputs": [],
      "name": "forceDeregister",
      "outputs": [
        {
          "internalType": "address",
          "name": "",
          "type": "address"
        }
      ],
      "stateMutability": "view",
      "type": "function"
    },
    {
      "inputs": [
        {
          "components": [
            {
              "internalType": "uint256",
              "name": "X",
              "type": "uint256"
            },
            {
              "internalType": "uint256",
              "name": "Y",
              "type": "uint256"
            }
          ],
          "internalType": "struct BN254.G1Point",
          "name": "pkToRemove",
          "type": "tuple"
        },
        {
          "internalType": "address",
          "name": "operator",
          "type": "address"
        },
        {
          "internalType": "uint32",
          "name": "index",
          "type": "uint32"
        }
      ],
      "name": "forceDeregisterOperator",
      "outputs": [
        {
          "internalType": "bool",
          "name": "",
          "type": "bool"
        }
      ],
      "stateMutability": "nonpayable",
      "type": "function"
    },
    {
      "inputs": [],
      "name": "getApkUpdatesLength",
      "outputs": [
        {
          "internalType": "uint256",
          "name": "",
          "type": "uint256"
        }
      ],
      "stateMutability": "view",
      "type": "function"
    },
    {
      "inputs": [
        {
          "internalType": "uint256",
          "name": "index",
          "type": "uint256"
        },
        {
          "internalType": "uint32",
          "name": "blockNumber",
          "type": "uint32"
        }
      ],
      "name": "getCorrectApkHash",
      "outputs": [
        {
          "internalType": "bytes32",
          "name": "",
          "type": "bytes32"
        }
      ],
      "stateMutability": "view",
      "type": "function"
    },
    {
      "inputs": [
        {
          "internalType": "address",
          "name": "operator",
          "type": "address"
        }
      ],
      "name": "getFromTaskNumberForOperator",
      "outputs": [
        {
          "internalType": "uint32",
          "name": "",
          "type": "uint32"
        }
      ],
      "stateMutability": "view",
      "type": "function"
    },
    {
      "inputs": [
        {
          "internalType": "bytes32",
          "name": "pubkeyHash",
          "type": "bytes32"
        }
      ],
      "name": "getLengthOfPubkeyHashIndexHistory",
      "outputs": [
        {
          "internalType": "uint256",
          "name": "",
          "type": "uint256"
        }
      ],
      "stateMutability": "view",
      "type": "function"
    },
    {
      "inputs": [
        {
          "internalType": "bytes32",
          "name": "pubkeyHash",
          "type": "bytes32"
        }
      ],
      "name": "getLengthOfPubkeyHashStakeHistory",
      "outputs": [
        {
          "internalType": "uint256",
          "name": "",
          "type": "uint256"
        }
      ],
      "stateMutability": "view",
      "type": "function"
    },
    {
      "inputs": [],
      "name": "getLengthOfTotalOperatorsHistory",
      "outputs": [
        {
          "internalType": "uint256",
          "name": "",
          "type": "uint256"
        }
      ],
      "stateMutability": "view",
      "type": "function"
    },
    {
      "inputs": [],
      "name": "getLengthOfTotalStakeHistory",
      "outputs": [
        {
          "internalType": "uint256",
          "name": "",
          "type": "uint256"
        }
      ],
      "stateMutability": "view",
      "type": "function"
    },
    {
      "inputs": [
        {
          "internalType": "address",
          "name": "operator",
          "type": "address"
        }
      ],
      "name": "getMostRecentStakeByOperator",
      "outputs": [
        {
          "components": [
            {
              "internalType": "uint32",
              "name": "updateBlockNumber",
              "type": "uint32"
            },
            {
              "internalType": "uint32",
              "name": "nextUpdateBlockNumber",
              "type": "uint32"
            },
            {
              "internalType": "uint96",
              "name": "firstQuorumStake",
              "type": "uint96"
            },
            {
              "internalType": "uint96",
              "name": "secondQuorumStake",
              "type": "uint96"
            }
          ],
          "internalType": "struct IQuorumRegistry.OperatorStake",
          "name": "",
          "type": "tuple"
        }
      ],
      "stateMutability": "view",
      "type": "function"
    },
    {
      "inputs": [
        {
          "internalType": "address",
          "name": "operator",
          "type": "address"
        },
        {
          "internalType": "uint32",
          "name": "blockNumber",
          "type": "uint32"
        },
        {
          "internalType": "uint32",
          "name": "index",
          "type": "uint32"
        }
      ],
      "name": "getOperatorIndex",
      "outputs": [
        {
          "internalType": "uint32",
          "name": "",
          "type": "uint32"
        }
      ],
      "stateMutability": "view",
      "type": "function"
    },
    {
      "inputs": [
        {
          "internalType": "address",
          "name": "operator",
          "type": "address"
        }
      ],
      "name": "getOperatorPubkeyHash",
      "outputs": [
        {
          "internalType": "bytes32",
          "name": "",
          "type": "bytes32"
        }
      ],
      "stateMutability": "view",
      "type": "function"
    },
    {
      "inputs": [
        {
          "internalType": "bytes32",
          "name": "pubkeyHash",
          "type": "bytes32"
        },
        {
          "internalType": "uint256",
          "name": "index",
          "type": "uint256"
        }
      ],
      "name": "getStakeFromPubkeyHashAndIndex",
      "outputs": [
        {
          "components": [
            {
              "internalType": "uint32",
              "name": "updateBlockNumber",
              "type": "uint32"
            },
            {
              "internalType": "uint32",
              "name": "nextUpdateBlockNumber",
              "type": "uint32"
            },
            {
              "internalType": "uint96",
              "name": "firstQuorumStake",
              "type": "uint96"
            },
            {
              "internalType": "uint96",
              "name": "secondQuorumStake",
              "type": "uint96"
            }
          ],
          "internalType": "struct IQuorumRegistry.OperatorStake",
          "name": "",
          "type": "tuple"
        }
      ],
      "stateMutability": "view",
      "type": "function"
    },
    {
      "inputs": [
        {
          "internalType": "bytes32",
          "name": "pubkeyHash",
          "type": "bytes32"
        }
      ],
      "name": "getStakeHistoryLength",
      "outputs": [
        {
          "internalType": "uint256",
          "name": "",
          "type": "uint256"
        }
      ],
      "stateMutability": "view",
      "type": "function"
    },
    {
      "inputs": [
        {
          "internalType": "uint32",
          "name": "blockNumber",
          "type": "uint32"
        },
        {
          "internalType": "uint32",
          "name": "index",
          "type": "uint32"
        }
      ],
      "name": "getTotalOperators",
      "outputs": [
        {
          "internalType": "uint32",
          "name": "",
          "type": "uint32"
        }
      ],
      "stateMutability": "view",
      "type": "function"
    },
    {
      "inputs": [
        {
          "internalType": "uint256",
          "name": "index",
          "type": "uint256"
        }
      ],
      "name": "getTotalStakeFromIndex",
      "outputs": [
        {
          "components": [
            {
              "internalType": "uint32",
              "name": "updateBlockNumber",
              "type": "uint32"
            },
            {
              "internalType": "uint32",
              "name": "nextUpdateBlockNumber",
              "type": "uint32"
            },
            {
              "internalType": "uint96",
              "name": "firstQuorumStake",
              "type": "uint96"
            },
            {
              "internalType": "uint96",
              "name": "secondQuorumStake",
              "type": "uint96"
            }
          ],
          "internalType": "struct IQuorumRegistry.OperatorStake",
          "name": "",
          "type": "tuple"
        }
      ],
      "stateMutability": "view",
      "type": "function"
    },
    {
      "inputs": [
        {
          "internalType": "uint256[]",
          "name": "_quorumBips",
          "type": "uint256[]"
        },
        {
          "internalType": "address",
          "name": "initialOwner",
          "type": "address"
        },
        {
          "components": [
            {
              "internalType": "contract IInvestmentStrategy",
              "name": "strategy",
              "type": "address"
            },
            {
              "internalType": "uint96",
              "name": "multiplier",
              "type": "uint96"
            }
          ],
          "internalType": "struct VoteWeigherBaseStorage.StrategyAndWeightingMultiplier[]",
          "name": "_firstQuorumStrategiesConsideredAndMultipliers",
          "type": "tuple[]"
        },
        {
          "components": [
            {
              "internalType": "contract IInvestmentStrategy",
              "name": "strategy",
              "type": "address"
            },
            {
              "internalType": "uint96",
              "name": "multiplier",
              "type": "uint96"
            }
          ],
          "internalType": "struct VoteWeigherBaseStorage.StrategyAndWeightingMultiplier[]",
          "name": "_secondQuorumStrategiesConsideredAndMultipliers",
          "type": "tuple[]"
        }
      ],
      "name": "initialize",
      "outputs": [],
      "stateMutability": "nonpayable",
      "type": "function"
    },
    {
      "inputs": [],
      "name": "investmentManager",
      "outputs": [
        {
          "internalType": "contract IInvestmentManager",
          "name": "",
          "type": "address"
        }
      ],
      "stateMutability": "view",
      "type": "function"
    },
    {
      "inputs": [
        {
          "internalType": "address",
          "name": "operator",
          "type": "address"
        }
      ],
      "name": "isActiveOperator",
      "outputs": [
        {
          "internalType": "bool",
          "name": "",
          "type": "bool"
        }
      ],
      "stateMutability": "view",
      "type": "function"
    },
    {
      "inputs": [],
      "name": "minimumStakeFirstQuorum",
      "outputs": [
        {
          "internalType": "uint128",
          "name": "",
          "type": "uint128"
        }
      ],
      "stateMutability": "view",
      "type": "function"
    },
    {
      "inputs": [],
      "name": "minimumStakeSecondQuorum",
      "outputs": [
        {
          "internalType": "uint128",
          "name": "",
          "type": "uint128"
        }
      ],
      "stateMutability": "view",
      "type": "function"
    },
    {
      "inputs": [],
      "name": "numOperators",
      "outputs": [
        {
          "internalType": "uint32",
          "name": "",
          "type": "uint32"
        }
      ],
      "stateMutability": "view",
      "type": "function"
    },
    {
      "inputs": [
        {
          "internalType": "uint256",
          "name": "",
          "type": "uint256"
        }
      ],
      "name": "operatorList",
      "outputs": [
        {
          "internalType": "address",
          "name": "",
          "type": "address"
        }
      ],
      "stateMutability": "view",
      "type": "function"
    },
    {
      "inputs": [
        {
          "internalType": "address",
          "name": "operator",
          "type": "address"
        }
      ],
      "name": "operatorStakes",
      "outputs": [
        {
          "internalType": "uint96",
          "name": "",
          "type": "uint96"
        },
        {
          "internalType": "uint96",
          "name": "",
          "type": "uint96"
        }
      ],
      "stateMutability": "view",
      "type": "function"
    },
    {
      "inputs": [],
      "name": "owner",
      "outputs": [
        {
          "internalType": "address",
          "name": "",
          "type": "address"
        }
      ],
      "stateMutability": "view",
      "type": "function"
    },
    {
      "inputs": [],
      "name": "permissionManager",
      "outputs": [
        {
          "internalType": "contract IRegistryPermission",
          "name": "",
          "type": "address"
        }
      ],
      "stateMutability": "view",
      "type": "function"
    },
    {
      "inputs": [],
      "name": "pubkeyCompendium",
      "outputs": [
        {
          "internalType": "contract IBLSPublicKeyCompendium",
          "name": "",
          "type": "address"
        }
      ],
      "stateMutability": "view",
      "type": "function"
    },
    {
      "inputs": [
        {
          "internalType": "bytes32",
          "name": "",
          "type": "bytes32"
        },
        {
          "internalType": "uint256",
          "name": "",
          "type": "uint256"
        }
      ],
      "name": "pubkeyHashToIndexHistory",
      "outputs": [
        {
          "internalType": "uint32",
          "name": "toBlockNumber",
          "type": "uint32"
        },
        {
          "internalType": "uint32",
          "name": "index",
          "type": "uint32"
        }
      ],
      "stateMutability": "view",
      "type": "function"
    },
    {
      "inputs": [
        {
          "internalType": "bytes32",
          "name": "",
          "type": "bytes32"
        },
        {
          "internalType": "uint256",
          "name": "",
          "type": "uint256"
        }
      ],
      "name": "pubkeyHashToStakeHistory",
      "outputs": [
        {
          "internalType": "uint32",
          "name": "updateBlockNumber",
          "type": "uint32"
        },
        {
          "internalType": "uint32",
          "name": "nextUpdateBlockNumber",
          "type": "uint32"
        },
        {
          "internalType": "uint96",
          "name": "firstQuorumStake",
          "type": "uint96"
        },
        {
          "internalType": "uint96",
          "name": "secondQuorumStake",
          "type": "uint96"
        }
      ],
      "stateMutability": "view",
      "type": "function"
    },
    {
      "inputs": [
        {
          "internalType": "uint256",
          "name": "",
          "type": "uint256"
        }
      ],
      "name": "quorumBips",
      "outputs": [
        {
          "internalType": "uint256",
          "name": "",
          "type": "uint256"
        }
      ],
      "stateMutability": "view",
      "type": "function"
    },
    {
      "inputs": [
        {
          "internalType": "uint8",
          "name": "operatorType",
          "type": "uint8"
        },
        {
          "components": [
            {
              "internalType": "uint256",
              "name": "X",
              "type": "uint256"
            },
            {
              "internalType": "uint256",
              "name": "Y",
              "type": "uint256"
            }
          ],
          "internalType": "struct BN254.G1Point",
          "name": "pk",
          "type": "tuple"
        },
        {
          "internalType": "string",
          "name": "socket",
          "type": "string"
        }
      ],
      "name": "registerOperator",
      "outputs": [],
      "stateMutability": "nonpayable",
      "type": "function"
    },
    {
      "inputs": [
        {
          "internalType": "address",
          "name": "",
          "type": "address"
        }
      ],
      "name": "registry",
      "outputs": [
        {
          "internalType": "bytes32",
          "name": "pubkeyHash",
          "type": "bytes32"
        },
        {
          "internalType": "uint32",
          "name": "fromTaskNumber",
          "type": "uint32"
        },
        {
          "internalType": "enum IQuorumRegistry.Status",
          "name": "status",
          "type": "uint8"
        }
      ],
      "stateMutability": "view",
      "type": "function"
    },
    {
      "inputs": [
        {
          "internalType": "uint256",
          "name": "quorumNumber",
          "type": "uint256"
        },
        {
          "internalType": "contract IInvestmentStrategy[]",
          "name": "_strategiesToRemove",
          "type": "address[]"
        },
        {
          "internalType": "uint256[]",
          "name": "indicesToRemove",
          "type": "uint256[]"
        }
      ],
      "name": "removeStrategiesConsideredAndMultipliers",
      "outputs": [],
      "stateMutability": "nonpayable",
      "type": "function"
    },
    {
      "inputs": [],
      "name": "renounceOwnership",
      "outputs": [],
      "stateMutability": "nonpayable",
      "type": "function"
    },
    {
      "inputs": [
        {
          "internalType": "address",
          "name": "operator",
          "type": "address"
        }
      ],
      "name": "secondQuorumStakedByOperator",
      "outputs": [
        {
          "internalType": "uint96",
          "name": "",
          "type": "uint96"
        }
      ],
      "stateMutability": "view",
      "type": "function"
    },
    {
      "inputs": [],
      "name": "serviceManager",
      "outputs": [
        {
          "internalType": "contract IServiceManager",
          "name": "",
          "type": "address"
        }
      ],
      "stateMutability": "view",
      "type": "function"
    },
    {
      "inputs": [
        {
          "internalType": "address",
          "name": "_forceDeregister",
          "type": "address"
        }
      ],
      "name": "setForceDeregister",
      "outputs": [],
      "stateMutability": "nonpayable",
      "type": "function"
    },
    {
      "inputs": [
        {
          "internalType": "uint128",
          "name": "_minimumStakeFirstQuorum",
          "type": "uint128"
        }
      ],
      "name": "setMinimumStakeFirstQuorum",
      "outputs": [],
      "stateMutability": "nonpayable",
      "type": "function"
    },
    {
      "inputs": [
        {
          "internalType": "uint128",
          "name": "_minimumStakeSecondQuorum",
          "type": "uint128"
        }
      ],
      "name": "setMinimumStakeSecondQuorum",
      "outputs": [],
      "stateMutability": "nonpayable",
      "type": "function"
    },
    {
      "inputs": [
        {
          "internalType": "uint256",
          "name": "",
          "type": "uint256"
        },
        {
          "internalType": "uint256",
          "name": "",
          "type": "uint256"
        }
      ],
      "name": "strategiesConsideredAndMultipliers",
      "outputs": [
        {
          "internalType": "contract IInvestmentStrategy",
          "name": "strategy",
          "type": "address"
        },
        {
          "internalType": "uint96",
          "name": "multiplier",
          "type": "uint96"
        }
      ],
      "stateMutability": "view",
      "type": "function"
    },
    {
      "inputs": [
        {
          "internalType": "uint256",
          "name": "quorumNumber",
          "type": "uint256"
        }
      ],
      "name": "strategiesConsideredAndMultipliersLength",
      "outputs": [
        {
          "internalType": "uint256",
          "name": "",
          "type": "uint256"
        }
      ],
      "stateMutability": "view",
      "type": "function"
    },
    {
      "inputs": [
        {
          "internalType": "uint256",
          "name": "",
          "type": "uint256"
        }
      ],
      "name": "totalOperatorsHistory",
      "outputs": [
        {
          "internalType": "uint32",
          "name": "toBlockNumber",
          "type": "uint32"
        },
        {
          "internalType": "uint32",
          "name": "index",
          "type": "uint32"
        }
      ],
      "stateMutability": "view",
      "type": "function"
    },
    {
      "inputs": [],
      "name": "totalStake",
      "outputs": [
        {
          "internalType": "uint96",
          "name": "",
          "type": "uint96"
        },
        {
          "internalType": "uint96",
          "name": "",
          "type": "uint96"
        }
      ],
      "stateMutability": "view",
      "type": "function"
    },
    {
      "inputs": [
        {
          "internalType": "address",
          "name": "newOwner",
          "type": "address"
        }
      ],
      "name": "transferOwnership",
      "outputs": [],
      "stateMutability": "nonpayable",
      "type": "function"
    },
    {
      "inputs": [
        {
          "internalType": "string",
          "name": "newSocket",
          "type": "string"
        }
      ],
      "name": "updateSocket",
      "outputs": [],
      "stateMutability": "nonpayable",
      "type": "function"
    },
    {
      "inputs": [
        {
          "internalType": "address[]",
          "name": "operators",
          "type": "address[]"
        },
        {
          "internalType": "uint256[]",
          "name": "prevElements",
          "type": "uint256[]"
        }
      ],
      "name": "updateStakes",
      "outputs": [],
      "stateMutability": "nonpayable",
      "type": "function"
    },
    {
      "inputs": [
        {
          "internalType": "address",
          "name": "operator",
          "type": "address"
        },
        {
          "internalType": "uint256",
          "name": "quorumNumber",
          "type": "uint256"
        }
      ],
      "name": "weightOfOperator",
      "outputs": [
        {
          "internalType": "uint96",
          "name": "",
          "type": "uint96"
        }
      ],
      "stateMutability": "nonpayable",
      "type": "function"
    }
  ],
  "bytecode": {
    "object": "0x6101406040527001000000000000000000000000000000016067553480156200002757600080fd5b5060405162005408380380620054088339810160408190526200004a916200027b565b85858582828282828260ff8116620000cf5760405162461bcd60e51b815260206004820152603b60248201527f566f7465576569676865724261736553746f726167652e636f6e73747275637460448201527f6f723a205f4e554d4245525f4f465f51554f52554d53203d3d2030000000000060648201526084015b60405180910390fd5b6001600160a01b03831660a08190526040805163df5cf72360e01b8152905163df5cf723916004808201926020929091908290030181865afa1580156200011a573d6000803e3d6000fd5b505050506040513d601f19601f8201168201806040525081019062000140919062000314565b6001600160a01b03908116608052821660c05260ff811660e05262000164620001a3565b505050506001600160a01b03978816610100525050505091831661012052607180546001600160a01b0319169190931617909155506200033b92505050565b600054610100900460ff16156200020d5760405162461bcd60e51b815260206004820152602760248201527f496e697469616c697a61626c653a20636f6e747261637420697320696e697469604482015266616c697a696e6760c81b6064820152608401620000c6565b60005460ff908116101562000260576000805460ff191660ff9081179091556040519081527f7f26b83ff96e1f2b6a682f133852f6798a09c465da95921460cefb38474024989060200160405180910390a15b565b6001600160a01b03811681146200027857600080fd5b50565b60008060008060008060c087890312156200029557600080fd5b8651620002a28162000262565b6020880151909650620002b58162000262565b604088015190955060ff81168114620002cd57600080fd5b6060880151909450620002e08162000262565b6080880151909350620002f38162000262565b60a0880151909250620003068162000262565b809150509295509295509295565b6000602082840312156200032757600080fd5b8151620003348162000262565b9392505050565b60805160a05160c05160e051610100516101205161501b620003ed600039600081816108fe01528181610fea015261257801526000818161055d01526131ca0152600081816109a201528181610a37015281816119550152818161382601526138ce0152600081816106b501528181610b72015281816114e70152818161187501528181611be4015281816136dd0152613bfb015260006106ef01526000818161097b0152611a27015261501b6000f3fe608060405234801561001057600080fd5b506004361061038e5760003560e01c80637210b0c9116101de578063c9304a971161010f578063d266b108116100ad578063e84ef3cb1161007c578063e84ef3cb146109c4578063f2fde38b146109d7578063fae6cf58146109ea578063fd0d930a14610a0a57600080fd5b8063d266b10814610950578063ddd3773214610963578063df5cf72314610976578063e21ade6d1461099d57600080fd5b8063cb38f407116100e9578063cb38f407146108d3578063cc008423146108e6578063cc7a2049146108f9578063d24f6ddd1461092057600080fd5b8063c9304a97146108a5578063ca06c782146108b8578063ca150cb6146108c057600080fd5b8063a9983b5c1161017c578063b322bdc711610156578063b322bdc714610854578063b69c7f7714610867578063b7e6df0e1461088a578063bd8206881461089d57600080fd5b8063a9983b5c146107f0578063ae124d4014610822578063aeadd15c1461066d57600080fd5b8063891f28a5116101b8578063891f28a5146107b15780638b0e9f3f146107c45780638da5cb5b146107cc578063a3c96ce5146107dd57600080fd5b80637210b0c9146107785780638392eb591461078b57806388db78a91461079e57600080fd5b806328420dfa116102c35780633d74445d11610261578063629b312a11610230578063629b312a146107375780636bbc53101461074a5780636d3112cd1461075d578063715018a61461077057600080fd5b80633d74445d146106d75780634b31bb10146106ea5780634dcc3afd1461071157806353c9264a1461072457600080fd5b80633367cca51161029d5780633367cca51461068d5780633531d479146106a05780633770cc86146106a85780633998fdd3146106b057600080fd5b806328420dfa1461063a57806328797dfb1461065a5780632979536e1461066d57600080fd5b806310d8d746116103305780631c9856ae1161030a5780631c9856ae146105975780631d2c512a146105ca5780631ea1afe1146105ed5780632173fa231461062757600080fd5b806310d8d746146104f957806317422e8a1461052d578063187548c81461055857600080fd5b80630baa97981161036c5780630baa97981461044b5780630cf4b76714610460578063100bd46b14610473578063102068d31461049b57600080fd5b80630191f72c14610393578063038defd7146103b95780630712b6a414610401575b600080fd5b6103a66103a1366004614520565b610a33565b6040519081526020015b60405180910390f35b6103f26103c7366004614559565b6068602052600090815260409020805460019091015463ffffffff811690600160201b900460ff1683565b6040516103b09392919061458c565b61041461040f3660046145cb565b610b17565b6040805163ffffffff95861681529490931660208501526001600160601b03918216928401929092521660608201526080016103b0565b61045e6104593660046145ed565b610b70565b005b61045e61046e36600461465e565b610c41565b610486610481366004614520565b610d37565b60405163ffffffff90911681526020016103b0565b6104ae6104a9366004614520565b610d6c565b60408051825163ffffffff908116825260208085015190911690820152828201516001600160601b0390811692820192909252606092830151909116918101919091526080016103b0565b61050c610507366004614520565b610de6565b604080518251815260209283015163ffffffff1692810192909252016103b0565b61054061053b366004614559565b610e43565b6040516001600160601b0390911681526020016103b0565b61057f7f000000000000000000000000000000000000000000000000000000000000000081565b6040516001600160a01b0390911681526020016103b0565b6105aa6105a5366004614559565b610e5a565b604080516001600160601b039384168152929091166020830152016103b0565b6105dd6105d836600461474f565b610e7e565b60405190151581526020016103b0565b6106006105fb3660046145cb565b610f00565b604080516001600160a01b0390931683526001600160601b039091166020830152016103b0565b6104ae6106353660046145cb565b610f49565b6103a6610648366004614520565b60666020526000908152604090205481565b6105dd610668366004614799565b610fd2565b6103a661067b366004614520565b6000908152606c602052604090205490565b6105dd61069b366004614559565b611120565b606b546103a6565b606e546103a6565b61057f7f000000000000000000000000000000000000000000000000000000000000000081565b6103a66106e53660046147d1565b61115f565b61057f7f000000000000000000000000000000000000000000000000000000000000000081565b6103a661071f366004614520565b6112ea565b6104ae610732366004614559565b611318565b6105dd6107453660046147f6565b6113eb565b61045e6107583660046148fc565b6114e5565b61045e61076b366004614559565b6115a5565b61045e61165f565b610486610786366004614942565b611673565b610540610799366004614559565b61185c565b61045e6107ac3660046145ed565b611873565b6105406107bf366004614982565b611950565b6105aa611b53565b6033546001600160a01b031661057f565b61045e6107eb3660046149f2565b611be2565b60675461080a90600160801b90046001600160801b031681565b6040516001600160801b0390911681526020016103b0565b610486610830366004614559565b6001600160a01b031660009081526068602052604090206001015463ffffffff1690565b610486610862366004614a6b565b611f8a565b606f54607054610875919082565b604080519283526020830191909152016103b0565b61045e610898366004614a99565b6120ae565b606954610486565b61045e6108b3366004614b04565b612385565b606a546103a6565b60675461080a906001600160801b031681565b61057f6108e1366004614520565b6124c7565b60715461057f906001600160a01b031681565b61057f7f000000000000000000000000000000000000000000000000000000000000000081565b61093361092e3660046145cb565b6124f1565b6040805163ffffffff9384168152929091166020830152016103b0565b61093361095e366004614520565b612531565b61045e610971366004614bf4565b612563565b61057f7f000000000000000000000000000000000000000000000000000000000000000081565b6103a67f000000000000000000000000000000000000000000000000000000000000000081565b6105dd6109d23660046147f6565b612684565b61045e6109e5366004614559565b612794565b6103a66109f8366004614520565b6000908152606d602052604090205490565b6103a6610a18366004614559565b6001600160a01b031660009081526068602052604090205490565b60007f00000000000000000000000000000000000000000000000000000000000000008210610b045760405162461bcd60e51b815260206004820152606660248201527f566f746557656967686572426173652e73747261746567696573436f6e73696460448201527f65726564416e644d756c7469706c696572734c656e6774683a2071756f72756d60648201527f4e756d62657220696e7075742065786365656473204e554d4245525f4f465f51608482015265554f52554d5360d01b60a482015260c4015b60405180910390fd5b5060009081526065602052604090205490565b606c6020528160005260406000208181548110610b3357600080fd5b60009182526020909120015463ffffffff8082169350600160201b82041691506001600160601b03600160401b8204811691600160a01b90041684565b7f00000000000000000000000000000000000000000000000000000000000000006001600160a01b0316638da5cb5b6040518163ffffffff1660e01b8152600401602060405180830381865afa158015610bce573d6000803e3d6000fd5b505050506040513d601f19601f82011682018060405250810190610bf29190614c51565b6001600160a01b0316336001600160a01b031614610c225760405162461bcd60e51b8152600401610afb90614c6e565b606780546001600160801b03928316600160801b029216919091179055565b6001336000908152606860205260409020600190810154600160201b900460ff1690811115610c7257610c72614576565b14610cf85760405162461bcd60e51b815260206004820152604a60248201527f5265676973747279426173652e757064617465536f636b65743a2043616e206f60448201527f6e6c792075706461746520736f636b657420696620616374697665206f6e20746064820152696865207365727669636560b01b608482015260a401610afb565b7fe8b6bc12be6e3abe0dcea31ecbc3a015bc0346210e971332ea65f3b49c7bd32e338383604051610d2b93929190614cce565b60405180910390a15050565b6000606e8281548110610d4c57610d4c614cfc565b600091825260209091206001600290920201015463ffffffff1692915050565b610d746144db565b606a8281548110610d8757610d87614cfc565b600091825260209182902060408051608081018252919092015463ffffffff8082168352600160201b820416938201939093526001600160601b03600160401b8404811692820192909252600160a01b90920416606082015292915050565b6040805180820190915260008082526020820152606e8281548110610e0d57610e0d614cfc565b600091825260209182902060408051808201909152600290920201805482526001015463ffffffff169181019190915292915050565b600080610e4f83611318565b606001519392505050565b6000806000610e6884611318565b9050806040015181606001519250925050915091565b6071546000906001600160a01b03163314610eea5760405162461bcd60e51b815260206004820152602660248201527f6f6e6c79466f726365446572656769737465722063616e20646f20746869732060448201526530b1ba34b7b760d11b6064820152608401610afb565b610ef583858461280d565b5060015b9392505050565b60656020528160005260406000208181548110610f1c57600080fd5b6000918252602090912001546001600160a01b0381169250600160a01b90046001600160601b0316905082565b610f516144db565b6000838152606c60205260409020805483908110610f7157610f71614cfc565b600091825260209182902060408051608081018252919092015463ffffffff8082168352600160201b820416938201939093526001600160601b03600160401b8404811692820192909252600160a01b909204166060820152905092915050565b604051637e6b4e3360e11b81523360048201526000907f00000000000000000000000000000000000000000000000000000000000000006001600160a01b03169063fcd69c6690602401602060405180830381865afa158015611039573d6000803e3d6000fd5b505050506040513d601f19601f8201168201806040525081019061105d9190614d12565b151560011461110c5760405162461bcd60e51b815260206004820152606960248201527f424c5352656769737472792e646572656769737465724f70657261746f723a2060448201527f4f70657261746f722073686f756c64206170706c79206465726567697374657260648201527f207065726d697373696f6e20666972737420616e64207468656e2063616e206460848201526832b932b3b4b9ba32b960b91b60a482015260c401610afb565b61111733848461280d565b50600192915050565b6001600160a01b0381166000908152606860205260408120600190810154600160201b900460ff168181111561115857611158614576565b1492915050565b6000606e838154811061117457611174614cfc565b600091825260209091206001600290920201015463ffffffff90811690831610156111f95760405162461bcd60e51b815260206004820152602f60248201527f424c5352656769737472792e676574436f727265637441706b486173683a206960448201526e1b99195e081d1bdbc81c9958d95b9d608a1b6064820152608401610afb565b606e5461120890600190614d4a565b83146112bd57606e61121b846001614d61565b8154811061122b5761122b614cfc565b600091825260209091206001600290920201015463ffffffff908116908316106112bd5760405162461bcd60e51b815260206004820152603a60248201527f424c5352656769737472792e676574436f727265637441706b486173683a204e60448201527f6f74206c61746573742076616c69642061706b207570646174650000000000006064820152608401610afb565b606e83815481106112d0576112d0614cfc565b906000526020600020906002020160000154905092915050565b6000606e82815481106112ff576112ff614cfc565b9060005260206000209060020201600001549050919050565b6113206144db565b6001600160a01b0382166000908152606860205260408120546000818152606c60205260409020549091506113536144db565b8161136057949350505050565b6000838152606c60205260409020611379600184614d4a565b8154811061138957611389614cfc565b600091825260209182902060408051608081018252919092015463ffffffff8082168352600160201b820416938201939093526001600160601b03600160401b8404811692820192909252600160a01b90920416606082015295945050505050565b6001600160a01b038316600090815260686020908152604080832054808452606c909252822080548391908590811061142657611426614cfc565b600091825260209182902060408051608081018252929091015463ffffffff808216808552600160201b8304909116948401949094526001600160601b03600160401b8204811692840192909252600160a01b9004166060820152915085108015906114ad5750602081015163ffffffff1615806114ad575084816020015163ffffffff16115b80156114db575060408101516001600160601b03161515806114db575060608101516001600160601b031615155b9695505050505050565b7f00000000000000000000000000000000000000000000000000000000000000006001600160a01b0316638da5cb5b6040518163ffffffff1660e01b8152600401602060405180830381865afa158015611543573d6000803e3d6000fd5b505050506040513d601f19601f820116820180604052508101906115679190614c51565b6001600160a01b0316336001600160a01b0316146115975760405162461bcd60e51b8152600401610afb90614c6e565b6115a18282612915565b5050565b6115ad612bb0565b6001600160a01b03811661163d5760405162461bcd60e51b815260206004820152604b60248201527f424c5352656769737472792e736574466f726365446572656769737465723a2060448201527f666f72636544657265676973746572206164647265737320697320746865207a60648201526a65726f206164647265737360a81b608482015260a401610afb565b607180546001600160a01b0319166001600160a01b0392909216919091179055565b611667612bb0565b6116716000612c0a565b565b6001600160a01b03831660009081526068602052604081205463ffffffff831615806116e657506000818152606d6020526040902063ffffffff8516906116bb600186614d79565b63ffffffff16815481106116d1576116d1614cfc565b60009182526020909120015463ffffffff1611155b6117675760405162461bcd60e51b815260206004820152604660248201527f5265676973747279426173652e6765744f70657261746f72496e6465783a204f60448201527f70657261746f7220696e646578486973746f727920696e64657820697320746f6064820152650de40d0d2ced60d31b608482015260a401610afb565b6000818152606d60205260408120805463ffffffff861690811061178d5761178d614cfc565b60009182526020918290206040805180820190915291015463ffffffff808216808452600160201b9092041692820192909252915015806117dd5750806000015163ffffffff168563ffffffff16105b61184f5760405162461bcd60e51b815260206004820152603c60248201527f5265676973747279426173652e6765744f70657261746f72496e6465783a206960448201527f6e646578486973746f727920696e64657820697320746f6f206c6f77000000006064820152608401610afb565b6020015195945050505050565b60008061186883611318565b604001519392505050565b7f00000000000000000000000000000000000000000000000000000000000000006001600160a01b0316638da5cb5b6040518163ffffffff1660e01b8152600401602060405180830381865afa1580156118d1573d6000803e3d6000fd5b505050506040513d601f19601f820116820180604052508101906118f59190614c51565b6001600160a01b0316336001600160a01b0316146119255760405162461bcd60e51b8152600401610afb90614c6e565b606780546fffffffffffffffffffffffffffffffff19166001600160801b0392909216919091179055565b6000807f0000000000000000000000000000000000000000000000000000000000000000831015610ef957600061198684610a33565b604080518082019091526000808252602082015290915060005b82811015611b495760008681526065602052604090208054829081106119c8576119c8614cfc565b6000918252602080832060408051808201825293909101546001600160a01b03808216808652600160a01b9092046001600160601b031693850193909352905163778e55f360e01b81528b8316600482015260248101919091529194507f0000000000000000000000000000000000000000000000000000000000000000169063778e55f390604401602060405180830381865afa158015611a6e573d6000803e3d6000fd5b505050506040513d601f19601f82011682018060405250810190611a929190614d9e565b90508015611b40576020830151835160405163f3e7387560e01b815260048101849052670de0b6b3a7640000926001600160601b0316916001600160a01b03169063f3e73875906024016020604051808303816000875af1158015611afb573d6000803e3d6000fd5b505050506040513d601f19601f82011682018060405250810190611b1f9190614d9e565b611b299190614db7565b611b339190614dec565b611b3d9086614e00565b94505b506001016119a0565b5050509392505050565b6000806000606a6001606a80549050611b6c9190614d4a565b81548110611b7c57611b7c614cfc565b600091825260209182902060408051608081018252919092015463ffffffff8082168352600160201b820416938201939093526001600160601b03600160401b84048116928201839052600160a01b909304909216606090920182905294909350915050565b7f00000000000000000000000000000000000000000000000000000000000000006001600160a01b0316638da5cb5b6040518163ffffffff1660e01b8152600401602060405180830381865afa158015611c40573d6000803e3d6000fd5b505050506040513d601f19601f82011682018060405250810190611c649190614c51565b6001600160a01b0316336001600160a01b031614611c945760405162461bcd60e51b8152600401610afb90614c6e565b82818114611d1e5760405162461bcd60e51b815260206004820152604b60248201527f566f746557656967686572426173652e72656d6f76655374726174656769657360448201527f436f6e73696465726564416e64576569676874733a20696e707574206c656e6760648201526a0e8d040dad2e6dac2e8c6d60ab1b608482015260a401610afb565b60005b81811015611f8157858582818110611d3b57611d3b614cfc565b9050602002016020810190611d509190614559565b6001600160a01b031660656000898152602001908152602001600020858584818110611d7e57611d7e614cfc565b9050602002013581548110611d9557611d95614cfc565b6000918252602090912001546001600160a01b031614611e2b5760405162461bcd60e51b815260206004820152604560248201527f566f746557656967686572426173652e72656d6f76655374726174656769657360448201527f436f6e73696465726564416e64576569676874733a20696e64657820696e636f6064820152641c9c9958dd60da1b608482015260a401610afb565b60008781526065602052604090208054611e4790600190614d4a565b81548110611e5757611e57614cfc565b9060005260206000200160656000898152602001908152602001600020858584818110611e8657611e86614cfc565b9050602002013581548110611e9d57611e9d614cfc565b600091825260208083208454920180546001600160a01b0319166001600160a01b03909316928317815593546001600160601b03600160a01b918290041602909117909255888152606590915260409020805480611efd57611efd614e2b565b600082815260208120820160001990810191909155019055867f327495b508542e8eeed9261ee4edc99d913ed525014a835e67fe5c1669c7c8b4878784818110611f4957611f49614cfc565b9050602002016020810190611f5e9190614559565b6040516001600160a01b03909116815260200160405180910390a2600101611d21565b50505050505050565b600063ffffffff82161580611fd9575063ffffffff8316606b611fae600185614d79565b63ffffffff1681548110611fc457611fc4614cfc565b60009182526020909120015463ffffffff1611155b61205b5760405162461bcd60e51b815260206004820152604760248201527f5265676973747279426173652e676574546f74616c4f70657261746f72733a2060448201527f546f74616c4f70657261746f7273486973746f727920696e64657820697320746064820152660dede40d0d2ced60cb1b608482015260a401610afb565b6000606b8363ffffffff168154811061207657612076614cfc565b60009182526020918290206040805180820190915291015463ffffffff8082168352600160201b909104169101819052949350505050565b606a8054600091906120c290600190614d4a565b815481106120d2576120d2614cfc565b600091825260209182902060408051608081018252919092015463ffffffff8082168352600160201b820416938201939093526001600160601b03600160401b8404811692820192909252600160a01b90920416606082015290506121356144db565b6000858481146121bf5760405162461bcd60e51b815260206004820152604960248201527f424c5352656769737472792e7570646174655374616b65733a2070726576456c60448201527f656d656e74206973206e6f74207468652073616d65206c656e677468206173206064820152686f70657261746f727360b81b608482015260a401610afb565b60005b8181101561237157606860008a8a848181106121e0576121e0614cfc565b90506020020160208101906121f59190614559565b6001600160a01b031681526020808201929092526040908101600090812054808252606c9093522080549194509061222f90600190614d4a565b8154811061223f5761223f614cfc565b600091825260209182902060408051608081018252919092015463ffffffff8082168352600160201b820416938201939093526001600160601b03600160401b84048116828401819052600160a01b9094041660608201529087018051919650906122ab908390614e41565b6001600160601b031690525060608085015190860180516122cd908390614e41565b6001600160601b03169052506123238989838181106122ee576122ee614cfc565b90506020020160208101906123039190614559565b84868a8a8681811061231757612317614cfc565b90506020020135612c5c565b935083604001518560400181815161233b9190614e00565b6001600160601b0316905250606080850151908601805161235d908390614e00565b6001600160601b03169052506001016121c2565b5061237b84612e17565b5050505050505050565b600054610100900460ff16158080156123a55750600054600160ff909116105b806123bf5750303b1580156123bf575060005460ff166001145b6124225760405162461bcd60e51b815260206004820152602e60248201527f496e697469616c697a61626c653a20636f6e747261637420697320616c72656160448201526d191e481a5b9a5d1a585b1a5e995960921b6064820152608401610afb565b6000805460ff191660011790558015612445576000805461ff0019166101001790555b61244e84612c0a565b61246d6040518060400160405280600081526020016000815250612f08565b50612479858484612fb9565b80156124c0576000805461ff0019169055604051600181527f7f26b83ff96e1f2b6a682f133852f6798a09c465da95921460cefb3847402498906020015b60405180910390a15b5050505050565b606981815481106124d757600080fd5b6000918252602090912001546001600160a01b0316905081565b606d602052816000526040600020818154811061250d57600080fd5b60009182526020909120015463ffffffff8082169350600160201b90910416905082565b606b818154811061254157600080fd5b60009182526020909120015463ffffffff8082169250600160201b9091041682565b60405163bfd79e9960e01b81523360048201527f00000000000000000000000000000000000000000000000000000000000000006001600160a01b03169063bfd79e9990602401602060405180830381865afa1580156125c7573d6000803e3d6000fd5b505050506040513d601f19601f820116820180604052508101906125eb9190614d12565b15156001146126715760405162461bcd60e51b815260206004820152604660248201527f424c5352656769737472792e72656769737465724f70657261746f723a204f7060448201527f657261746f7220646f6573206e6f74207065726d697373696f6e20746f20726560648201526533b4b9ba32b960d11b608482015260a401610afb565b61267e3385858585613102565b50505050565b6001600160a01b038316600090815260686020908152604080832054808452606c9092528220546126b9576001915050610ef9565b6000818152606c602052604081208054859081106126d9576126d9614cfc565b600091825260209182902060408051608081018252929091015463ffffffff808216808552600160201b8304909116948401949094526001600160601b03600160401b8204811692840192909252600160a01b9004166060820152915085108015906127605750602081015163ffffffff161580612760575084816020015163ffffffff16115b80156114db575060408101516001600160601b03161580156114db5750606001516001600160601b03161595945050505050565b61279c612bb0565b6001600160a01b0381166128015760405162461bcd60e51b815260206004820152602660248201527f4f776e61626c653a206e6577206f776e657220697320746865207a65726f206160448201526564647265737360d01b6064820152608401610afb565b61280a81612c0a565b50565b6128178382613378565b6001600160a01b038316600090815260686020526040902054612839836134ca565b81146128c45760405162461bcd60e51b815260206004820152604e60248201527f424c5352656769737472792e5f646572656769737465724f70657261746f723a60448201527f207075626b657920696e70757420646f6573206e6f74206d617463682073746f60648201526d0e4cac840e0eac4d6caf290c2e6d60931b608482015260a401610afb565b60408051808201909152606f54815260705460208201526000906128f0906128eb8661350d565b6135cc565b905060006128fd826134ca565b905061290c868487848861366f565b611f8182612f08565b8051600083815260656020908152604090912054906129348383614d61565b11156129ce5760405162461bcd60e51b815260206004820152605b60248201527f566f746557656967686572426173652e5f61646453747261746567696573436f60448201527f6e73696465726564416e644d756c7469706c696572733a20657863656564204d60648201527f41585f5745494748494e475f46554e4354494f4e5f4c454e4754480000000000608482015260a401610afb565b60005b828110156124c05760005b6129e68284614d61565b811015612ae5578482815181106129ff576129ff614cfc565b6020026020010151600001516001600160a01b0316606560008881526020019081526020016000208281548110612a3857612a38614cfc565b6000918252602090912001546001600160a01b03161415612add5760405162461bcd60e51b815260206004820152605360248201527f566f746557656967686572426173652e5f61646453747261746567696573436f60448201527f6e73696465726564416e644d756c7469706c696572733a2063616e6e6f7420616064820152720c8c840e6c2daca40e6e8e4c2e8cacef24064f606b1b608482015260a401610afb565b6001016129dc565b5060008581526065602052604090208451859083908110612b0857612b08614cfc565b6020908102919091018101518254600181018455600093845292829020815191909201516001600160601b0316600160a01b026001600160a01b0390911617910155835185907fa9d6f91aa411cbebcc7bd4c1f2685e2f4677353ebadfba370f19a365ea679d9290869084908110612b8257612b82614cfc565b602090810291909101810151516040516001600160a01b0390911681520160405180910390a26001016129d1565b6033546001600160a01b031633146116715760405162461bcd60e51b815260206004820181905260248201527f4f776e61626c653a2063616c6c6572206973206e6f7420746865206f776e65726044820152606401610afb565b603380546001600160a01b038381166001600160a01b0319831681179093556040519116919082907f8be0079c531659141344cd1fd0a4f28419497f9722a3daafe3b4186f6b6457e090600090a35050565b612c646144db565b63ffffffff43168152612c78856000611950565b6001600160601b03166040820152612c91856001611950565b6001600160601b03908116606083015260675460408301516001600160801b0390911691161015612cc457600060408201525b606760109054906101000a90046001600160801b03166001600160801b031681606001516001600160601b03161015612cff57600060608201525b6000848152606c602052604090208054439190612d1e90600190614d4a565b81548110612d2e57612d2e614cfc565b6000918252602080832091909101805467ffffffff000000001916600160201b63ffffffff958616810291909117909155878352606c825260408084208054600181018255908552938390208651940180549387015187830151606089015196881667ffffffffffffffff19909616959095179616909202949094176001600160401b0316600160401b6001600160601b03808516919091026001600160a01b031691909117600160a01b9185169190910217905585519251600080516020614fc683398151915293612e07938a939290914391614e61565b60405180910390a1949350505050565b4363ffffffff81168252606a8054612e3190600190614d4a565b81548110612e4157612e41614cfc565b6000918252602080832091909101805467ffffffff000000001916600160201b63ffffffff958616810291909117909155606a8054600181018255935284517f116fea137db6e131133e7f2bab296045d8f41cc5607279db17b218cab0929a51909301805492860151604087015160609097015194861667ffffffffffffffff19909416939093179290941602176001600160401b0316600160401b6001600160601b03948516026001600160a01b031617600160a01b9390911692909202919091179055565b8051606f556020810151607055600080612f21836134ca565b604080518082019091528181524363ffffffff90811660208301908152606e805460018101825560009190915292517f9930d9ff0dee0ef5ca2f7710ea66b8f84dd0f5f5351ecffe72b952cd9db7142a600290940293840155517f9930d9ff0dee0ef5ca2f7710ea66b8f84dd0f5f5351ecffe72b952cd9db7142b909201805463ffffffff1916929091169190911790559392505050565b600054610100900460ff16612fe05760405162461bcd60e51b8152600401610afb90614ea1565b612fe9836137fd565b612ff16144db565b606a805460018082018355600092835283517f116fea137db6e131133e7f2bab296045d8f41cc5607279db17b218cab0929a51909201805460208087015160408089015160608a015163ffffffff98891667ffffffffffffffff1996871617600160201b948a168502176001600160401b0316600160401b6001600160601b03938416026001600160a01b031617600160a01b9290911691909102179094558351808501909452868452908301868152606b80549586018155875283517fbd43cb8ece8cd1863bcd6082d65c5b0d25665b1ce17980f0da43c0ed545f98b49095018054915195871691909316179390941690930291909117909155906130f79085612915565b6124c0600184612915565b600061310e86866139d1565b9050600061311b856134ca565b90507f012893657d8eb2efad4de0a91bcd0e39ad9837745dec3ea923737ea803fc8e3d8114156131be5760405162461bcd60e51b815260206004820152604260248201527f424c5352656769737472792e5f72656769737465724f70657261746f723a204360448201527f616e6e6f74207265676973746572207769746820307830207075626c6963206b606482015261657960f01b608482015260a401610afb565b866001600160a01b03167f00000000000000000000000000000000000000000000000000000000000000006001600160a01b031663e8bb9ae6836040518263ffffffff1660e01b815260040161321691815260200190565b602060405180830381865afa158015613233573d6000803e3d6000fd5b505050506040513d601f19601f820116820180604052508101906132579190614c51565b6001600160a01b0316146132d35760405162461bcd60e51b815260206004820152603b60248201527f424c5352656769737472792e5f72656769737465724f70657261746f723a206f60448201527f70657261746f7220646f6573206e6f74206f776e207075626b657900000000006064820152608401610afb565b60408051808201909152606f54815260705460208201526000906132f790876135cc565b9050600061330482612f08565b9050613311898486613be8565b886001600160a01b03167f64e243174e9021630af072b2083ab0443376f1f979fd165031bf3a8f3d8f436984896001606e805490506133509190614d4a565b858b8b60405161336596959493929190614eec565b60405180910390a2505050505050505050565b60016001600160a01b0383166000908152606860205260409020600190810154600160201b900460ff16908111156133b2576133b2614576565b146134255760405162461bcd60e51b815260206004820152603d60248201527f5265676973747279426173652e5f6465726567697374726174696f6e4368656360448201527f6b3a204f70657261746f72206973206e6f7420726567697374657265640000006064820152608401610afb565b60698163ffffffff168154811061343e5761343e614cfc565b6000918252602090912001546001600160a01b038381169116146115a15760405162461bcd60e51b815260206004820152603b60248201527f5265676973747279426173652e5f6465726567697374726174696f6e4368656360448201527f6b3a20496e636f727265637420696e64657820737570706c69656400000000006064820152608401610afb565b6000816000015182602001516040516020016134f0929190918252602082015260400190565b604051602081830303815290604052805190602001209050919050565b6040805180820190915260008082526020820152815115801561353257506020820151155b15613550575050604080518082019091526000808252602082015290565b6040518060400160405280836000015181526020017f30644e72e131a029b85045b68181585d97816a916871ca8d3c208c16d87cfd4784602001516135959190614f3b565b6135bf907f30644e72e131a029b85045b68181585d97816a916871ca8d3c208c16d87cfd47614d4a565b905292915050565b919050565b60408051808201909152600080825260208201526135e8614502565b835181526020808501518183015283516040808401919091529084015160608301526000908360808460066107d05a03fa905080801561362757613629565bfe5b50806136675760405162461bcd60e51b815260206004820152600d60248201526c1958cb5859190b59985a5b1959609a1b6044820152606401610afb565b505092915050565b600061367a85613fbd565b6000868152606d602052604090208054919250439161369b90600190614d4a565b815481106136ab576136ab614cfc565b60009182526020822001805463ffffffff191663ffffffff93909316929092179091556136d78361423c565b905060007f00000000000000000000000000000000000000000000000000000000000000006001600160a01b0316637dfd16d76040518163ffffffff1660e01b8152600401602060405180830381865afa158015613739573d6000803e3d6000fd5b505050506040513d601f19601f8201168201806040525081019061375d9190614f4f565b6001600160a01b03891660009081526068602052604090819020600101805464ff0000000019169055519091507f8ef77d6a191319f1b2062aac0deb8e311bc3a026914a8c5a0f61bfd290d9d743906137bd908a9085908a908a90614f6c565b60405180910390a1600080516020614fc68339815191528860008043876040516137eb959493929190614e61565b60405180910390a15050505050505050565b600054610100900460ff166138245760405162461bcd60e51b8152600401610afb90614ea1565b7f00000000000000000000000000000000000000000000000000000000000000008151146138c85760405162461bcd60e51b8152602060048201526044602482018190527f566f746557656967686572426173652e5f696e697469616c697a653a205f7175908201527f6f72756d426970732e6c656e67746820213d204e554d4245525f4f465f51554f60648201526352554d5360e01b608482015260a401610afb565b6000805b7f00000000000000000000000000000000000000000000000000000000000000008110156139595782818151811061390657613906614cfc565b6020026020010151826139199190614d61565b915082818151811061392d5761392d614cfc565b6020908102919091018101516000838152606690925260409091205561395281614faa565b90506138cc565b5061271081146115a15760405162461bcd60e51b815260206004820152603860248201527f566f746557656967686572426173652e5f696e697469616c697a653a20746f7460448201527f616c51756f72756d4269707320213d204d41585f4249505300000000000000006064820152608401610afb565b6139d96144db565b60006001600160a01b0384166000908152606860205260409020600190810154600160201b900460ff1690811115613a1357613a13614576565b14613a985760405162461bcd60e51b815260206004820152604960248201527f5265676973747279426173652e5f726567697374726174696f6e5374616b654560448201527f76616c756174696f6e3a204f70657261746f7220697320616c726561647920726064820152681959da5cdd195c995960ba1b608482015260a401610afb565b613aa06144db565b60018084161415613ae057613ab6846000611950565b6001600160601b0316604082018190526067546001600160801b03161115613ae057600060408201525b60028084161415613b2757613af6846001611950565b6001600160601b031660608201819052606754600160801b90046001600160801b03161115613b2757600060608201525b600081604001516001600160601b03161180613b505750600081606001516001600160601b0316115b610ef95760405162461bcd60e51b815260206004820152605a60248201527f5265676973747279426173652e5f726567697374726174696f6e5374616b654560448201527f76616c756174696f6e3a204d757374207265676973746572206173206174206c60648201527f65617374206f6e652074797065206f662076616c696461746f72000000000000608482015260a401610afb565b60405180606001604052808381526020017f00000000000000000000000000000000000000000000000000000000000000006001600160a01b03166372d18e8d6040518163ffffffff1660e01b8152600401602060405180830381865afa158015613c57573d6000803e3d6000fd5b505050506040513d601f19601f82011682018060405250810190613c7b9190614f4f565b63ffffffff168152602001600190526001600160a01b03841660009081526068602090815260409182902083518155908301516001808301805463ffffffff90931663ffffffff19841681178255948601519394909264ffffffffff19161790600160201b908490811115613cf257613cf2614576565b02179055505060698054600181019091557f7fb4302e8e91f9110a6554c2c0a24601252c2a42c2220ca988efcfe3999143080180546001600160a01b0319166001600160a01b038616179055504363ffffffff1681526000828152606c602052604090205415613db7576000828152606c602052604090208054439190613d7b90600190614d4a565b81548110613d8b57613d8b614cfc565b9060005260206000200160000160046101000a81548163ffffffff021916908363ffffffff1602179055505b6000828152606c6020908152604080832080546001810182559084528284208551910180548685015187850151606089015163ffffffff95861667ffffffffffffffff1990941693909317600160201b9590921694909402176001600160401b0316600160401b6001600160601b03948516026001600160a01b031617600160a01b9390911692909202919091179055805180820190915282815290810191909152606954613e6890600190614d4a565b63ffffffff90811660208084019182526000868152606d82526040812080546001818101835591835292822086519301805494518616600160201b0267ffffffffffffffff19909516939095169290921792909217909255606a805491929091613ed29190614d4a565b81548110613ee257613ee2614cfc565b600091825260209182902060408051608081018252919092015463ffffffff8082168352600160201b820416938201939093526001600160601b03600160401b84048116828401818152600160a01b9095049091166060830152918601519093509190613f50908390614e00565b6001600160601b03169052506060808401519082018051613f72908390614e00565b6001600160601b0316905250613f8781612e17565b613f8f614427565b600080516020614fc683398151915285846040015185606001514360006040516124b7959493929190614e61565b6000818152606c60205260408120548190613fda90600190614d4a565b6000848152606c602052604081208054929350909183908110613fff57613fff614cfc565b6000918252602080832060408051608081018252919093015463ffffffff8082168352600160201b820416828401526001600160601b03600160401b8204811683860152600160a01b909104166060820152878452606c9091529120805491925043918490811061407257614072614cfc565b6000918252602080832091909101805467ffffffff000000001916600160201b63ffffffff958616810291909117909155878352606c825260408084208151608081018352438716815280850186815292810186815260608201878152835460018181018655948952968820925192909601805494519151965192891667ffffffffffffffff19909516949094179716909302959095176001600160401b0316600160401b6001600160601b03948516026001600160a01b031617600160a01b9390921692909202179055606a80549192909161414f9190614d4a565b8154811061415f5761415f614cfc565b600091825260209182902060408051608081018252919092015463ffffffff8082168352600160201b820416938201939093526001600160601b03600160401b84048116828401818152600160a01b90950490911660608301529185015190935091906141cd908390614e41565b6001600160601b031690525060608083015190820180516141ef908390614e41565b6001600160601b031690525061420481612e17565b8151604051600080516020614fc68339815191529161422b91339160009182914391614e61565b60405180910390a150519392505050565b606954600090819061425090600190614d4a565b9050808363ffffffff1610156143e6576069818154811061427357614273614cfc565b6000918252602080832091909101546001600160a01b031680835260688252604080842081516060810183528154815260018083015463ffffffff81169683019690965293975093909291840191600160201b90910460ff16908111156142dc576142dc614576565b60018111156142ed576142ed614576565b90525080516000818152606d602052604090208054929350909143919061431690600190614d4a565b8154811061432657614326614cfc565b6000918252602080832091909101805463ffffffff191663ffffffff948516179055604080518082018252838152898516818401818152878652606d855292852080546001810182559086529390942081519301805492518616600160201b0267ffffffffffffffff199093169390951692909217179092556069805487929081106143b4576143b4614cfc565b9060005260206000200160006101000a8154816001600160a01b0302191690836001600160a01b031602179055505050505b60698054806143f7576143f7614e2b565b600082815260209020810160001990810180546001600160a01b0319169055019055614421614427565b50919050565b606b805443919061443a90600190614d4a565b8154811061444a5761444a614cfc565b6000918252602080832091909101805463ffffffff191663ffffffff948516179055604080518082019091528281526069548416918101918252606b80546001810182559352517fbd43cb8ece8cd1863bcd6082d65c5b0d25665b1ce17980f0da43c0ed545f98b4909201805491518416600160201b0267ffffffffffffffff199092169290931691909117179055565b60408051608081018252600080825260208201819052918101829052606081019190915290565b60405180608001604052806004906020820280368337509192915050565b60006020828403121561453257600080fd5b5035919050565b6001600160a01b038116811461280a57600080fd5b80356135c781614539565b60006020828403121561456b57600080fd5b8135610ef981614539565b634e487b7160e01b600052602160045260246000fd5b83815263ffffffff8316602082015260608101600283106145bd57634e487b7160e01b600052602160045260246000fd5b826040830152949350505050565b600080604083850312156145de57600080fd5b50508035926020909101359150565b6000602082840312156145ff57600080fd5b81356001600160801b0381168114610ef957600080fd5b60008083601f84011261462857600080fd5b5081356001600160401b0381111561463f57600080fd5b60208301915083602082850101111561465757600080fd5b9250929050565b6000806020838503121561467157600080fd5b82356001600160401b0381111561468757600080fd5b61469385828601614616565b90969095509350505050565b634e487b7160e01b600052604160045260246000fd5b604080519081016001600160401b03811182821017156146d7576146d761469f565b60405290565b604051601f8201601f191681016001600160401b03811182821017156147055761470561469f565b604052919050565b60006040828403121561471f57600080fd5b6147276146b5565b9050813581526020820135602082015292915050565b63ffffffff8116811461280a57600080fd5b60008060006080848603121561476457600080fd5b61476e858561470d565b9250604084013561477e81614539565b9150606084013561478e8161473d565b809150509250925092565b600080606083850312156147ac57600080fd5b6147b6848461470d565b915060408301356147c68161473d565b809150509250929050565b600080604083850312156147e457600080fd5b8235915060208301356147c68161473d565b60008060006060848603121561480b57600080fd5b833561481681614539565b95602085013595506040909401359392505050565b60006001600160401b038211156148445761484461469f565b5060051b60200190565b600082601f83011261485f57600080fd5b8135602061487461486f8361482b565b6146dd565b82815260069290921b8401810191818101908684111561489357600080fd5b8286015b848110156148f157604081890312156148b05760008081fd5b6148b86146b5565b81356148c381614539565b8152818501356001600160601b03811681146148df5760008081fd5b81860152835291830191604001614897565b509695505050505050565b6000806040838503121561490f57600080fd5b8235915060208301356001600160401b0381111561492c57600080fd5b6149388582860161484e565b9150509250929050565b60008060006060848603121561495757600080fd5b833561496281614539565b925060208401356149728161473d565b9150604084013561478e8161473d565b6000806040838503121561499557600080fd5b82356149a081614539565b946020939093013593505050565b60008083601f8401126149c057600080fd5b5081356001600160401b038111156149d757600080fd5b6020830191508360208260051b850101111561465757600080fd5b600080600080600060608688031215614a0a57600080fd5b8535945060208601356001600160401b0380821115614a2857600080fd5b614a3489838a016149ae565b90965094506040880135915080821115614a4d57600080fd5b50614a5a888289016149ae565b969995985093965092949392505050565b60008060408385031215614a7e57600080fd5b8235614a898161473d565b915060208301356147c68161473d565b60008060008060408587031215614aaf57600080fd5b84356001600160401b0380821115614ac657600080fd5b614ad2888389016149ae565b90965094506020870135915080821115614aeb57600080fd5b50614af8878288016149ae565b95989497509550505050565b60008060008060808587031215614b1a57600080fd5b84356001600160401b0380821115614b3157600080fd5b818701915087601f830112614b4557600080fd5b81356020614b5561486f8361482b565b82815260059290921b8401810191818101908b841115614b7457600080fd5b948201945b83861015614b9257853582529482019490820190614b79565b9850614ba1905089820161454e565b965050506040870135915080821115614bb957600080fd5b614bc58883890161484e565b93506060870135915080821115614bdb57600080fd5b50614be88782880161484e565b91505092959194509250565b60008060008060808587031215614c0a57600080fd5b843560ff81168114614c1b57600080fd5b9350614c2a866020870161470d565b925060608501356001600160401b03811115614c4557600080fd5b614af887828801614616565b600060208284031215614c6357600080fd5b8151610ef981614539565b60208082526017908201527f6f6e6c79536572766963654d616e616765724f776e6572000000000000000000604082015260600190565b81835281816020850137506000828201602090810191909152601f909101601f19169091010190565b6001600160a01b0384168152604060208201819052600090614cf39083018486614ca5565b95945050505050565b634e487b7160e01b600052603260045260246000fd5b600060208284031215614d2457600080fd5b81518015158114610ef957600080fd5b634e487b7160e01b600052601160045260246000fd5b600082821015614d5c57614d5c614d34565b500390565b60008219821115614d7457614d74614d34565b500190565b600063ffffffff83811690831681811015614d9657614d96614d34565b039392505050565b600060208284031215614db057600080fd5b5051919050565b6000816000190483118215151615614dd157614dd1614d34565b500290565b634e487b7160e01b600052601260045260246000fd5b600082614dfb57614dfb614dd6565b500490565b60006001600160601b03808316818516808303821115614e2257614e22614d34565b01949350505050565b634e487b7160e01b600052603160045260246000fd5b60006001600160601b0383811690831681811015614d9657614d96614d34565b6001600160a01b039590951685526001600160601b03938416602086015291909216604084015263ffffffff918216606084015216608082015260a00190565b6020808252602b908201527f496e697469616c697a61626c653a20636f6e7472616374206973206e6f74206960408201526a6e697469616c697a696e6760a81b606082015260800190565b868152614f06602082018780518252602090810151910152565b63ffffffff8516606082015283608082015260c060a08201526000614f2f60c083018486614ca5565b98975050505050505050565b600082614f4a57614f4a614dd6565b500690565b600060208284031215614f6157600080fd5b8151610ef98161473d565b6001600160a01b0385811682528416602082015260a08101614f9b604083018580518252602090810151910152565b82608083015295945050505050565b6000600019821415614fbe57614fbe614d34565b506001019056fe8c0aadfe7a1edd23552658fc25a05db22c9ca07d4db53e3cebbf9a20b73c7515a2646970667358221220b7ab74311adc6aa21d768c89b6e5fca01d2769f28b8f35ffe0072481a7665a5364736f6c634300080c0033",
    "linkReferences": {}
  },
  "methodIdentifiers": {
    "NUMBER_OF_QUORUMS()": "e21ade6d",
    "addStrategiesConsideredAndMultipliers(uint256,(address,uint96)[])": "6bbc5310",
    "apk()": "b69c7f77",
    "apkHashes(uint256)": "4dcc3afd",
    "apkUpdateBlockNumbers(uint256)": "100bd46b",
    "apkUpdates(uint256)": "10d8d746",
    "checkOperatorActiveAtBlockNumber(address,uint256,uint256)": "629b312a",
    "checkOperatorInactiveAtBlockNumber(address,uint256,uint256)": "e84ef3cb",
    "delegation()": "df5cf723",
    "deregisterOperator((uint256,uint256),uint32)": "28797dfb",
    "firstQuorumStakedByOperator(address)": "8392eb59",
    "forceDeregister()": "cc008423",
    "forceDeregisterOperator((uint256,uint256),address,uint32)": "1d2c512a",
    "getApkUpdatesLength()": "3770cc86",
    "getCorrectApkHash(uint256,uint32)": "3d74445d",
    "getFromTaskNumberForOperator(address)": "ae124d40",
    "getLengthOfPubkeyHashIndexHistory(bytes32)": "fae6cf58",
    "getLengthOfPubkeyHashStakeHistory(bytes32)": "aeadd15c",
    "getLengthOfTotalOperatorsHistory()": "3531d479",
    "getLengthOfTotalStakeHistory()": "ca06c782",
    "getMostRecentStakeByOperator(address)": "53c9264a",
    "getOperatorIndex(address,uint32,uint32)": "7210b0c9",
    "getOperatorPubkeyHash(address)": "fd0d930a",
    "getStakeFromPubkeyHashAndIndex(bytes32,uint256)": "2173fa23",
    "getStakeHistoryLength(bytes32)": "2979536e",
    "getTotalOperators(uint32,uint32)": "b322bdc7",
    "getTotalStakeFromIndex(uint256)": "102068d3",
    "initialize(uint256[],address,(address,uint96)[],(address,uint96)[])": "c9304a97",
    "investmentManager()": "4b31bb10",
    "isActiveOperator(address)": "3367cca5",
    "minimumStakeFirstQuorum()": "ca150cb6",
    "minimumStakeSecondQuorum()": "a9983b5c",
    "numOperators()": "bd820688",
    "operatorList(uint256)": "cb38f407",
    "operatorStakes(address)": "1c9856ae",
    "owner()": "8da5cb5b",
    "permissionManager()": "cc7a2049",
    "pubkeyCompendium()": "187548c8",
    "pubkeyHashToIndexHistory(bytes32,uint256)": "d24f6ddd",
    "pubkeyHashToStakeHistory(bytes32,uint256)": "0712b6a4",
    "quorumBips(uint256)": "28420dfa",
    "registerOperator(uint8,(uint256,uint256),string)": "ddd37732",
    "registry(address)": "038defd7",
    "removeStrategiesConsideredAndMultipliers(uint256,address[],uint256[])": "a3c96ce5",
    "renounceOwnership()": "715018a6",
    "secondQuorumStakedByOperator(address)": "17422e8a",
    "serviceManager()": "3998fdd3",
    "setForceDeregister(address)": "6d3112cd",
    "setMinimumStakeFirstQuorum(uint128)": "88db78a9",
    "setMinimumStakeSecondQuorum(uint128)": "0baa9798",
    "strategiesConsideredAndMultipliers(uint256,uint256)": "1ea1afe1",
    "strategiesConsideredAndMultipliersLength(uint256)": "0191f72c",
    "totalOperatorsHistory(uint256)": "d266b108",
    "totalStake()": "8b0e9f3f",
    "transferOwnership(address)": "f2fde38b",
    "updateSocket(string)": "0cf4b767",
    "updateStakes(address[],uint256[])": "b7e6df0e",
    "weightOfOperator(address,uint256)": "891f28a5"
  },
  "id": 69
}